{
  "_format": "hh-sol-artifact-1",
  "contractName": "LeafContract",
  "sourceName": "contracts/LeafContract.sol",
  "abi": [
    {
      "inputs": [
        {
          "internalType": "string",
          "name": "_tokenName",
          "type": "string"
        },
        {
          "internalType": "address",
          "name": "_marketplaceAddress",
          "type": "address"
        }
      ],
      "stateMutability": "nonpayable",
      "type": "constructor"
    },
    {
      "anonymous": false,
      "inputs": [
        {
          "indexed": true,
          "internalType": "address",
          "name": "account",
          "type": "address"
        },
        {
          "indexed": true,
          "internalType": "address",
          "name": "operator",
          "type": "address"
        },
        {
          "indexed": false,
          "internalType": "bool",
          "name": "approved",
          "type": "bool"
        }
      ],
      "name": "ApprovalForAll",
      "type": "event"
    },
    {
      "anonymous": false,
      "inputs": [
        {
          "indexed": true,
          "internalType": "address",
          "name": "operator",
          "type": "address"
        },
        {
          "indexed": true,
          "internalType": "address",
          "name": "from",
          "type": "address"
        },
        {
          "indexed": true,
          "internalType": "address",
          "name": "to",
          "type": "address"
        },
        {
          "indexed": false,
          "internalType": "uint256[]",
          "name": "ids",
          "type": "uint256[]"
        },
        {
          "indexed": false,
          "internalType": "uint256[]",
          "name": "values",
          "type": "uint256[]"
        }
      ],
      "name": "TransferBatch",
      "type": "event"
    },
    {
      "anonymous": false,
      "inputs": [
        {
          "indexed": true,
          "internalType": "address",
          "name": "operator",
          "type": "address"
        },
        {
          "indexed": true,
          "internalType": "address",
          "name": "from",
          "type": "address"
        },
        {
          "indexed": true,
          "internalType": "address",
          "name": "to",
          "type": "address"
        },
        {
          "indexed": false,
          "internalType": "uint256",
          "name": "id",
          "type": "uint256"
        },
        {
          "indexed": false,
          "internalType": "uint256",
          "name": "value",
          "type": "uint256"
        }
      ],
      "name": "TransferSingle",
      "type": "event"
    },
    {
      "anonymous": false,
      "inputs": [
        {
          "indexed": false,
          "internalType": "string",
          "name": "value",
          "type": "string"
        },
        {
          "indexed": true,
          "internalType": "uint256",
          "name": "id",
          "type": "uint256"
        }
      ],
      "name": "URI",
      "type": "event"
    },
    {
      "inputs": [
        {
          "internalType": "address",
          "name": "account",
          "type": "address"
        },
        {
          "internalType": "uint256",
          "name": "id",
          "type": "uint256"
        }
      ],
      "name": "balanceOf",
      "outputs": [
        {
          "internalType": "uint256",
          "name": "",
          "type": "uint256"
        }
      ],
      "stateMutability": "view",
      "type": "function"
    },
    {
      "inputs": [
        {
          "internalType": "address[]",
          "name": "accounts",
          "type": "address[]"
        },
        {
          "internalType": "uint256[]",
          "name": "ids",
          "type": "uint256[]"
        }
      ],
      "name": "balanceOfBatch",
      "outputs": [
        {
          "internalType": "uint256[]",
          "name": "",
          "type": "uint256[]"
        }
      ],
      "stateMutability": "view",
      "type": "function"
    },
    {
      "inputs": [
        {
          "internalType": "address",
          "name": "account",
          "type": "address"
        },
        {
          "internalType": "uint256",
          "name": "id",
          "type": "uint256"
        },
        {
          "internalType": "uint256",
          "name": "value",
          "type": "uint256"
        }
      ],
      "name": "burn",
      "outputs": [],
      "stateMutability": "nonpayable",
      "type": "function"
    },
    {
      "inputs": [
        {
          "internalType": "address",
          "name": "account",
          "type": "address"
        },
        {
          "internalType": "uint256[]",
          "name": "ids",
          "type": "uint256[]"
        },
        {
          "internalType": "uint256[]",
          "name": "values",
          "type": "uint256[]"
        }
      ],
      "name": "burnBatch",
      "outputs": [],
      "stateMutability": "nonpayable",
      "type": "function"
    },
    {
      "inputs": [
        {
          "internalType": "uint256",
          "name": "id",
          "type": "uint256"
        }
      ],
      "name": "exists",
      "outputs": [
        {
          "internalType": "bool",
          "name": "",
          "type": "bool"
        }
      ],
      "stateMutability": "view",
      "type": "function"
    },
    {
      "inputs": [
        {
          "internalType": "address",
          "name": "account",
          "type": "address"
        },
        {
          "internalType": "address",
          "name": "operator",
          "type": "address"
        }
      ],
      "name": "isApprovedForAll",
      "outputs": [
        {
          "internalType": "bool",
          "name": "",
          "type": "bool"
        }
      ],
      "stateMutability": "view",
      "type": "function"
    },
    {
      "inputs": [
        {
          "internalType": "address",
          "name": "_to",
          "type": "address"
        },
        {
          "internalType": "uint256",
          "name": "_tier",
          "type": "uint256"
        },
        {
          "internalType": "uint256",
          "name": "amount",
          "type": "uint256"
        }
      ],
      "name": "mint",
      "outputs": [],
      "stateMutability": "nonpayable",
      "type": "function"
    },
    {
      "inputs": [
        {
          "internalType": "address",
          "name": "to",
          "type": "address"
        },
        {
          "internalType": "uint256[]",
          "name": "ids",
          "type": "uint256[]"
        },
        {
          "internalType": "uint256[]",
          "name": "amounts",
          "type": "uint256[]"
        }
      ],
      "name": "mintBatch",
      "outputs": [],
      "stateMutability": "nonpayable",
      "type": "function"
    },
    {
      "inputs": [],
      "name": "name",
      "outputs": [
        {
          "internalType": "string",
          "name": "",
          "type": "string"
        }
      ],
      "stateMutability": "view",
      "type": "function"
    },
    {
      "inputs": [
        {
          "internalType": "address",
          "name": "from",
          "type": "address"
        },
        {
          "internalType": "address",
          "name": "to",
          "type": "address"
        },
        {
          "internalType": "uint256[]",
          "name": "ids",
          "type": "uint256[]"
        },
        {
          "internalType": "uint256[]",
          "name": "amounts",
          "type": "uint256[]"
        },
        {
          "internalType": "bytes",
          "name": "data",
          "type": "bytes"
        }
      ],
      "name": "safeBatchTransferFrom",
      "outputs": [],
      "stateMutability": "nonpayable",
      "type": "function"
    },
    {
      "inputs": [
        {
          "internalType": "address",
          "name": "from",
          "type": "address"
        },
        {
          "internalType": "address",
          "name": "to",
          "type": "address"
        },
        {
          "internalType": "uint256",
          "name": "id",
          "type": "uint256"
        },
        {
          "internalType": "uint256",
          "name": "amount",
          "type": "uint256"
        },
        {
          "internalType": "bytes",
          "name": "data",
          "type": "bytes"
        }
      ],
      "name": "safeTransferFrom",
      "outputs": [],
      "stateMutability": "nonpayable",
      "type": "function"
    },
    {
      "inputs": [
        {
          "internalType": "address",
          "name": "_to",
          "type": "address"
        },
        {
          "internalType": "string[6]",
          "name": "_newUris",
          "type": "string[6]"
        },
        {
          "internalType": "uint256[]",
          "name": "ids",
          "type": "uint256[]"
        },
        {
          "internalType": "uint256[]",
          "name": "amounts",
          "type": "uint256[]"
        }
      ],
      "name": "setAndMint",
      "outputs": [],
      "stateMutability": "nonpayable",
      "type": "function"
    },
    {
      "inputs": [
        {
          "internalType": "address",
          "name": "operator",
          "type": "address"
        },
        {
          "internalType": "bool",
          "name": "approved",
          "type": "bool"
        }
      ],
      "name": "setApprovalForAll",
      "outputs": [],
      "stateMutability": "nonpayable",
      "type": "function"
    },
    {
      "inputs": [
        {
          "internalType": "string[6]",
          "name": "newuri",
          "type": "string[6]"
        }
      ],
      "name": "setURI",
      "outputs": [],
      "stateMutability": "nonpayable",
      "type": "function"
    },
    {
      "inputs": [
        {
          "internalType": "bytes4",
          "name": "interfaceId",
          "type": "bytes4"
        }
      ],
      "name": "supportsInterface",
      "outputs": [
        {
          "internalType": "bool",
          "name": "",
          "type": "bool"
        }
      ],
      "stateMutability": "view",
      "type": "function"
    },
    {
      "inputs": [
        {
          "internalType": "uint256",
          "name": "id",
          "type": "uint256"
        }
      ],
      "name": "totalSupply",
      "outputs": [
        {
          "internalType": "uint256",
          "name": "",
          "type": "uint256"
        }
      ],
      "stateMutability": "view",
      "type": "function"
    },
    {
      "inputs": [
        {
          "internalType": "uint256",
          "name": "_tier",
          "type": "uint256"
        }
      ],
      "name": "uri",
      "outputs": [
        {
          "internalType": "string",
          "name": "",
          "type": "string"
        }
      ],
      "stateMutability": "view",
      "type": "function"
    }
  ],
  "bytecode": "0x60806040523480156200001157600080fd5b5060405162002b4638038062002b46833981016040819052620000349162000276565b6040805160208101909152600081526200004e8162000135565b50815162000064906004906020850190620001b3565b50600680546001600160a01b0319166001600160a01b0383161790556040805161010081018252600160c08201818152600360fc1b60e0840152825282518084018452818152603160f81b6020808301919091528084019190915283518085018552828152601960f91b818301528385015283518085018552828152603360f81b81830152606084015283518085018552828152600d60fa1b8183015260808401528351808501909452908352603560f81b9083015260a08101919091526200012d906200014e565b5050620003fa565b80516200014a906002906020840190620001b3565b5050565b60005b60068110156200014a57818160068110620001705762000170620003ce565b60200201516005600083815260200190815260200160002090805190602001906200019d929190620001b3565b5080620001aa81620003a4565b91505062000151565b828054620001c19062000367565b90600052602060002090601f016020900481019282620001e5576000855562000230565b82601f106200020057805160ff191683800117855562000230565b8280016001018555821562000230579182015b828111156200023057825182559160200191906001019062000213565b506200023e92915062000242565b5090565b5b808211156200023e576000815560010162000243565b80516001600160a01b03811681146200027157600080fd5b919050565b600080604083850312156200028a57600080fd5b82516001600160401b0380821115620002a257600080fd5b818501915085601f830112620002b757600080fd5b815181811115620002cc57620002cc620003e4565b604051601f8201601f19908116603f01168101908382118183101715620002f757620002f7620003e4565b816040528281526020935088848487010111156200031457600080fd5b600091505b8282101562000338578482018401518183018501529083019062000319565b828211156200034a5760008484830101525b95506200035c91505085820162000259565b925050509250929050565b600181811c908216806200037c57607f821691505b602082108114156200039e57634e487b7160e01b600052602260045260246000fd5b50919050565b6000600019821415620003c757634e487b7160e01b600052601160045260246000fd5b5060010190565b634e487b7160e01b600052603260045260246000fd5b634e487b7160e01b600052604160045260246000fd5b61273c806200040a6000396000f3fe608060405234801561001057600080fd5b506004361061011a5760003560e01c80636b20c454116100b2578063d81d0a1511610081578063f242432a11610066578063f242432a146102a2578063f5298aca146102b5578063fa56a8bb146102c857600080fd5b8063d81d0a1514610253578063e985e9c51461026657600080fd5b80636b20c454146101fa578063a22cb4651461020d578063b3637b6c14610220578063bd85b0391461023357600080fd5b8063156e29f6116100ee578063156e29f6146101905780632eb2c2d6146101a55780634e1273f4146101b85780634f558e79146101d857600080fd5b8062fdd58e1461011f57806301ffc9a71461014557806306fdde03146101685780630e89341c1461017d575b600080fd5b61013261012d366004612191565b6102db565b6040519081526020015b60405180910390f35b6101586101533660046122fc565b610384565b604051901515815260200161013c565b610170610395565b60405161013c91906124b9565b61017061018b366004612336565b610423565b6101a361019e3660046121bb565b6104c5565b005b6101a36101b3366004611f39565b6104e5565b6101cb6101c63660046121ee565b610587565b60405161013c9190612478565b6101586101e6366004612336565b600090815260036020526040902054151590565b6101a36102083660046120e1565b6106c5565b6101a361021b366004612155565b61075e565b6101a361022e3660046122bf565b61076d565b610132610241366004612336565b60009081526003602052604090205490565b6101a36102613660046120e1565b6107c9565b610158610274366004611f06565b6001600160a01b03918216600090815260016020908152604080832093909416825291909152205460ff1690565b6101a36102b0366004611fe3565b6107e4565b6101a36102c33660046121bb565b61087f565b6101a36102d6366004612048565b610918565b60006001600160a01b03831661035e5760405162461bcd60e51b815260206004820152602b60248201527f455243313135353a2062616c616e636520717565727920666f7220746865207a60448201527f65726f206164647265737300000000000000000000000000000000000000000060648201526084015b60405180910390fd5b506000908152602081815260408083206001600160a01b03949094168352929052205490565b600061038f82610932565b92915050565b600480546103a290612508565b80601f01602080910402602001604051908101604052809291908181526020018280546103ce90612508565b801561041b5780601f106103f05761010080835404028352916020019161041b565b820191906000526020600020905b8154815290600101906020018083116103fe57829003601f168201915b505050505081565b600081815260056020526040902080546060919061044090612508565b80601f016020809104026020016040519081016040528092919081815260200182805461046c90612508565b80156104b95780601f1061048e576101008083540402835291602001916104b9565b820191906000526020600020905b81548152906001019060200180831161049c57829003601f168201915b50505050509050919050565b6104e083838360405180602001604052806000815250610a15565b505050565b6001600160a01b03851633148061050157506105018533610274565b6105735760405162461bcd60e51b815260206004820152603260248201527f455243313135353a207472616e736665722063616c6c6572206973206e6f742060448201527f6f776e6572206e6f7220617070726f76656400000000000000000000000000006064820152608401610355565b6105808585858585610b54565b5050505050565b606081518351146106005760405162461bcd60e51b815260206004820152602960248201527f455243313135353a206163636f756e747320616e6420696473206c656e67746860448201527f206d69736d6174636800000000000000000000000000000000000000000000006064820152608401610355565b6000835167ffffffffffffffff81111561061c5761061c6125fb565b604051908082528060200260200182016040528015610645578160200160208202803683370190505b50905060005b84518110156106bd57610690858281518110610669576106696125e5565b6020026020010151858381518110610683576106836125e5565b60200260200101516102db565b8282815181106106a2576106a26125e5565b60209081029190910101526106b681612596565b905061064b565b509392505050565b6001600160a01b0383163314806106e157506106e18333610274565b6107535760405162461bcd60e51b815260206004820152602960248201527f455243313135353a2063616c6c6572206973206e6f74206f776e6572206e6f7260448201527f20617070726f76656400000000000000000000000000000000000000000000006064820152608401610355565b6104e0838383610e00565b61076933838361109d565b5050565b60005b60068110156107695781816006811061078b5761078b6125e5565b60200201516005600083815260200190815260200160002090805190602001906107b6929190611cc2565b50806107c181612596565b915050610770565b6104e0838383604051806020016040528060008152506111b0565b6001600160a01b03851633148061080057506108008533610274565b6108725760405162461bcd60e51b815260206004820152602960248201527f455243313135353a2063616c6c6572206973206e6f74206f776e6572206e6f7260448201527f20617070726f76656400000000000000000000000000000000000000000000006064820152608401610355565b61058085858585856113b6565b6001600160a01b03831633148061089b575061089b8333610274565b61090d5760405162461bcd60e51b815260206004820152602960248201527f455243313135353a2063616c6c6572206973206e6f74206f776e6572206e6f7260448201527f20617070726f76656400000000000000000000000000000000000000000000006064820152608401610355565b6104e083838361159a565b6109218361076d565b61092c8483836107c9565b50505050565b60007fffffffff0000000000000000000000000000000000000000000000000000000082167fd9b67a260000000000000000000000000000000000000000000000000000000014806109c557507fffffffff0000000000000000000000000000000000000000000000000000000082167f0e89341c00000000000000000000000000000000000000000000000000000000145b8061038f57507f01ffc9a7000000000000000000000000000000000000000000000000000000007fffffffff0000000000000000000000000000000000000000000000000000000083161461038f565b6001600160a01b038416610a915760405162461bcd60e51b815260206004820152602160248201527f455243313135353a206d696e7420746f20746865207a65726f2061646472657360448201527f73000000000000000000000000000000000000000000000000000000000000006064820152608401610355565b336000610a9d8561175d565b90506000610aaa8561175d565b9050610abb836000898585896117a8565b6000868152602081815260408083206001600160a01b038b16845290915281208054879290610aeb9084906124f0565b909155505060408051878152602081018790526001600160a01b03808a1692600092918716917fc3d58168c5ae7397731d063d5bbf3d657854427343f4c083240f7aacaa2d0f62910160405180910390a4610b4b836000898989896117b6565b50505050505050565b8151835114610bcb5760405162461bcd60e51b815260206004820152602860248201527f455243313135353a2069647320616e6420616d6f756e7473206c656e6774682060448201527f6d69736d617463680000000000000000000000000000000000000000000000006064820152608401610355565b6001600160a01b038416610c475760405162461bcd60e51b815260206004820152602560248201527f455243313135353a207472616e7366657220746f20746865207a65726f20616460448201527f64726573730000000000000000000000000000000000000000000000000000006064820152608401610355565b33610c568187878787876117a8565b60005b8451811015610d92576000858281518110610c7657610c766125e5565b602002602001015190506000858381518110610c9457610c946125e5565b602090810291909101810151600084815280835260408082206001600160a01b038e168352909352919091205490915081811015610d3a5760405162461bcd60e51b815260206004820152602a60248201527f455243313135353a20696e73756666696369656e742062616c616e636520666f60448201527f72207472616e73666572000000000000000000000000000000000000000000006064820152608401610355565b6000838152602081815260408083206001600160a01b038e8116855292528083208585039055908b16825281208054849290610d779084906124f0565b9250508190555050505080610d8b90612596565b9050610c59565b50846001600160a01b0316866001600160a01b0316826001600160a01b03167f4a39dc06d4c0dbc64b70af90fd698a233a518aa5d07e595d983b8c0526c8f7fb8787604051610de292919061248b565b60405180910390a4610df88187878787876119ca565b505050505050565b6001600160a01b038316610e7c5760405162461bcd60e51b815260206004820152602360248201527f455243313135353a206275726e2066726f6d20746865207a65726f206164647260448201527f65737300000000000000000000000000000000000000000000000000000000006064820152608401610355565b8051825114610ef35760405162461bcd60e51b815260206004820152602860248201527f455243313135353a2069647320616e6420616d6f756e7473206c656e6774682060448201527f6d69736d617463680000000000000000000000000000000000000000000000006064820152608401610355565b6000339050610f16818560008686604051806020016040528060008152506117a8565b60005b8351811015611030576000848281518110610f3657610f366125e5565b602002602001015190506000848381518110610f5457610f546125e5565b602090810291909101810151600084815280835260408082206001600160a01b038c168352909352919091205490915081811015610ff95760405162461bcd60e51b8152602060048201526024808201527f455243313135353a206275726e20616d6f756e7420657863656564732062616c60448201527f616e6365000000000000000000000000000000000000000000000000000000006064820152608401610355565b6000928352602083815260408085206001600160a01b038b168652909152909220910390558061102881612596565b915050610f19565b5060006001600160a01b0316846001600160a01b0316826001600160a01b03167f4a39dc06d4c0dbc64b70af90fd698a233a518aa5d07e595d983b8c0526c8f7fb868660405161108192919061248b565b60405180910390a460408051602081019091526000905261092c565b816001600160a01b0316836001600160a01b031614156111255760405162461bcd60e51b815260206004820152602960248201527f455243313135353a2073657474696e6720617070726f76616c2073746174757360448201527f20666f722073656c6600000000000000000000000000000000000000000000006064820152608401610355565b6001600160a01b0383811660008181526001602090815260408083209487168084529482529182902080547fffffffffffffffffffffffffffffffffffffffffffffffffffffffffffffff001686151590811790915591519182527f17307eab39ab6107e8899845ad3d59bd9653f200f220920489ca2b5937696c31910160405180910390a3505050565b6001600160a01b03841661122c5760405162461bcd60e51b815260206004820152602160248201527f455243313135353a206d696e7420746f20746865207a65726f2061646472657360448201527f73000000000000000000000000000000000000000000000000000000000000006064820152608401610355565b81518351146112a35760405162461bcd60e51b815260206004820152602860248201527f455243313135353a2069647320616e6420616d6f756e7473206c656e6774682060448201527f6d69736d617463680000000000000000000000000000000000000000000000006064820152608401610355565b336112b3816000878787876117a8565b60005b845181101561134e578381815181106112d1576112d16125e5565b60200260200101516000808784815181106112ee576112ee6125e5565b602002602001015181526020019081526020016000206000886001600160a01b03166001600160a01b03168152602001908152602001600020600082825461133691906124f0565b9091555081905061134681612596565b9150506112b6565b50846001600160a01b031660006001600160a01b0316826001600160a01b03167f4a39dc06d4c0dbc64b70af90fd698a233a518aa5d07e595d983b8c0526c8f7fb878760405161139f92919061248b565b60405180910390a4610580816000878787876119ca565b6001600160a01b0384166114325760405162461bcd60e51b815260206004820152602560248201527f455243313135353a207472616e7366657220746f20746865207a65726f20616460448201527f64726573730000000000000000000000000000000000000000000000000000006064820152608401610355565b33600061143e8561175d565b9050600061144b8561175d565b905061145b8389898585896117a8565b6000868152602081815260408083206001600160a01b038c168452909152902054858110156114f25760405162461bcd60e51b815260206004820152602a60248201527f455243313135353a20696e73756666696369656e742062616c616e636520666f60448201527f72207472616e73666572000000000000000000000000000000000000000000006064820152608401610355565b6000878152602081815260408083206001600160a01b038d8116855292528083208985039055908a1682528120805488929061152f9084906124f0565b909155505060408051888152602081018890526001600160a01b03808b16928c821692918816917fc3d58168c5ae7397731d063d5bbf3d657854427343f4c083240f7aacaa2d0f62910160405180910390a461158f848a8a8a8a8a6117b6565b505050505050505050565b6001600160a01b0383166116165760405162461bcd60e51b815260206004820152602360248201527f455243313135353a206275726e2066726f6d20746865207a65726f206164647260448201527f65737300000000000000000000000000000000000000000000000000000000006064820152608401610355565b3360006116228461175d565b9050600061162f8461175d565b905061164f838760008585604051806020016040528060008152506117a8565b6000858152602081815260408083206001600160a01b038a168452909152902054848110156116e55760405162461bcd60e51b8152602060048201526024808201527f455243313135353a206275726e20616d6f756e7420657863656564732062616c60448201527f616e6365000000000000000000000000000000000000000000000000000000006064820152608401610355565b6000868152602081815260408083206001600160a01b038b81168086529184528285208a8703905582518b81529384018a90529092908816917fc3d58168c5ae7397731d063d5bbf3d657854427343f4c083240f7aacaa2d0f62910160405180910390a4604080516020810190915260009052610b4b565b60408051600180825281830190925260609160009190602080830190803683370190505090508281600081518110611797576117976125e5565b602090810291909101015292915050565b610df8868686868686611b34565b6001600160a01b0384163b15610df8576040517ff23a6e610000000000000000000000000000000000000000000000000000000081526001600160a01b0385169063f23a6e61906118139089908990889088908890600401612435565b602060405180830381600087803b15801561182d57600080fd5b505af192505050801561185d575060408051601f3d908101601f1916820190925261185a91810190612319565b60015b61191357611869612611565b806308c379a014156118a3575061187e61262d565b8061188957506118a5565b8060405162461bcd60e51b815260040161035591906124b9565b505b60405162461bcd60e51b815260206004820152603460248201527f455243313135353a207472616e7366657220746f206e6f6e204552433131353560448201527f526563656976657220696d706c656d656e7465720000000000000000000000006064820152608401610355565b7fffffffff0000000000000000000000000000000000000000000000000000000081167ff23a6e610000000000000000000000000000000000000000000000000000000014610b4b5760405162461bcd60e51b815260206004820152602860248201527f455243313135353a204552433131353552656365697665722072656a6563746560448201527f6420746f6b656e730000000000000000000000000000000000000000000000006064820152608401610355565b6001600160a01b0384163b15610df8576040517fbc197c810000000000000000000000000000000000000000000000000000000081526001600160a01b0385169063bc197c8190611a2790899089908890889088906004016123d7565b602060405180830381600087803b158015611a4157600080fd5b505af1925050508015611a71575060408051601f3d908101601f19168201909252611a6e91810190612319565b60015b611a7d57611869612611565b7fffffffff0000000000000000000000000000000000000000000000000000000081167fbc197c810000000000000000000000000000000000000000000000000000000014610b4b5760405162461bcd60e51b815260206004820152602860248201527f455243313135353a204552433131353552656365697665722072656a6563746560448201527f6420746f6b656e730000000000000000000000000000000000000000000000006064820152608401610355565b6001600160a01b038516611bbb5760005b8351811015611bb957828181518110611b6057611b606125e5565b602002602001015160036000868481518110611b7e57611b7e6125e5565b602002602001015181526020019081526020016000206000828254611ba391906124f0565b90915550611bb2905081612596565b9050611b45565b505b6001600160a01b038416610df85760005b8351811015610b4b576000848281518110611be957611be96125e5565b602002602001015190506000848381518110611c0757611c076125e5565b6020026020010151905060006003600084815260200190815260200160002054905081811015611c9f5760405162461bcd60e51b815260206004820152602860248201527f455243313135353a206275726e20616d6f756e74206578636565647320746f7460448201527f616c537570706c790000000000000000000000000000000000000000000000006064820152608401610355565b60009283526003602052604090922091039055611cbb81612596565b9050611bcc565b828054611cce90612508565b90600052602060002090601f016020900481019282611cf05760008555611d36565b82601f10611d0957805160ff1916838001178555611d36565b82800160010185558215611d36579182015b82811115611d36578251825591602001919060010190611d1b565b50611d42929150611d46565b5090565b5b80821115611d425760008155600101611d47565b600067ffffffffffffffff831115611d7557611d756125fb565b604051611d8c6020601f19601f8701160182612569565b809150838152848484011115611da157600080fd5b83836020830137600060208583010152509392505050565b80356001600160a01b0381168114611dd057600080fd5b919050565b6000601f8381840112611de757600080fd5b604051611df381612543565b80848660c087011115611e0557600080fd5b60005b6006811015611e5c57813567ffffffffffffffff811115611e2857600080fd5b87018581018913611e3857600080fd5b6020611e488a8335838501611d5b565b855293840193929092019150600101611e08565b50919695505050505050565b600082601f830112611e7957600080fd5b81356020611e86826124cc565b604051611e938282612569565b8381528281019150858301600585901b87018401881015611eb357600080fd5b60005b85811015611ed257813584529284019290840190600101611eb6565b5090979650505050505050565b600082601f830112611ef057600080fd5b611eff83833560208501611d5b565b9392505050565b60008060408385031215611f1957600080fd5b611f2283611db9565b9150611f3060208401611db9565b90509250929050565b600080600080600060a08688031215611f5157600080fd5b611f5a86611db9565b9450611f6860208701611db9565b9350604086013567ffffffffffffffff80821115611f8557600080fd5b611f9189838a01611e68565b94506060880135915080821115611fa757600080fd5b611fb389838a01611e68565b93506080880135915080821115611fc957600080fd5b50611fd688828901611edf565b9150509295509295909350565b600080600080600060a08688031215611ffb57600080fd5b61200486611db9565b945061201260208701611db9565b93506040860135925060608601359150608086013567ffffffffffffffff81111561203c57600080fd5b611fd688828901611edf565b6000806000806080858703121561205e57600080fd5b61206785611db9565b9350602085013567ffffffffffffffff8082111561208457600080fd5b61209088838901611dd5565b945060408701359150808211156120a657600080fd5b6120b288838901611e68565b935060608701359150808211156120c857600080fd5b506120d587828801611e68565b91505092959194509250565b6000806000606084860312156120f657600080fd5b6120ff84611db9565b9250602084013567ffffffffffffffff8082111561211c57600080fd5b61212887838801611e68565b9350604086013591508082111561213e57600080fd5b5061214b86828701611e68565b9150509250925092565b6000806040838503121561216857600080fd5b61217183611db9565b91506020830135801515811461218657600080fd5b809150509250929050565b600080604083850312156121a457600080fd5b6121ad83611db9565b946020939093013593505050565b6000806000606084860312156121d057600080fd5b6121d984611db9565b95602085013595506040909401359392505050565b6000806040838503121561220157600080fd5b823567ffffffffffffffff8082111561221957600080fd5b818501915085601f83011261222d57600080fd5b8135602061223a826124cc565b6040516122478282612569565b8381528281019150858301600585901b870184018b101561226757600080fd5b600096505b848710156122915761227d81611db9565b83526001969096019591830191830161226c565b50965050860135925050808211156122a857600080fd5b506122b585828601611e68565b9150509250929050565b6000602082840312156122d157600080fd5b813567ffffffffffffffff8111156122e857600080fd5b6122f484828501611dd5565b949350505050565b60006020828403121561230e57600080fd5b8135611eff816126d5565b60006020828403121561232b57600080fd5b8151611eff816126d5565b60006020828403121561234857600080fd5b5035919050565b600081518084526020808501945080840160005b8381101561237f57815187529582019590820190600101612363565b509495945050505050565b6000815180845260005b818110156123b057602081850181015186830182015201612394565b818111156123c2576000602083870101525b50601f01601f19169290920160200192915050565b60006001600160a01b03808816835280871660208401525060a0604083015261240360a083018661234f565b8281036060840152612415818661234f565b90508281036080840152612429818561238a565b98975050505050505050565b60006001600160a01b03808816835280871660208401525084604083015283606083015260a0608083015261246d60a083018461238a565b979650505050505050565b602081526000611eff602083018461234f565b60408152600061249e604083018561234f565b82810360208401526124b0818561234f565b95945050505050565b602081526000611eff602083018461238a565b600067ffffffffffffffff8211156124e6576124e66125fb565b5060051b60200190565b60008219821115612503576125036125cf565b500190565b600181811c9082168061251c57607f821691505b6020821081141561253d57634e487b7160e01b600052602260045260246000fd5b50919050565b60c0810181811067ffffffffffffffff82111715612563576125636125fb565b60405250565b601f19601f830116810181811067ffffffffffffffff8211171561258f5761258f6125fb565b6040525050565b60007fffffffffffffffffffffffffffffffffffffffffffffffffffffffffffffffff8214156125c8576125c86125cf565b5060010190565b634e487b7160e01b600052601160045260246000fd5b634e487b7160e01b600052603260045260246000fd5b634e487b7160e01b600052604160045260246000fd5b600060033d111561262a5760046000803e5060005160e01c5b90565b600060443d101561263b5790565b6040517ffffffffffffffffffffffffffffffffffffffffffffffffffffffffffffffffc803d016004833e81513d67ffffffffffffffff816024840111818411171561268957505050505090565b82850191508151818111156126a15750505050505090565b843d87010160208285010111156126bb5750505050505090565b6126ca60208286010187612569565b509095945050505050565b7fffffffff000000000000000000000000000000000000000000000000000000008116811461270357600080fd5b5056fea26469706673582212208ab9eb7e498012cba06e02770155339c893e02dbbc4098700cfbe455c9febd4864736f6c63430008070033",
  "linkReferences": {},
  "deployedLinkReferences": {}
}