{
  "_format": "hh-sol-artifact-1",
  "contractName": "LeafContract",
  "sourceName": "contracts/LeafContract.sol",
  "abi": [
    {
      "inputs": [
        {
          "internalType": "string",
          "name": "_tokenName",
          "type": "string"
        },
        {
          "internalType": "address",
          "name": "_marketplaceAddress",
          "type": "address"
        }
      ],
      "stateMutability": "nonpayable",
      "type": "constructor"
    },
    {
      "anonymous": false,
      "inputs": [
        {
          "indexed": true,
          "internalType": "address",
          "name": "account",
          "type": "address"
        },
        {
          "indexed": true,
          "internalType": "address",
          "name": "operator",
          "type": "address"
        },
        {
          "indexed": false,
          "internalType": "bool",
          "name": "approved",
          "type": "bool"
        }
      ],
      "name": "ApprovalForAll",
      "type": "event"
    },
    {
      "anonymous": false,
      "inputs": [
        {
          "indexed": true,
          "internalType": "address",
          "name": "operator",
          "type": "address"
        },
        {
          "indexed": true,
          "internalType": "address",
          "name": "from",
          "type": "address"
        },
        {
          "indexed": true,
          "internalType": "address",
          "name": "to",
          "type": "address"
        },
        {
          "indexed": false,
          "internalType": "uint256[]",
          "name": "ids",
          "type": "uint256[]"
        },
        {
          "indexed": false,
          "internalType": "uint256[]",
          "name": "values",
          "type": "uint256[]"
        }
      ],
      "name": "TransferBatch",
      "type": "event"
    },
    {
      "anonymous": false,
      "inputs": [
        {
          "indexed": true,
          "internalType": "address",
          "name": "operator",
          "type": "address"
        },
        {
          "indexed": true,
          "internalType": "address",
          "name": "from",
          "type": "address"
        },
        {
          "indexed": true,
          "internalType": "address",
          "name": "to",
          "type": "address"
        },
        {
          "indexed": false,
          "internalType": "uint256",
          "name": "id",
          "type": "uint256"
        },
        {
          "indexed": false,
          "internalType": "uint256",
          "name": "value",
          "type": "uint256"
        }
      ],
      "name": "TransferSingle",
      "type": "event"
    },
    {
      "anonymous": false,
      "inputs": [
        {
          "indexed": false,
          "internalType": "string",
          "name": "value",
          "type": "string"
        },
        {
          "indexed": true,
          "internalType": "uint256",
          "name": "id",
          "type": "uint256"
        }
      ],
      "name": "URI",
      "type": "event"
    },
    {
      "inputs": [],
      "name": "REQUIRED_USD",
      "outputs": [
        {
          "internalType": "int256",
          "name": "",
          "type": "int256"
        }
      ],
      "stateMutability": "view",
      "type": "function"
    },
    {
      "inputs": [
        {
          "internalType": "address",
          "name": "account",
          "type": "address"
        },
        {
          "internalType": "uint256",
          "name": "id",
          "type": "uint256"
        }
      ],
      "name": "balanceOf",
      "outputs": [
        {
          "internalType": "uint256",
          "name": "",
          "type": "uint256"
        }
      ],
      "stateMutability": "view",
      "type": "function"
    },
    {
      "inputs": [
        {
          "internalType": "address[]",
          "name": "accounts",
          "type": "address[]"
        },
        {
          "internalType": "uint256[]",
          "name": "ids",
          "type": "uint256[]"
        }
      ],
      "name": "balanceOfBatch",
      "outputs": [
        {
          "internalType": "uint256[]",
          "name": "",
          "type": "uint256[]"
        }
      ],
      "stateMutability": "view",
      "type": "function"
    },
    {
      "inputs": [
        {
          "internalType": "address",
          "name": "account",
          "type": "address"
        },
        {
          "internalType": "uint256",
          "name": "id",
          "type": "uint256"
        },
        {
          "internalType": "uint256",
          "name": "value",
          "type": "uint256"
        }
      ],
      "name": "burn",
      "outputs": [],
      "stateMutability": "nonpayable",
      "type": "function"
    },
    {
      "inputs": [
        {
          "internalType": "address",
          "name": "account",
          "type": "address"
        },
        {
          "internalType": "uint256[]",
          "name": "ids",
          "type": "uint256[]"
        },
        {
          "internalType": "uint256[]",
          "name": "values",
          "type": "uint256[]"
        }
      ],
      "name": "burnBatch",
      "outputs": [],
      "stateMutability": "nonpayable",
      "type": "function"
    },
    {
      "inputs": [
        {
          "internalType": "uint256",
          "name": "id",
          "type": "uint256"
        }
      ],
      "name": "exists",
      "outputs": [
        {
          "internalType": "bool",
          "name": "",
          "type": "bool"
        }
      ],
      "stateMutability": "view",
      "type": "function"
    },
    {
      "inputs": [],
      "name": "getLatestPrice",
      "outputs": [
        {
          "internalType": "int256",
          "name": "",
          "type": "int256"
        }
      ],
      "stateMutability": "view",
      "type": "function"
    },
    {
      "inputs": [
        {
          "internalType": "address",
          "name": "account",
          "type": "address"
        },
        {
          "internalType": "address",
          "name": "operator",
          "type": "address"
        }
      ],
      "name": "isApprovedForAll",
      "outputs": [
        {
          "internalType": "bool",
          "name": "",
          "type": "bool"
        }
      ],
      "stateMutability": "view",
      "type": "function"
    },
    {
      "inputs": [
        {
          "internalType": "address",
          "name": "_to",
          "type": "address"
        },
        {
          "internalType": "bool[6]",
          "name": "tiers",
          "type": "bool[6]"
        },
        {
          "internalType": "uint256[6]",
          "name": "amount",
          "type": "uint256[6]"
        }
      ],
      "name": "mintAll",
      "outputs": [],
      "stateMutability": "nonpayable",
      "type": "function"
    },
    {
      "inputs": [
        {
          "internalType": "address",
          "name": "to",
          "type": "address"
        },
        {
          "internalType": "uint256[]",
          "name": "ids",
          "type": "uint256[]"
        },
        {
          "internalType": "uint256[]",
          "name": "amounts",
          "type": "uint256[]"
        }
      ],
      "name": "mintBatch",
      "outputs": [],
      "stateMutability": "nonpayable",
      "type": "function"
    },
    {
      "inputs": [],
      "name": "name",
      "outputs": [
        {
          "internalType": "string",
          "name": "",
          "type": "string"
        }
      ],
      "stateMutability": "view",
      "type": "function"
    },
    {
      "inputs": [
        {
          "internalType": "address",
          "name": "_to",
          "type": "address"
        },
        {
          "internalType": "uint256",
          "name": "_tier",
          "type": "uint256"
        },
        {
          "internalType": "uint256",
          "name": "amount",
          "type": "uint256"
        }
      ],
      "name": "normalMint",
      "outputs": [],
      "stateMutability": "nonpayable",
      "type": "function"
    },
    {
      "inputs": [
        {
          "internalType": "address",
          "name": "from",
          "type": "address"
        },
        {
          "internalType": "address",
          "name": "to",
          "type": "address"
        },
        {
          "internalType": "uint256[]",
          "name": "ids",
          "type": "uint256[]"
        },
        {
          "internalType": "uint256[]",
          "name": "amounts",
          "type": "uint256[]"
        },
        {
          "internalType": "bytes",
          "name": "data",
          "type": "bytes"
        }
      ],
      "name": "safeBatchTransferFrom",
      "outputs": [],
      "stateMutability": "nonpayable",
      "type": "function"
    },
    {
      "inputs": [
        {
          "internalType": "address",
          "name": "from",
          "type": "address"
        },
        {
          "internalType": "address",
          "name": "to",
          "type": "address"
        },
        {
          "internalType": "uint256",
          "name": "id",
          "type": "uint256"
        },
        {
          "internalType": "uint256",
          "name": "amount",
          "type": "uint256"
        },
        {
          "internalType": "bytes",
          "name": "data",
          "type": "bytes"
        }
      ],
      "name": "safeTransferFrom",
      "outputs": [],
      "stateMutability": "nonpayable",
      "type": "function"
    },
    {
      "inputs": [
        {
          "internalType": "address",
          "name": "_to",
          "type": "address"
        },
        {
          "internalType": "string[6]",
          "name": "_newUris",
          "type": "string[6]"
        },
        {
          "internalType": "bool[6]",
          "name": "tiers",
          "type": "bool[6]"
        },
        {
          "internalType": "uint256[6]",
          "name": "amount",
          "type": "uint256[6]"
        }
      ],
      "name": "setAndMint",
      "outputs": [],
      "stateMutability": "nonpayable",
      "type": "function"
    },
    {
      "inputs": [
        {
          "internalType": "address",
          "name": "operator",
          "type": "address"
        },
        {
          "internalType": "bool",
          "name": "approved",
          "type": "bool"
        }
      ],
      "name": "setApprovalForAll",
      "outputs": [],
      "stateMutability": "nonpayable",
      "type": "function"
    },
    {
      "inputs": [
        {
          "internalType": "string[6]",
          "name": "newuri",
          "type": "string[6]"
        }
      ],
      "name": "setURI",
      "outputs": [],
      "stateMutability": "nonpayable",
      "type": "function"
    },
    {
      "inputs": [
        {
          "internalType": "bytes4",
          "name": "interfaceId",
          "type": "bytes4"
        }
      ],
      "name": "supportsInterface",
      "outputs": [
        {
          "internalType": "bool",
          "name": "",
          "type": "bool"
        }
      ],
      "stateMutability": "view",
      "type": "function"
    },
    {
      "inputs": [
        {
          "internalType": "uint256",
          "name": "id",
          "type": "uint256"
        }
      ],
      "name": "totalSupply",
      "outputs": [
        {
          "internalType": "uint256",
          "name": "",
          "type": "uint256"
        }
      ],
      "stateMutability": "view",
      "type": "function"
    },
    {
      "inputs": [
        {
          "internalType": "uint256",
          "name": "_tier",
          "type": "uint256"
        }
      ],
      "name": "uri",
      "outputs": [
        {
          "internalType": "string",
          "name": "",
          "type": "string"
        }
      ],
      "stateMutability": "view",
      "type": "function"
    }
  ],
  "bytecode": "0x60806040523480156200001157600080fd5b5060405162002f1c38038062002f1c833981016040819052620000349162000298565b6040805160208101909152600081526200004e8162000157565b50815162000064906004906020850190620001d5565b5060058054738a753747a1fa494ec906ce90e9f37563a8af630e6001600160a01b031991821617909155600780549091166001600160a01b0383161790556040805161010081018252600160c08201818152600360fc1b60e0840152825282518084018452818152603160f81b6020808301919091528084019190915283518085018552828152601960f91b818301528385015283518085018552828152603360f81b81830152606084015283518085018552828152600d60fa1b8183015260808401528351808501909452908352603560f81b9083015260a08101919091526200014f9062000170565b50506200041c565b80516200016c906002906020840190620001d5565b5050565b60005b60068110156200016c57818160068110620001925762000192620003f0565b6020020151600660008381526020019081526020016000209080519060200190620001bf929190620001d5565b5080620001cc81620003c6565b91505062000173565b828054620001e39062000389565b90600052602060002090601f01602090048101928262000207576000855562000252565b82601f106200022257805160ff191683800117855562000252565b8280016001018555821562000252579182015b828111156200025257825182559160200191906001019062000235565b506200026092915062000264565b5090565b5b8082111562000260576000815560010162000265565b80516001600160a01b03811681146200029357600080fd5b919050565b60008060408385031215620002ac57600080fd5b82516001600160401b0380821115620002c457600080fd5b818501915085601f830112620002d957600080fd5b815181811115620002ee57620002ee62000406565b604051601f8201601f19908116603f0116810190838211818310171562000319576200031962000406565b816040528281526020935088848487010111156200033657600080fd5b600091505b828210156200035a57848201840151818301850152908301906200033b565b828211156200036c5760008484830101525b95506200037e9150508582016200027b565b925050509250929050565b600181811c908216806200039e57607f821691505b60208210811415620003c057634e487b7160e01b600052602260045260246000fd5b50919050565b6000600019821415620003e957634e487b7160e01b600052601160045260246000fd5b5060010190565b634e487b7160e01b600052603260045260246000fd5b634e487b7160e01b600052604160045260246000fd5b612af0806200042c6000396000f3fe608060405234801561001057600080fd5b506004361061016a5760003560e01c80636b20c454116100cd578063bd85b03911610081578063e985e9c511610066578063e985e9c5146102f4578063f242432a14610330578063f5298aca1461034357600080fd5b8063bd85b039146102c1578063d81d0a15146102e157600080fd5b8063a22cb465116100b2578063a22cb46514610288578063a79695fe1461029b578063b3637b6c146102ae57600080fd5b80636b20c4541461026d5780638e15f4731461028057600080fd5b80630e89341c116101245780634bf749ac116101095780634bf749ac1461021b5780634e1273f41461022b5780634f558e791461024b57600080fd5b80630e89341c146101f55780632eb2c2d61461020857600080fd5b806301ffc9a71161015557806301ffc9a7146101aa57806302ce5c54146101cd57806306fdde03146101e057600080fd5b806298a44e1461016f578062fdd58e14610184575b600080fd5b61018261017d366004612463565b610356565b005b610197610192366004612439565b61038d565b6040519081526020015b60405180910390f35b6101bd6101b83660046125a4565b610436565b60405190151581526020016101a1565b6101826101db366004612328565b610447565b6101e8610461565b6040516101a191906127b1565b6101e86102033660046125de565b6104ef565b6101826102163660046121d3565b610591565b6101976801158e460913d0000081565b61023e610239366004612496565b610633565b6040516101a19190612770565b6101bd6102593660046125de565b600090815260036020526040902054151590565b61018261027b36600461239b565b610771565b61019761080a565b61018261029636600461240f565b6108b0565b6101826102a93660046122e2565b6108bf565b6101826102bc366004612567565b610942565b6101976102cf3660046125de565b60009081526003602052604090205490565b6101826102ef36600461239b565b61099e565b6101bd6103023660046121a0565b6001600160a01b03918216600090815260016020908152604080832093909416825291909152205460ff1690565b61018261033e36600461227d565b6109b9565b610182610351366004612463565b610a54565b61037183838360405180602001604052806000815250610aed565b600754610388906001600160a01b031660016108b0565b505050565b60006001600160a01b0383166104105760405162461bcd60e51b815260206004820152602b60248201527f455243313135353a2062616c616e636520717565727920666f7220746865207a60448201527f65726f206164647265737300000000000000000000000000000000000000000060648201526084015b60405180910390fd5b506000908152602081815260408083206001600160a01b03949094168352929052205490565b600061044182610c2c565b92915050565b61045083610942565b61045b8483836108bf565b50505050565b6004805461046e906128bc565b80601f016020809104026020016040519081016040528092919081815260200182805461049a906128bc565b80156104e75780601f106104bc576101008083540402835291602001916104e7565b820191906000526020600020905b8154815290600101906020018083116104ca57829003601f168201915b505050505081565b600081815260066020526040902080546060919061050c906128bc565b80601f0160208091040260200160405190810160405280929190818152602001828054610538906128bc565b80156105855780601f1061055a57610100808354040283529160200191610585565b820191906000526020600020905b81548152906001019060200180831161056857829003601f168201915b50505050509050919050565b6001600160a01b0385163314806105ad57506105ad8533610302565b61061f5760405162461bcd60e51b815260206004820152603260248201527f455243313135353a207472616e736665722063616c6c6572206973206e6f742060448201527f6f776e6572206e6f7220617070726f76656400000000000000000000000000006064820152608401610407565b61062c8585858585610d0f565b5050505050565b606081518351146106ac5760405162461bcd60e51b815260206004820152602960248201527f455243313135353a206163636f756e747320616e6420696473206c656e67746860448201527f206d69736d6174636800000000000000000000000000000000000000000000006064820152608401610407565b6000835167ffffffffffffffff8111156106c8576106c86129af565b6040519080825280602002602001820160405280156106f1578160200160208202803683370190505b50905060005b84518110156107695761073c85828151811061071557610715612999565b602002602001015185838151811061072f5761072f612999565b602002602001015161038d565b82828151811061074e5761074e612999565b60209081029190910101526107628161294a565b90506106f7565b509392505050565b6001600160a01b03831633148061078d575061078d8333610302565b6107ff5760405162461bcd60e51b815260206004820152602960248201527f455243313135353a2063616c6c6572206973206e6f74206f776e6572206e6f7260448201527f20617070726f76656400000000000000000000000000000000000000000000006064820152608401610407565b610388838383610fbb565b600080600560009054906101000a90046001600160a01b03166001600160a01b031663feaf968c6040518163ffffffff1660e01b815260040160a06040518083038186803b15801561085b57600080fd5b505afa15801561086f573d6000803e3d6000fd5b505050506040513d601f19601f8201168201806040525081019061089391906125f7565b505050915050806402540be4006108aa9190612800565b91505090565b6108bb328383611258565b5050565b60005b600681101561092a578281600681106108dd576108dd612999565b6020020151156109185761091884828484600681106108fe576108fe612999565b602002015160405180602001604052806000815250610aed565b806109228161294a565b9150506108c2565b50600754610388906001600160a01b031660016108b0565b60005b60068110156108bb5781816006811061096057610960612999565b602002015160066000838152602001908152602001600020908051906020019061098b929190611e7d565b50806109968161294a565b915050610945565b6103888383836040518060200160405280600081525061136b565b6001600160a01b0385163314806109d557506109d58533610302565b610a475760405162461bcd60e51b815260206004820152602960248201527f455243313135353a2063616c6c6572206973206e6f74206f776e6572206e6f7260448201527f20617070726f76656400000000000000000000000000000000000000000000006064820152608401610407565b61062c8585858585611571565b6001600160a01b038316331480610a705750610a708333610302565b610ae25760405162461bcd60e51b815260206004820152602960248201527f455243313135353a2063616c6c6572206973206e6f74206f776e6572206e6f7260448201527f20617070726f76656400000000000000000000000000000000000000000000006064820152608401610407565b610388838383611755565b6001600160a01b038416610b695760405162461bcd60e51b815260206004820152602160248201527f455243313135353a206d696e7420746f20746865207a65726f2061646472657360448201527f73000000000000000000000000000000000000000000000000000000000000006064820152608401610407565b336000610b7585611918565b90506000610b8285611918565b9050610b9383600089858589611963565b6000868152602081815260408083206001600160a01b038b16845290915281208054879290610bc39084906127e8565b909155505060408051878152602081018790526001600160a01b03808a1692600092918716917fc3d58168c5ae7397731d063d5bbf3d657854427343f4c083240f7aacaa2d0f62910160405180910390a4610c2383600089898989611971565b50505050505050565b60007fffffffff0000000000000000000000000000000000000000000000000000000082167fd9b67a26000000000000000000000000000000000000000000000000000000001480610cbf57507fffffffff0000000000000000000000000000000000000000000000000000000082167f0e89341c00000000000000000000000000000000000000000000000000000000145b8061044157507f01ffc9a7000000000000000000000000000000000000000000000000000000007fffffffff00000000000000000000000000000000000000000000000000000000831614610441565b8151835114610d865760405162461bcd60e51b815260206004820152602860248201527f455243313135353a2069647320616e6420616d6f756e7473206c656e6774682060448201527f6d69736d617463680000000000000000000000000000000000000000000000006064820152608401610407565b6001600160a01b038416610e025760405162461bcd60e51b815260206004820152602560248201527f455243313135353a207472616e7366657220746f20746865207a65726f20616460448201527f64726573730000000000000000000000000000000000000000000000000000006064820152608401610407565b33610e11818787878787611963565b60005b8451811015610f4d576000858281518110610e3157610e31612999565b602002602001015190506000858381518110610e4f57610e4f612999565b602090810291909101810151600084815280835260408082206001600160a01b038e168352909352919091205490915081811015610ef55760405162461bcd60e51b815260206004820152602a60248201527f455243313135353a20696e73756666696369656e742062616c616e636520666f60448201527f72207472616e73666572000000000000000000000000000000000000000000006064820152608401610407565b6000838152602081815260408083206001600160a01b038e8116855292528083208585039055908b16825281208054849290610f329084906127e8565b9250508190555050505080610f469061294a565b9050610e14565b50846001600160a01b0316866001600160a01b0316826001600160a01b03167f4a39dc06d4c0dbc64b70af90fd698a233a518aa5d07e595d983b8c0526c8f7fb8787604051610f9d929190612783565b60405180910390a4610fb3818787878787611b85565b505050505050565b6001600160a01b0383166110375760405162461bcd60e51b815260206004820152602360248201527f455243313135353a206275726e2066726f6d20746865207a65726f206164647260448201527f65737300000000000000000000000000000000000000000000000000000000006064820152608401610407565b80518251146110ae5760405162461bcd60e51b815260206004820152602860248201527f455243313135353a2069647320616e6420616d6f756e7473206c656e6774682060448201527f6d69736d617463680000000000000000000000000000000000000000000000006064820152608401610407565b60003390506110d181856000868660405180602001604052806000815250611963565b60005b83518110156111eb5760008482815181106110f1576110f1612999565b60200260200101519050600084838151811061110f5761110f612999565b602090810291909101810151600084815280835260408082206001600160a01b038c1683529093529190912054909150818110156111b45760405162461bcd60e51b8152602060048201526024808201527f455243313135353a206275726e20616d6f756e7420657863656564732062616c60448201527f616e6365000000000000000000000000000000000000000000000000000000006064820152608401610407565b6000928352602083815260408085206001600160a01b038b16865290915290922091039055806111e38161294a565b9150506110d4565b5060006001600160a01b0316846001600160a01b0316826001600160a01b03167f4a39dc06d4c0dbc64b70af90fd698a233a518aa5d07e595d983b8c0526c8f7fb868660405161123c929190612783565b60405180910390a460408051602081019091526000905261045b565b816001600160a01b0316836001600160a01b031614156112e05760405162461bcd60e51b815260206004820152602960248201527f455243313135353a2073657474696e6720617070726f76616c2073746174757360448201527f20666f722073656c6600000000000000000000000000000000000000000000006064820152608401610407565b6001600160a01b0383811660008181526001602090815260408083209487168084529482529182902080547fffffffffffffffffffffffffffffffffffffffffffffffffffffffffffffff001686151590811790915591519182527f17307eab39ab6107e8899845ad3d59bd9653f200f220920489ca2b5937696c31910160405180910390a3505050565b6001600160a01b0384166113e75760405162461bcd60e51b815260206004820152602160248201527f455243313135353a206d696e7420746f20746865207a65726f2061646472657360448201527f73000000000000000000000000000000000000000000000000000000000000006064820152608401610407565b815183511461145e5760405162461bcd60e51b815260206004820152602860248201527f455243313135353a2069647320616e6420616d6f756e7473206c656e6774682060448201527f6d69736d617463680000000000000000000000000000000000000000000000006064820152608401610407565b3361146e81600087878787611963565b60005b84518110156115095783818151811061148c5761148c612999565b60200260200101516000808784815181106114a9576114a9612999565b602002602001015181526020019081526020016000206000886001600160a01b03166001600160a01b0316815260200190815260200160002060008282546114f191906127e8565b909155508190506115018161294a565b915050611471565b50846001600160a01b031660006001600160a01b0316826001600160a01b03167f4a39dc06d4c0dbc64b70af90fd698a233a518aa5d07e595d983b8c0526c8f7fb878760405161155a929190612783565b60405180910390a461062c81600087878787611b85565b6001600160a01b0384166115ed5760405162461bcd60e51b815260206004820152602560248201527f455243313135353a207472616e7366657220746f20746865207a65726f20616460448201527f64726573730000000000000000000000000000000000000000000000000000006064820152608401610407565b3360006115f985611918565b9050600061160685611918565b9050611616838989858589611963565b6000868152602081815260408083206001600160a01b038c168452909152902054858110156116ad5760405162461bcd60e51b815260206004820152602a60248201527f455243313135353a20696e73756666696369656e742062616c616e636520666f60448201527f72207472616e73666572000000000000000000000000000000000000000000006064820152608401610407565b6000878152602081815260408083206001600160a01b038d8116855292528083208985039055908a168252812080548892906116ea9084906127e8565b909155505060408051888152602081018890526001600160a01b03808b16928c821692918816917fc3d58168c5ae7397731d063d5bbf3d657854427343f4c083240f7aacaa2d0f62910160405180910390a461174a848a8a8a8a8a611971565b505050505050505050565b6001600160a01b0383166117d15760405162461bcd60e51b815260206004820152602360248201527f455243313135353a206275726e2066726f6d20746865207a65726f206164647260448201527f65737300000000000000000000000000000000000000000000000000000000006064820152608401610407565b3360006117dd84611918565b905060006117ea84611918565b905061180a83876000858560405180602001604052806000815250611963565b6000858152602081815260408083206001600160a01b038a168452909152902054848110156118a05760405162461bcd60e51b8152602060048201526024808201527f455243313135353a206275726e20616d6f756e7420657863656564732062616c60448201527f616e6365000000000000000000000000000000000000000000000000000000006064820152608401610407565b6000868152602081815260408083206001600160a01b038b81168086529184528285208a8703905582518b81529384018a90529092908816917fc3d58168c5ae7397731d063d5bbf3d657854427343f4c083240f7aacaa2d0f62910160405180910390a4604080516020810190915260009052610c23565b6040805160018082528183019092526060916000919060208083019080368337019050509050828160008151811061195257611952612999565b602090810291909101015292915050565b610fb3868686868686611cef565b6001600160a01b0384163b15610fb3576040517ff23a6e610000000000000000000000000000000000000000000000000000000081526001600160a01b0385169063f23a6e61906119ce908990899088908890889060040161272d565b602060405180830381600087803b1580156119e857600080fd5b505af1925050508015611a18575060408051601f3d908101601f19168201909252611a15918101906125c1565b60015b611ace57611a246129c5565b806308c379a01415611a5e5750611a396129e1565b80611a445750611a60565b8060405162461bcd60e51b815260040161040791906127b1565b505b60405162461bcd60e51b815260206004820152603460248201527f455243313135353a207472616e7366657220746f206e6f6e204552433131353560448201527f526563656976657220696d706c656d656e7465720000000000000000000000006064820152608401610407565b7fffffffff0000000000000000000000000000000000000000000000000000000081167ff23a6e610000000000000000000000000000000000000000000000000000000014610c235760405162461bcd60e51b815260206004820152602860248201527f455243313135353a204552433131353552656365697665722072656a6563746560448201527f6420746f6b656e730000000000000000000000000000000000000000000000006064820152608401610407565b6001600160a01b0384163b15610fb3576040517fbc197c810000000000000000000000000000000000000000000000000000000081526001600160a01b0385169063bc197c8190611be290899089908890889088906004016126cf565b602060405180830381600087803b158015611bfc57600080fd5b505af1925050508015611c2c575060408051601f3d908101601f19168201909252611c29918101906125c1565b60015b611c3857611a246129c5565b7fffffffff0000000000000000000000000000000000000000000000000000000081167fbc197c810000000000000000000000000000000000000000000000000000000014610c235760405162461bcd60e51b815260206004820152602860248201527f455243313135353a204552433131353552656365697665722072656a6563746560448201527f6420746f6b656e730000000000000000000000000000000000000000000000006064820152608401610407565b6001600160a01b038516611d765760005b8351811015611d7457828181518110611d1b57611d1b612999565b602002602001015160036000868481518110611d3957611d39612999565b602002602001015181526020019081526020016000206000828254611d5e91906127e8565b90915550611d6d90508161294a565b9050611d00565b505b6001600160a01b038416610fb35760005b8351811015610c23576000848281518110611da457611da4612999565b602002602001015190506000848381518110611dc257611dc2612999565b6020026020010151905060006003600084815260200190815260200160002054905081811015611e5a5760405162461bcd60e51b815260206004820152602860248201527f455243313135353a206275726e20616d6f756e74206578636565647320746f7460448201527f616c537570706c790000000000000000000000000000000000000000000000006064820152608401610407565b60009283526003602052604090922091039055611e768161294a565b9050611d87565b828054611e89906128bc565b90600052602060002090601f016020900481019282611eab5760008555611ef1565b82601f10611ec457805160ff1916838001178555611ef1565b82800160010185558215611ef1579182015b82811115611ef1578251825591602001919060010190611ed6565b50611efd929150611f01565b5090565b5b80821115611efd5760008155600101611f02565b600067ffffffffffffffff831115611f3057611f306129af565b604051611f476020601f19601f870116018261291d565b809150838152848484011115611f5c57600080fd5b83836020830137600060208583010152509392505050565b80356001600160a01b0381168114611f8b57600080fd5b919050565b600082601f830112611fa157600080fd5b604051611fad816128f7565b80838560c086011115611fbf57600080fd5b60005b6006811015611fe957611fd48261214f565b83526020928301929190910190600101611fc2565b509195945050505050565b6000601f838184011261200657600080fd5b604051612012816128f7565b80848660c08701111561202457600080fd5b60005b600681101561207b57813567ffffffffffffffff81111561204757600080fd5b8701858101891361205757600080fd5b60206120678a8335838501611f16565b855293840193929092019150600101612027565b50919695505050505050565b600082601f83011261209857600080fd5b6040516120a4816128f7565b80838560c0860111156120b657600080fd5b60005b6006811015611fe95781358352602092830192909101906001016120b9565b600082601f8301126120e957600080fd5b813560206120f6826127c4565b604051612103828261291d565b8381528281019150858301600585901b8701840188101561212357600080fd5b60005b8581101561214257813584529284019290840190600101612126565b5090979650505050505050565b80358015158114611f8b57600080fd5b600082601f83011261217057600080fd5b61217f83833560208501611f16565b9392505050565b805169ffffffffffffffffffff81168114611f8b57600080fd5b600080604083850312156121b357600080fd5b6121bc83611f74565b91506121ca60208401611f74565b90509250929050565b600080600080600060a086880312156121eb57600080fd5b6121f486611f74565b945061220260208701611f74565b9350604086013567ffffffffffffffff8082111561221f57600080fd5b61222b89838a016120d8565b9450606088013591508082111561224157600080fd5b61224d89838a016120d8565b9350608088013591508082111561226357600080fd5b506122708882890161215f565b9150509295509295909350565b600080600080600060a0868803121561229557600080fd5b61229e86611f74565b94506122ac60208701611f74565b93506040860135925060608601359150608086013567ffffffffffffffff8111156122d657600080fd5b6122708882890161215f565b60008060006101a084860312156122f857600080fd5b61230184611f74565b92506123108560208601611f90565b915061231f8560e08601612087565b90509250925092565b6000806000806101c0858703121561233f57600080fd5b61234885611f74565b9350602085013567ffffffffffffffff81111561236457600080fd5b61237087828801611ff4565b9350506123808660408701611f90565b9150612390866101008701612087565b905092959194509250565b6000806000606084860312156123b057600080fd5b6123b984611f74565b9250602084013567ffffffffffffffff808211156123d657600080fd5b6123e2878388016120d8565b935060408601359150808211156123f857600080fd5b50612405868287016120d8565b9150509250925092565b6000806040838503121561242257600080fd5b61242b83611f74565b91506121ca6020840161214f565b6000806040838503121561244c57600080fd5b61245583611f74565b946020939093013593505050565b60008060006060848603121561247857600080fd5b61248184611f74565b95602085013595506040909401359392505050565b600080604083850312156124a957600080fd5b823567ffffffffffffffff808211156124c157600080fd5b818501915085601f8301126124d557600080fd5b813560206124e2826127c4565b6040516124ef828261291d565b8381528281019150858301600585901b870184018b101561250f57600080fd5b600096505b848710156125395761252581611f74565b835260019690960195918301918301612514565b509650508601359250508082111561255057600080fd5b5061255d858286016120d8565b9150509250929050565b60006020828403121561257957600080fd5b813567ffffffffffffffff81111561259057600080fd5b61259c84828501611ff4565b949350505050565b6000602082840312156125b657600080fd5b813561217f81612a89565b6000602082840312156125d357600080fd5b815161217f81612a89565b6000602082840312156125f057600080fd5b5035919050565b600080600080600060a0868803121561260f57600080fd5b61261886612186565b945060208601519350604086015192506060860151915061263b60808701612186565b90509295509295909350565b600081518084526020808501945080840160005b838110156126775781518752958201959082019060010161265b565b509495945050505050565b6000815180845260005b818110156126a85760208185018101518683018201520161268c565b818111156126ba576000602083870101525b50601f01601f19169290920160200192915050565b60006001600160a01b03808816835280871660208401525060a060408301526126fb60a0830186612647565b828103606084015261270d8186612647565b905082810360808401526127218185612682565b98975050505050505050565b60006001600160a01b03808816835280871660208401525084604083015283606083015260a0608083015261276560a0830184612682565b979650505050505050565b60208152600061217f6020830184612647565b6040815260006127966040830185612647565b82810360208401526127a88185612647565b95945050505050565b60208152600061217f6020830184612682565b600067ffffffffffffffff8211156127de576127de6129af565b5060051b60200190565b600082198211156127fb576127fb612983565b500190565b60007f7fffffffffffffffffffffffffffffffffffffffffffffffffffffffffffffff60008413600084138583048511828216161561284157612841612983565b7f8000000000000000000000000000000000000000000000000000000000000000600087128682058812818416161561287c5761287c612983565b6000871292508782058712848416161561289857612898612983565b878505871281841616156128ae576128ae612983565b505050929093029392505050565b600181811c908216806128d057607f821691505b602082108114156128f157634e487b7160e01b600052602260045260246000fd5b50919050565b60c0810181811067ffffffffffffffff82111715612917576129176129af565b60405250565b601f19601f830116810181811067ffffffffffffffff82111715612943576129436129af565b6040525050565b60007fffffffffffffffffffffffffffffffffffffffffffffffffffffffffffffffff82141561297c5761297c612983565b5060010190565b634e487b7160e01b600052601160045260246000fd5b634e487b7160e01b600052603260045260246000fd5b634e487b7160e01b600052604160045260246000fd5b600060033d11156129de5760046000803e5060005160e01c5b90565b600060443d10156129ef5790565b6040517ffffffffffffffffffffffffffffffffffffffffffffffffffffffffffffffffc803d016004833e81513d67ffffffffffffffff8160248401118184111715612a3d57505050505090565b8285019150815181811115612a555750505050505090565b843d8701016020828501011115612a6f5750505050505090565b612a7e6020828601018761291d565b509095945050505050565b7fffffffff0000000000000000000000000000000000000000000000000000000081168114612ab757600080fd5b5056fea2646970667358221220e407fc8df9d9f9772c7a5719b3164b5b19f1e3c8ef8defe0bdf981055afff25c64736f6c63430008070033",
  "linkReferences": {},
  "deployedLinkReferences": {}
}