{
  "_format": "hh-sol-artifact-1",
  "contractName": "LeafContract",
  "sourceName": "contracts/LeafContract.sol",
  "abi": [
    {
      "inputs": [
        {
          "internalType": "string",
          "name": "_tokenName",
          "type": "string"
        },
        {
          "internalType": "address",
          "name": "_marketplaceAddress",
          "type": "address"
        }
      ],
      "stateMutability": "nonpayable",
      "type": "constructor"
    },
    {
      "anonymous": false,
      "inputs": [
        {
          "indexed": true,
          "internalType": "address",
          "name": "account",
          "type": "address"
        },
        {
          "indexed": true,
          "internalType": "address",
          "name": "operator",
          "type": "address"
        },
        {
          "indexed": false,
          "internalType": "bool",
          "name": "approved",
          "type": "bool"
        }
      ],
      "name": "ApprovalForAll",
      "type": "event"
    },
    {
      "anonymous": false,
      "inputs": [
        {
          "indexed": true,
          "internalType": "address",
          "name": "operator",
          "type": "address"
        },
        {
          "indexed": true,
          "internalType": "address",
          "name": "from",
          "type": "address"
        },
        {
          "indexed": true,
          "internalType": "address",
          "name": "to",
          "type": "address"
        },
        {
          "indexed": false,
          "internalType": "uint256[]",
          "name": "ids",
          "type": "uint256[]"
        },
        {
          "indexed": false,
          "internalType": "uint256[]",
          "name": "values",
          "type": "uint256[]"
        }
      ],
      "name": "TransferBatch",
      "type": "event"
    },
    {
      "anonymous": false,
      "inputs": [
        {
          "indexed": true,
          "internalType": "address",
          "name": "operator",
          "type": "address"
        },
        {
          "indexed": true,
          "internalType": "address",
          "name": "from",
          "type": "address"
        },
        {
          "indexed": true,
          "internalType": "address",
          "name": "to",
          "type": "address"
        },
        {
          "indexed": false,
          "internalType": "uint256",
          "name": "id",
          "type": "uint256"
        },
        {
          "indexed": false,
          "internalType": "uint256",
          "name": "value",
          "type": "uint256"
        }
      ],
      "name": "TransferSingle",
      "type": "event"
    },
    {
      "anonymous": false,
      "inputs": [
        {
          "indexed": false,
          "internalType": "string",
          "name": "value",
          "type": "string"
        },
        {
          "indexed": true,
          "internalType": "uint256",
          "name": "id",
          "type": "uint256"
        }
      ],
      "name": "URI",
      "type": "event"
    },
    {
      "inputs": [],
      "name": "REQUIRED_USD",
      "outputs": [
        {
          "internalType": "int256",
          "name": "",
          "type": "int256"
        }
      ],
      "stateMutability": "view",
      "type": "function"
    },
    {
      "inputs": [
        {
          "internalType": "address",
          "name": "account",
          "type": "address"
        },
        {
          "internalType": "uint256",
          "name": "id",
          "type": "uint256"
        }
      ],
      "name": "balanceOf",
      "outputs": [
        {
          "internalType": "uint256",
          "name": "",
          "type": "uint256"
        }
      ],
      "stateMutability": "view",
      "type": "function"
    },
    {
      "inputs": [
        {
          "internalType": "address[]",
          "name": "accounts",
          "type": "address[]"
        },
        {
          "internalType": "uint256[]",
          "name": "ids",
          "type": "uint256[]"
        }
      ],
      "name": "balanceOfBatch",
      "outputs": [
        {
          "internalType": "uint256[]",
          "name": "",
          "type": "uint256[]"
        }
      ],
      "stateMutability": "view",
      "type": "function"
    },
    {
      "inputs": [
        {
          "internalType": "address",
          "name": "account",
          "type": "address"
        },
        {
          "internalType": "uint256",
          "name": "id",
          "type": "uint256"
        },
        {
          "internalType": "uint256",
          "name": "value",
          "type": "uint256"
        }
      ],
      "name": "burn",
      "outputs": [],
      "stateMutability": "nonpayable",
      "type": "function"
    },
    {
      "inputs": [
        {
          "internalType": "address",
          "name": "account",
          "type": "address"
        },
        {
          "internalType": "uint256[]",
          "name": "ids",
          "type": "uint256[]"
        },
        {
          "internalType": "uint256[]",
          "name": "values",
          "type": "uint256[]"
        }
      ],
      "name": "burnBatch",
      "outputs": [],
      "stateMutability": "nonpayable",
      "type": "function"
    },
    {
      "inputs": [
        {
          "internalType": "uint256",
          "name": "id",
          "type": "uint256"
        }
      ],
      "name": "exists",
      "outputs": [
        {
          "internalType": "bool",
          "name": "",
          "type": "bool"
        }
      ],
      "stateMutability": "view",
      "type": "function"
    },
    {
      "inputs": [],
      "name": "getLatestPrice",
      "outputs": [
        {
          "internalType": "int256",
          "name": "",
          "type": "int256"
        }
      ],
      "stateMutability": "view",
      "type": "function"
    },
    {
      "inputs": [
        {
          "internalType": "address",
          "name": "account",
          "type": "address"
        },
        {
          "internalType": "address",
          "name": "operator",
          "type": "address"
        }
      ],
      "name": "isApprovedForAll",
      "outputs": [
        {
          "internalType": "bool",
          "name": "",
          "type": "bool"
        }
      ],
      "stateMutability": "view",
      "type": "function"
    },
    {
      "inputs": [
        {
          "internalType": "address",
          "name": "_to",
          "type": "address"
        },
        {
          "internalType": "bool[]",
          "name": "tiers",
          "type": "bool[]"
        },
        {
          "internalType": "uint256[]",
          "name": "amount",
          "type": "uint256[]"
        }
      ],
      "name": "mintAll",
      "outputs": [],
      "stateMutability": "nonpayable",
      "type": "function"
    },
    {
      "inputs": [
        {
          "internalType": "address",
          "name": "to",
          "type": "address"
        },
        {
          "internalType": "uint256[]",
          "name": "ids",
          "type": "uint256[]"
        },
        {
          "internalType": "uint256[]",
          "name": "amounts",
          "type": "uint256[]"
        },
        {
          "internalType": "bytes",
          "name": "data",
          "type": "bytes"
        }
      ],
      "name": "mintBatch",
      "outputs": [],
      "stateMutability": "nonpayable",
      "type": "function"
    },
    {
      "inputs": [],
      "name": "name",
      "outputs": [
        {
          "internalType": "string",
          "name": "",
          "type": "string"
        }
      ],
      "stateMutability": "view",
      "type": "function"
    },
    {
      "inputs": [
        {
          "internalType": "address",
          "name": "_to",
          "type": "address"
        },
        {
          "internalType": "uint256",
          "name": "_tier",
          "type": "uint256"
        },
        {
          "internalType": "uint256",
          "name": "amount",
          "type": "uint256"
        }
      ],
      "name": "normalMint",
      "outputs": [],
      "stateMutability": "nonpayable",
      "type": "function"
    },
    {
      "inputs": [
        {
          "internalType": "address",
          "name": "from",
          "type": "address"
        },
        {
          "internalType": "address",
          "name": "to",
          "type": "address"
        },
        {
          "internalType": "uint256[]",
          "name": "ids",
          "type": "uint256[]"
        },
        {
          "internalType": "uint256[]",
          "name": "amounts",
          "type": "uint256[]"
        },
        {
          "internalType": "bytes",
          "name": "data",
          "type": "bytes"
        }
      ],
      "name": "safeBatchTransferFrom",
      "outputs": [],
      "stateMutability": "nonpayable",
      "type": "function"
    },
    {
      "inputs": [
        {
          "internalType": "address",
          "name": "from",
          "type": "address"
        },
        {
          "internalType": "address",
          "name": "to",
          "type": "address"
        },
        {
          "internalType": "uint256",
          "name": "id",
          "type": "uint256"
        },
        {
          "internalType": "uint256",
          "name": "amount",
          "type": "uint256"
        },
        {
          "internalType": "bytes",
          "name": "data",
          "type": "bytes"
        }
      ],
      "name": "safeTransferFrom",
      "outputs": [],
      "stateMutability": "nonpayable",
      "type": "function"
    },
    {
      "inputs": [
        {
          "internalType": "address",
          "name": "_to",
          "type": "address"
        },
        {
          "internalType": "string[]",
          "name": "_newUris",
          "type": "string[]"
        },
        {
          "internalType": "bool[]",
          "name": "tiers",
          "type": "bool[]"
        },
        {
          "internalType": "uint256[]",
          "name": "amount",
          "type": "uint256[]"
        }
      ],
      "name": "setAndMint",
      "outputs": [],
      "stateMutability": "nonpayable",
      "type": "function"
    },
    {
      "inputs": [
        {
          "internalType": "address",
          "name": "operator",
          "type": "address"
        },
        {
          "internalType": "bool",
          "name": "approved",
          "type": "bool"
        }
      ],
      "name": "setApprovalForAll",
      "outputs": [],
      "stateMutability": "nonpayable",
      "type": "function"
    },
    {
      "inputs": [
        {
          "internalType": "string[]",
          "name": "newuri",
          "type": "string[]"
        }
      ],
      "name": "setURI",
      "outputs": [],
      "stateMutability": "nonpayable",
      "type": "function"
    },
    {
      "inputs": [
        {
          "internalType": "bytes4",
          "name": "interfaceId",
          "type": "bytes4"
        }
      ],
      "name": "supportsInterface",
      "outputs": [
        {
          "internalType": "bool",
          "name": "",
          "type": "bool"
        }
      ],
      "stateMutability": "view",
      "type": "function"
    },
    {
      "inputs": [
        {
          "internalType": "uint256",
          "name": "id",
          "type": "uint256"
        }
      ],
      "name": "totalSupply",
      "outputs": [
        {
          "internalType": "uint256",
          "name": "",
          "type": "uint256"
        }
      ],
      "stateMutability": "view",
      "type": "function"
    },
    {
      "inputs": [
        {
          "internalType": "uint256",
          "name": "_tier",
          "type": "uint256"
        }
      ],
      "name": "uri",
      "outputs": [
        {
          "internalType": "string",
          "name": "",
          "type": "string"
        }
      ],
      "stateMutability": "view",
      "type": "function"
    }
  ],
  "bytecode": "0x60806040523480156200001157600080fd5b50604051620031e8380380620031e88339810160408190526200003491620002a8565b6040805160208101909152600081526200004e81620001cc565b50815162000064906004906020850190620001e5565b5060058054738a753747a1fa494ec906ce90e9f37563a8af630e6001600160a01b031991821617909155600780549091166001600160a01b03831617905560408051602080820192839052600080835280526006905251620000e8917f54cdd369e4e8a8515e52ca72ec816c2101831ad1f18bf44102ed171459c9b4f891620001e5565b5060408051602080820192839052600080835260019052600690525162000131917f3e5fec24aa4dc4e5aee2e025e51e1392c72a2500577559fae9665c6d52bd6a3191620001e5565b506040805160208082019283905260008083526002905260069052516200017a917f8819ef417987f8ae7a81f42cdfb18815282fe989326fbff903d13cf0e03ace2991620001e5565b50604080516020808201928390526000808352600390526006905251620001c3917f75f96ab15d697e93042dc45b5c896c4b27e89bb6eaf39475c5c371cb2513f7d291620001e5565b505050620003e6565b8051620001e1906002906020840190620001e5565b5050565b828054620001f39062000393565b90600052602060002090601f01602090048101928262000217576000855562000262565b82601f106200023257805160ff191683800117855562000262565b8280016001018555821562000262579182015b828111156200026257825182559160200191906001019062000245565b506200027092915062000274565b5090565b5b8082111562000270576000815560010162000275565b80516001600160a01b0381168114620002a357600080fd5b919050565b60008060408385031215620002bb578182fd5b82516001600160401b0380821115620002d2578384fd5b818501915085601f830112620002e6578384fd5b815181811115620002fb57620002fb620003d0565b604051601f8201601f19908116603f01168101908382118183101715620003265762000326620003d0565b8160405282815260209350888484870101111562000342578687fd5b8691505b8282101562000365578482018401518183018501529083019062000346565b828211156200037657868484830101525b9550620003889150508582016200028b565b925050509250929050565b600181811c90821680620003a857607f821691505b60208210811415620003ca57634e487b7160e01b600052602260045260246000fd5b50919050565b634e487b7160e01b600052604160045260246000fd5b612df280620003f66000396000f3fe608060405234801561001057600080fd5b506004361061016a5760003560e01c80634e1273f4116100cd578063a22cb46511610081578063e985e9c511610066578063e985e9c5146102f4578063f242432a14610330578063f5298aca1461034357600080fd5b8063a22cb465146102c1578063bd85b039146102d457600080fd5b80636b20c454116100b25780636b20c45414610293578063875e3442146102a65780638e15f473146102b957600080fd5b80634e1273f4146102515780634f558e791461027157600080fd5b80631a63fdac116101245780631f7fdffa116101095780631f7fdffa1461021b5780632eb2c2d61461022e5780634bf749ac1461024157600080fd5b80631a63fdac146101f55780631f089c971461020857600080fd5b806301ffc9a71161015557806301ffc9a7146101aa57806306fdde03146101cd5780630e89341c146101e257600080fd5b806298a44e1461016f578062fdd58e14610184575b600080fd5b61018261017d3660046127b9565b610356565b005b610197610192366004612790565b61038d565b6040519081526020015b60405180910390f35b6101bd6101b83660046128f1565b610436565b60405190151581526020016101a1565b6101d5610447565b6040516101a19190612af7565b6101d56101f0366004612929565b6104d5565b610182610203366004612593565b610577565b610182610216366004612604565b6106e8565b6101826102293660046126de565b610702565b61018261023c36600461248a565b61070e565b6101976801158e460913d0000081565b61026461025f3660046127eb565b6107b0565b6040516101a19190612ab6565b6101bd61027f366004612929565b600090815260036020526040902054151590565b6101826102a1366004612699565b610926565b6101826102b43660046128b6565b6109bf565b610197610b59565b6101826102cf366004612767565b610bff565b6101976102e2366004612929565b60009081526003602052604090205490565b6101bd610302366004612458565b6001600160a01b03918216600090815260016020908152604080832093909416825291909152205460ff1690565b61018261033e366004612530565b610c0a565b6101826103513660046127b9565b610ca5565b61037183838360405180602001604052806000815250610d3e565b600754610388906001600160a01b03166001610bff565b505050565b60006001600160a01b0383166104105760405162461bcd60e51b815260206004820152602b60248201527f455243313135353a2062616c616e636520717565727920666f7220746865207a60448201527f65726f206164647265737300000000000000000000000000000000000000000060648201526084015b60405180910390fd5b506000908152602081815260408083206001600160a01b03949094168352929052205490565b600061044182610e7d565b92915050565b6004805461045490612bfe565b80601f016020809104026020016040519081016040528092919081815260200182805461048090612bfe565b80156104cd5780601f106104a2576101008083540402835291602001916104cd565b820191906000526020600020905b8154815290600101906020018083116104b057829003601f168201915b505050505081565b60008181526006602052604090208054606091906104f290612bfe565b80601f016020809104026020016040519081016040528092919081815260200182805461051e90612bfe565b801561056b5780601f106105405761010080835404028352916020019161056b565b820191906000526020600020905b81548152906001019060200180831161054e57829003601f168201915b50505050509050919050565b8160008151811061059857634e487b7160e01b600052603260045260246000fd5b6020026020010151156105e9576105e9836000836000815181106105cc57634e487b7160e01b600052603260045260246000fd5b602002602001015160405180602001604052806000815250610d3e565b8160018151811061060a57634e487b7160e01b600052603260045260246000fd5b60200260200101511561063e5761063e836001836001815181106105cc57634e487b7160e01b600052603260045260246000fd5b8160028151811061065f57634e487b7160e01b600052603260045260246000fd5b60200260200101511561069357610693836002836002815181106105cc57634e487b7160e01b600052603260045260246000fd5b816003815181106106b457634e487b7160e01b600052603260045260246000fd5b60200260200101511561037157610371836003836003815181106105cc57634e487b7160e01b600052603260045260246000fd5b6106f1836109bf565b6106fc848383610577565b50505050565b6106fc84848484610f60565b6001600160a01b03851633148061072a575061072a8533610302565b61079c5760405162461bcd60e51b815260206004820152603260248201527f455243313135353a207472616e736665722063616c6c6572206973206e6f742060448201527f6f776e6572206e6f7220617070726f76656400000000000000000000000000006064820152608401610407565b6107a98585858585611182565b5050505050565b606081518351146108295760405162461bcd60e51b815260206004820152602960248201527f455243313135353a206163636f756e747320616e6420696473206c656e67746860448201527f206d69736d6174636800000000000000000000000000000000000000000000006064820152608401610407565b6000835167ffffffffffffffff81111561085357634e487b7160e01b600052604160045260246000fd5b60405190808252806020026020018201604052801561087c578160200160208202803683370190505b50905060005b845181101561091e576108e38582815181106108ae57634e487b7160e01b600052603260045260246000fd5b60200260200101518583815181106108d657634e487b7160e01b600052603260045260246000fd5b602002602001015161038d565b82828151811061090357634e487b7160e01b600052603260045260246000fd5b602090810291909101015261091781612c66565b9050610882565b509392505050565b6001600160a01b03831633148061094257506109428333610302565b6109b45760405162461bcd60e51b815260206004820152602960248201527f455243313135353a2063616c6c6572206973206e6f74206f776e6572206e6f7260448201527f20617070726f76656400000000000000000000000000000000000000000000006064820152608401610407565b61038883838361144a565b806000815181106109e057634e487b7160e01b600052603260045260246000fd5b60209081029190910181015160008052600682528051610a23927f54cdd369e4e8a8515e52ca72ec816c2101831ad1f18bf44102ed171459c9b4f8920190612168565b5080600181518110610a4557634e487b7160e01b600052603260045260246000fd5b6020908102919091018101516001600052600682528051610a89927f3e5fec24aa4dc4e5aee2e025e51e1392c72a2500577559fae9665c6d52bd6a31920190612168565b5080600281518110610aab57634e487b7160e01b600052603260045260246000fd5b6020908102919091018101516002600052600682528051610aef927f8819ef417987f8ae7a81f42cdfb18815282fe989326fbff903d13cf0e03ace29920190612168565b5080600381518110610b1157634e487b7160e01b600052603260045260246000fd5b6020908102919091018101516003600052600682528051610b55927f75f96ab15d697e93042dc45b5c896c4b27e89bb6eaf39475c5c371cb2513f7d2920190612168565b5050565b600080600560009054906101000a90046001600160a01b03166001600160a01b031663feaf968c6040518163ffffffff1660e01b815260040160a06040518083038186803b158015610baa57600080fd5b505afa158015610bbe573d6000803e3d6000fd5b505050506040513d601f19601f82011682018060405250810190610be29190612941565b505050915050806402540be400610bf99190612b46565b91505090565b610b55328383611703565b6001600160a01b038516331480610c265750610c268533610302565b610c985760405162461bcd60e51b815260206004820152602960248201527f455243313135353a2063616c6c6572206973206e6f74206f776e6572206e6f7260448201527f20617070726f76656400000000000000000000000000000000000000000000006064820152608401610407565b6107a98585858585611816565b6001600160a01b038316331480610cc15750610cc18333610302565b610d335760405162461bcd60e51b815260206004820152602960248201527f455243313135353a2063616c6c6572206973206e6f74206f776e6572206e6f7260448201527f20617070726f76656400000000000000000000000000000000000000000000006064820152608401610407565b6103888383836119fa565b6001600160a01b038416610dba5760405162461bcd60e51b815260206004820152602160248201527f455243313135353a206d696e7420746f20746865207a65726f2061646472657360448201527f73000000000000000000000000000000000000000000000000000000000000006064820152608401610407565b336000610dc685611bbd565b90506000610dd385611bbd565b9050610de483600089858589611c16565b6000868152602081815260408083206001600160a01b038b16845290915281208054879290610e14908490612b2e565b909155505060408051878152602081018790526001600160a01b03808a1692600092918716917fc3d58168c5ae7397731d063d5bbf3d657854427343f4c083240f7aacaa2d0f62910160405180910390a4610e7483600089898989611c24565b50505050505050565b60007fffffffff0000000000000000000000000000000000000000000000000000000082167fd9b67a26000000000000000000000000000000000000000000000000000000001480610f1057507fffffffff0000000000000000000000000000000000000000000000000000000082167f0e89341c00000000000000000000000000000000000000000000000000000000145b8061044157507f01ffc9a7000000000000000000000000000000000000000000000000000000007fffffffff00000000000000000000000000000000000000000000000000000000831614610441565b6001600160a01b038416610fdc5760405162461bcd60e51b815260206004820152602160248201527f455243313135353a206d696e7420746f20746865207a65726f2061646472657360448201527f73000000000000000000000000000000000000000000000000000000000000006064820152608401610407565b81518351146110535760405162461bcd60e51b815260206004820152602860248201527f455243313135353a2069647320616e6420616d6f756e7473206c656e6774682060448201527f6d69736d617463680000000000000000000000000000000000000000000000006064820152608401610407565b3361106381600087878787611c16565b60005b845181101561111a5783818151811061108f57634e487b7160e01b600052603260045260246000fd5b60200260200101516000808784815181106110ba57634e487b7160e01b600052603260045260246000fd5b602002602001015181526020019081526020016000206000886001600160a01b03166001600160a01b0316815260200190815260200160002060008282546111029190612b2e565b9091555081905061111281612c66565b915050611066565b50846001600160a01b031660006001600160a01b0316826001600160a01b03167f4a39dc06d4c0dbc64b70af90fd698a233a518aa5d07e595d983b8c0526c8f7fb878760405161116b929190612ac9565b60405180910390a46107a981600087878787611e38565b81518351146111f95760405162461bcd60e51b815260206004820152602860248201527f455243313135353a2069647320616e6420616d6f756e7473206c656e6774682060448201527f6d69736d617463680000000000000000000000000000000000000000000000006064820152608401610407565b6001600160a01b0384166112755760405162461bcd60e51b815260206004820152602560248201527f455243313135353a207472616e7366657220746f20746865207a65726f20616460448201527f64726573730000000000000000000000000000000000000000000000000000006064820152608401610407565b33611284818787878787611c16565b60005b84518110156113dc5760008582815181106112b257634e487b7160e01b600052603260045260246000fd5b6020026020010151905060008583815181106112de57634e487b7160e01b600052603260045260246000fd5b602090810291909101810151600084815280835260408082206001600160a01b038e1683529093529190912054909150818110156113845760405162461bcd60e51b815260206004820152602a60248201527f455243313135353a20696e73756666696369656e742062616c616e636520666f60448201527f72207472616e73666572000000000000000000000000000000000000000000006064820152608401610407565b6000838152602081815260408083206001600160a01b038e8116855292528083208585039055908b168252812080548492906113c1908490612b2e565b92505081905550505050806113d590612c66565b9050611287565b50846001600160a01b0316866001600160a01b0316826001600160a01b03167f4a39dc06d4c0dbc64b70af90fd698a233a518aa5d07e595d983b8c0526c8f7fb878760405161142c929190612ac9565b60405180910390a4611442818787878787611e38565b505050505050565b6001600160a01b0383166114c65760405162461bcd60e51b815260206004820152602360248201527f455243313135353a206275726e2066726f6d20746865207a65726f206164647260448201527f65737300000000000000000000000000000000000000000000000000000000006064820152608401610407565b805182511461153d5760405162461bcd60e51b815260206004820152602860248201527f455243313135353a2069647320616e6420616d6f756e7473206c656e6774682060448201527f6d69736d617463680000000000000000000000000000000000000000000000006064820152608401610407565b600033905061156081856000868660405180602001604052806000815250611c16565b60005b835181101561169657600084828151811061158e57634e487b7160e01b600052603260045260246000fd5b6020026020010151905060008483815181106115ba57634e487b7160e01b600052603260045260246000fd5b602090810291909101810151600084815280835260408082206001600160a01b038c16835290935291909120549091508181101561165f5760405162461bcd60e51b8152602060048201526024808201527f455243313135353a206275726e20616d6f756e7420657863656564732062616c60448201527f616e6365000000000000000000000000000000000000000000000000000000006064820152608401610407565b6000928352602083815260408085206001600160a01b038b168652909152909220910390558061168e81612c66565b915050611563565b5060006001600160a01b0316846001600160a01b0316826001600160a01b03167f4a39dc06d4c0dbc64b70af90fd698a233a518aa5d07e595d983b8c0526c8f7fb86866040516116e7929190612ac9565b60405180910390a46040805160208101909152600090526106fc565b816001600160a01b0316836001600160a01b0316141561178b5760405162461bcd60e51b815260206004820152602960248201527f455243313135353a2073657474696e6720617070726f76616c2073746174757360448201527f20666f722073656c6600000000000000000000000000000000000000000000006064820152608401610407565b6001600160a01b0383811660008181526001602090815260408083209487168084529482529182902080547fffffffffffffffffffffffffffffffffffffffffffffffffffffffffffffff001686151590811790915591519182527f17307eab39ab6107e8899845ad3d59bd9653f200f220920489ca2b5937696c31910160405180910390a3505050565b6001600160a01b0384166118925760405162461bcd60e51b815260206004820152602560248201527f455243313135353a207472616e7366657220746f20746865207a65726f20616460448201527f64726573730000000000000000000000000000000000000000000000000000006064820152608401610407565b33600061189e85611bbd565b905060006118ab85611bbd565b90506118bb838989858589611c16565b6000868152602081815260408083206001600160a01b038c168452909152902054858110156119525760405162461bcd60e51b815260206004820152602a60248201527f455243313135353a20696e73756666696369656e742062616c616e636520666f60448201527f72207472616e73666572000000000000000000000000000000000000000000006064820152608401610407565b6000878152602081815260408083206001600160a01b038d8116855292528083208985039055908a1682528120805488929061198f908490612b2e565b909155505060408051888152602081018890526001600160a01b03808b16928c821692918816917fc3d58168c5ae7397731d063d5bbf3d657854427343f4c083240f7aacaa2d0f62910160405180910390a46119ef848a8a8a8a8a611c24565b505050505050505050565b6001600160a01b038316611a765760405162461bcd60e51b815260206004820152602360248201527f455243313135353a206275726e2066726f6d20746865207a65726f206164647260448201527f65737300000000000000000000000000000000000000000000000000000000006064820152608401610407565b336000611a8284611bbd565b90506000611a8f84611bbd565b9050611aaf83876000858560405180602001604052806000815250611c16565b6000858152602081815260408083206001600160a01b038a16845290915290205484811015611b455760405162461bcd60e51b8152602060048201526024808201527f455243313135353a206275726e20616d6f756e7420657863656564732062616c60448201527f616e6365000000000000000000000000000000000000000000000000000000006064820152608401610407565b6000868152602081815260408083206001600160a01b038b81168086529184528285208a8703905582518b81529384018a90529092908816917fc3d58168c5ae7397731d063d5bbf3d657854427343f4c083240f7aacaa2d0f62910160405180910390a4604080516020810190915260009052610e74565b60408051600180825281830190925260609160009190602080830190803683370190505090508281600081518110611c0557634e487b7160e01b600052603260045260246000fd5b602090810291909101015292915050565b611442868686868686611fa2565b6001600160a01b0384163b15611442576040517ff23a6e610000000000000000000000000000000000000000000000000000000081526001600160a01b0385169063f23a6e6190611c819089908990889088908890600401612a73565b602060405180830381600087803b158015611c9b57600080fd5b505af1925050508015611ccb575060408051601f3d908101601f19168201909252611cc89181019061290d565b60015b611d8157611cd7612ccb565b806308c379a01415611d115750611cec612ce3565b80611cf75750611d13565b8060405162461bcd60e51b81526004016104079190612af7565b505b60405162461bcd60e51b815260206004820152603460248201527f455243313135353a207472616e7366657220746f206e6f6e204552433131353560448201527f526563656976657220696d706c656d656e7465720000000000000000000000006064820152608401610407565b7fffffffff0000000000000000000000000000000000000000000000000000000081167ff23a6e610000000000000000000000000000000000000000000000000000000014610e745760405162461bcd60e51b815260206004820152602860248201527f455243313135353a204552433131353552656365697665722072656a6563746560448201527f6420746f6b656e730000000000000000000000000000000000000000000000006064820152608401610407565b6001600160a01b0384163b15611442576040517fbc197c810000000000000000000000000000000000000000000000000000000081526001600160a01b0385169063bc197c8190611e959089908990889088908890600401612a15565b602060405180830381600087803b158015611eaf57600080fd5b505af1925050508015611edf575060408051601f3d908101601f19168201909252611edc9181019061290d565b60015b611eeb57611cd7612ccb565b7fffffffff0000000000000000000000000000000000000000000000000000000081167fbc197c810000000000000000000000000000000000000000000000000000000014610e745760405162461bcd60e51b815260206004820152602860248201527f455243313135353a204552433131353552656365697665722072656a6563746560448201527f6420746f6b656e730000000000000000000000000000000000000000000000006064820152608401610407565b6001600160a01b0385166120455760005b835181101561204357828181518110611fdc57634e487b7160e01b600052603260045260246000fd5b60200260200101516003600086848151811061200857634e487b7160e01b600052603260045260246000fd5b60200260200101518152602001908152602001600020600082825461202d9190612b2e565b9091555061203c905081612c66565b9050611fb3565b505b6001600160a01b0384166114425760005b8351811015610e7457600084828151811061208157634e487b7160e01b600052603260045260246000fd5b6020026020010151905060008483815181106120ad57634e487b7160e01b600052603260045260246000fd5b60200260200101519050600060036000848152602001908152602001600020549050818110156121455760405162461bcd60e51b815260206004820152602860248201527f455243313135353a206275726e20616d6f756e74206578636565647320746f7460448201527f616c537570706c790000000000000000000000000000000000000000000000006064820152608401610407565b6000928352600360205260409092209103905561216181612c66565b9050612056565b82805461217490612bfe565b90600052602060002090601f01602090048101928261219657600085556121dc565b82601f106121af57805160ff19168380011785556121dc565b828001600101855582156121dc579182015b828111156121dc5782518255916020019190600101906121c1565b506121e89291506121ec565b5090565b5b808211156121e857600081556001016121ed565b600067ffffffffffffffff83111561221b5761221b612cb5565b6040516122326020601f19601f8701160182612c39565b80915083815284848401111561224757600080fd5b83836020830137600060208583010152509392505050565b80356001600160a01b038116811461227657600080fd5b919050565b600082601f83011261228b578081fd5b8135602061229882612b0a565b6040516122a58282612c39565b8381528281019150858301600585901b870184018810156122c4578586fd5b855b858110156122e9576122d782612408565b845292840192908401906001016122c6565b5090979650505050505050565b600082601f830112612306578081fd5b8135602061231382612b0a565b604080516123218382612c39565b8481528381019250868401600586901b88018501891015612340578687fd5b865b8681101561239357813567ffffffffffffffff811115612360578889fd5b8901603f81018b13612370578889fd5b6123808b88830135878401612201565b8652509385019390850190600101612342565b509098975050505050505050565b600082601f8301126123b1578081fd5b813560206123be82612b0a565b6040516123cb8282612c39565b8381528281019150858301600585901b870184018810156123ea578586fd5b855b858110156122e9578135845292840192908401906001016123ec565b8035801515811461227657600080fd5b600082601f830112612428578081fd5b61243783833560208501612201565b9392505050565b805169ffffffffffffffffffff8116811461227657600080fd5b6000806040838503121561246a578182fd5b6124738361225f565b91506124816020840161225f565b90509250929050565b600080600080600060a086880312156124a1578081fd5b6124aa8661225f565b94506124b86020870161225f565b9350604086013567ffffffffffffffff808211156124d4578283fd5b6124e089838a016123a1565b945060608801359150808211156124f5578283fd5b61250189838a016123a1565b93506080880135915080821115612516578283fd5b5061252388828901612418565b9150509295509295909350565b600080600080600060a08688031215612547578081fd5b6125508661225f565b945061255e6020870161225f565b93506040860135925060608601359150608086013567ffffffffffffffff811115612587578182fd5b61252388828901612418565b6000806000606084860312156125a7578081fd5b6125b08461225f565b9250602084013567ffffffffffffffff808211156125cc578283fd5b6125d88783880161227b565b935060408601359150808211156125ed578283fd5b506125fa868287016123a1565b9150509250925092565b60008060008060808587031215612619578182fd5b6126228561225f565b9350602085013567ffffffffffffffff8082111561263e578384fd5b61264a888389016122f6565b9450604087013591508082111561265f578384fd5b61266b8883890161227b565b93506060870135915080821115612680578283fd5b5061268d878288016123a1565b91505092959194509250565b6000806000606084860312156126ad578081fd5b6126b68461225f565b9250602084013567ffffffffffffffff808211156126d2578283fd5b6125d8878388016123a1565b600080600080608085870312156126f3578182fd5b6126fc8561225f565b9350602085013567ffffffffffffffff80821115612718578384fd5b612724888389016123a1565b94506040870135915080821115612739578384fd5b612745888389016123a1565b9350606087013591508082111561275a578283fd5b5061268d87828801612418565b60008060408385031215612779578182fd5b6127828361225f565b915061248160208401612408565b600080604083850312156127a2578182fd5b6127ab8361225f565b946020939093013593505050565b6000806000606084860312156127cd578081fd5b6127d68461225f565b95602085013595506040909401359392505050565b600080604083850312156127fd578182fd5b823567ffffffffffffffff80821115612814578384fd5b818501915085601f830112612827578384fd5b8135602061283482612b0a565b6040516128418282612c39565b8381528281019150858301600585901b870184018b1015612860578889fd5b8896505b84871015612889576128758161225f565b835260019690960195918301918301612864565b509650508601359250508082111561289f578283fd5b506128ac858286016123a1565b9150509250929050565b6000602082840312156128c7578081fd5b813567ffffffffffffffff8111156128dd578182fd5b6128e9848285016122f6565b949350505050565b600060208284031215612902578081fd5b813561243781612d8b565b60006020828403121561291e578081fd5b815161243781612d8b565b60006020828403121561293a578081fd5b5035919050565b600080600080600060a08688031215612958578283fd5b6129618661243e565b94506020860151935060408601519250606086015191506129846080870161243e565b90509295509295909350565b6000815180845260208085019450808401835b838110156129bf578151875295820195908201906001016129a3565b509495945050505050565b60008151808452815b818110156129ef576020818501810151868301820152016129d3565b81811115612a005782602083870101525b50601f01601f19169290920160200192915050565b60006001600160a01b03808816835280871660208401525060a06040830152612a4160a0830186612990565b8281036060840152612a538186612990565b90508281036080840152612a6781856129ca565b98975050505050505050565b60006001600160a01b03808816835280871660208401525084604083015283606083015260a06080830152612aab60a08301846129ca565b979650505050505050565b6020815260006124376020830184612990565b604081526000612adc6040830185612990565b8281036020840152612aee8185612990565b95945050505050565b60208152600061243760208301846129ca565b600067ffffffffffffffff821115612b2457612b24612cb5565b5060051b60200190565b60008219821115612b4157612b41612c9f565b500190565b60007f7fffffffffffffffffffffffffffffffffffffffffffffffffffffffffffffff81841382841385830485118282161615612b8557612b85612c9f565b7f800000000000000000000000000000000000000000000000000000000000000084871286820588128184161615612bbf57612bbf612c9f565b858712925087820587128484161615612bda57612bda612c9f565b87850587128184161615612bf057612bf0612c9f565b505050929093029392505050565b600181811c90821680612c1257607f821691505b60208210811415612c3357634e487b7160e01b600052602260045260246000fd5b50919050565b601f19601f830116810181811067ffffffffffffffff82111715612c5f57612c5f612cb5565b6040525050565b60007fffffffffffffffffffffffffffffffffffffffffffffffffffffffffffffffff821415612c9857612c98612c9f565b5060010190565b634e487b7160e01b600052601160045260246000fd5b634e487b7160e01b600052604160045260246000fd5b600060033d1115612ce057600481823e5160e01c5b90565b600060443d1015612cf15790565b6040517ffffffffffffffffffffffffffffffffffffffffffffffffffffffffffffffffc803d016004833e81513d67ffffffffffffffff8160248401118184111715612d3f57505050505090565b8285019150815181811115612d575750505050505090565b843d8701016020828501011115612d715750505050505090565b612d8060208286010187612c39565b509095945050505050565b7fffffffff0000000000000000000000000000000000000000000000000000000081168114612db957600080fd5b5056fea2646970667358221220ae54bc983b49413502b1213e6800e05628247aba2cb848b91ee0f31dfb80d60164736f6c63430008040033",
  "linkReferences": {},
  "deployedLinkReferences": {}
}