{
  "_format": "hh-sol-artifact-1",
  "contractName": "marketPlaceBoilerPlate",
  "sourceName": "contracts/marketplace.sol",
  "abi": [
    {
      "inputs": [],
      "stateMutability": "nonpayable",
      "type": "constructor"
    },
    {
      "anonymous": false,
      "inputs": [
        {
          "indexed": true,
          "internalType": "uint256",
          "name": "itemId",
          "type": "uint256"
        },
        {
          "indexed": true,
          "internalType": "address",
          "name": "nftContract",
          "type": "address"
        },
        {
          "indexed": false,
          "internalType": "uint256",
          "name": "amount",
          "type": "uint256"
        },
        {
          "indexed": false,
          "internalType": "address",
          "name": "seller",
          "type": "address"
        },
        {
          "indexed": false,
          "internalType": "address",
          "name": "owner",
          "type": "address"
        },
        {
          "indexed": false,
          "internalType": "uint256",
          "name": "price",
          "type": "uint256"
        },
        {
          "indexed": false,
          "internalType": "bool",
          "name": "sold",
          "type": "bool"
        }
      ],
      "name": "MarketItemCreated",
      "type": "event"
    },
    {
      "anonymous": false,
      "inputs": [
        {
          "indexed": true,
          "internalType": "uint256",
          "name": "itemId",
          "type": "uint256"
        },
        {
          "indexed": false,
          "internalType": "address",
          "name": "owner",
          "type": "address"
        }
      ],
      "name": "MarketItemSold",
      "type": "event"
    },
    {
      "anonymous": false,
      "inputs": [
        {
          "indexed": false,
          "internalType": "uint256",
          "name": "tierA",
          "type": "uint256"
        },
        {
          "indexed": false,
          "internalType": "uint256",
          "name": "tierB",
          "type": "uint256"
        },
        {
          "indexed": false,
          "internalType": "uint256",
          "name": "tierC",
          "type": "uint256"
        },
        {
          "indexed": false,
          "internalType": "uint256",
          "name": "tierD",
          "type": "uint256"
        }
      ],
      "name": "feeCalculate",
      "type": "event"
    },
    {
      "inputs": [
        {
          "internalType": "uint256",
          "name": "amount",
          "type": "uint256"
        },
        {
          "internalType": "uint256",
          "name": "tier",
          "type": "uint256"
        }
      ],
      "name": "calculateFee",
      "outputs": [
        {
          "internalType": "uint256",
          "name": "",
          "type": "uint256"
        }
      ],
      "stateMutability": "view",
      "type": "function"
    },
    {
      "inputs": [
        {
          "internalType": "address",
          "name": "nftContract",
          "type": "address"
        },
        {
          "internalType": "uint256",
          "name": "amount",
          "type": "uint256"
        },
        {
          "internalType": "uint256",
          "name": "price",
          "type": "uint256"
        }
      ],
      "name": "createMarketItem",
      "outputs": [],
      "stateMutability": "payable",
      "type": "function"
    },
    {
      "inputs": [
        {
          "internalType": "address",
          "name": "nftContract",
          "type": "address"
        },
        {
          "internalType": "uint256",
          "name": "itemId",
          "type": "uint256"
        }
      ],
      "name": "createMarketSale",
      "outputs": [],
      "stateMutability": "payable",
      "type": "function"
    },
    {
      "inputs": [],
      "name": "fetchMarketItems",
      "outputs": [
        {
          "components": [
            {
              "internalType": "uint256",
              "name": "itemId",
              "type": "uint256"
            },
            {
              "internalType": "address",
              "name": "nftContract",
              "type": "address"
            },
            {
              "internalType": "uint256",
              "name": "amount",
              "type": "uint256"
            },
            {
              "internalType": "address payable",
              "name": "seller",
              "type": "address"
            },
            {
              "internalType": "address payable",
              "name": "owner",
              "type": "address"
            },
            {
              "internalType": "uint256",
              "name": "price",
              "type": "uint256"
            },
            {
              "internalType": "bool",
              "name": "sold",
              "type": "bool"
            }
          ],
          "internalType": "struct marketPlaceBoilerPlate.MarketItem[]",
          "name": "",
          "type": "tuple[]"
        }
      ],
      "stateMutability": "view",
      "type": "function"
    },
    {
      "inputs": [
        {
          "internalType": "address",
          "name": "",
          "type": "address"
        },
        {
          "internalType": "address",
          "name": "",
          "type": "address"
        },
        {
          "internalType": "uint256[]",
          "name": "",
          "type": "uint256[]"
        },
        {
          "internalType": "uint256[]",
          "name": "",
          "type": "uint256[]"
        },
        {
          "internalType": "bytes",
          "name": "",
          "type": "bytes"
        }
      ],
      "name": "onERC1155BatchReceived",
      "outputs": [
        {
          "internalType": "bytes4",
          "name": "",
          "type": "bytes4"
        }
      ],
      "stateMutability": "nonpayable",
      "type": "function"
    },
    {
      "inputs": [
        {
          "internalType": "address",
          "name": "",
          "type": "address"
        },
        {
          "internalType": "address",
          "name": "",
          "type": "address"
        },
        {
          "internalType": "uint256",
          "name": "",
          "type": "uint256"
        },
        {
          "internalType": "uint256",
          "name": "",
          "type": "uint256"
        },
        {
          "internalType": "bytes",
          "name": "",
          "type": "bytes"
        }
      ],
      "name": "onERC1155Received",
      "outputs": [
        {
          "internalType": "bytes4",
          "name": "",
          "type": "bytes4"
        }
      ],
      "stateMutability": "nonpayable",
      "type": "function"
    },
    {
      "inputs": [],
      "name": "owner",
      "outputs": [
        {
          "internalType": "address",
          "name": "",
          "type": "address"
        }
      ],
      "stateMutability": "view",
      "type": "function"
    },
    {
      "inputs": [
        {
          "internalType": "bytes4",
          "name": "interfaceId",
          "type": "bytes4"
        }
      ],
      "name": "supportsInterface",
      "outputs": [
        {
          "internalType": "bool",
          "name": "",
          "type": "bool"
        }
      ],
      "stateMutability": "view",
      "type": "function"
    },
    {
      "inputs": [
        {
          "internalType": "uint256",
          "name": "",
          "type": "uint256"
        }
      ],
      "name": "tierFee",
      "outputs": [
        {
          "internalType": "uint256",
          "name": "",
          "type": "uint256"
        }
      ],
      "stateMutability": "view",
      "type": "function"
    }
  ],
  "bytecode": "0x608060405234801561001057600080fd5b5060016000908155600380546001600160a01b0319163317815560046020526101f47f17ef568e3e12ab5b9c7254a8d58478811de00f9e6eb34345acd53bf8fd09d3ec8190557fabd6e7cb50984ff9c2f3e18a2660c3353dadf4e3291deeb275dae2cd1e44fe058190557f91da3fd0782e51c6b3986e9e672fd566868e71f3dbc2d6c2cd6fbb3e361af2a755905260fa7f2e174c10e159ea99b867ce3205125c24a42d128804e4070ed6fcc8cc98166aa05561127d806100d16000396000f3fe6080604052600436106100965760003560e01c806358eb2df511610069578063bc197c811161004e578063bc197c811461019a578063c23b139e14610210578063f23a6e611461022357600080fd5b806358eb2df51461014d5780638da5cb5b1461016257600080fd5b806301ffc9a71461009b5780630f08efe0146100d057806334e73122146100f25780635613e09f14610120575b600080fd5b3480156100a757600080fd5b506100bb6100b6366004611054565b610268565b60405190151581526020015b60405180910390f35b3480156100dc57600080fd5b506100e5610301565b6040516100c791906110cd565b3480156100fe57600080fd5b5061011261010d3660046110ac565b6104d7565b6040519081526020016100c7565b34801561012c57600080fd5b5061011261013b366004611094565b60046020526000908152604090205481565b61016061015b366004611022565b610505565b005b34801561016e57600080fd5b50600354610182906001600160a01b031681565b6040516001600160a01b0390911681526020016100c7565b3480156101a657600080fd5b506101df6101b5366004610ef0565b7fbc197c810000000000000000000000000000000000000000000000000000000095945050505050565b6040517fffffffff0000000000000000000000000000000000000000000000000000000090911681526020016100c7565b61016061021e366004610ff9565b6108f0565b34801561022f57600080fd5b506101df61023e366004610f96565b7ff23a6e610000000000000000000000000000000000000000000000000000000095945050505050565b60007fffffffff0000000000000000000000000000000000000000000000000000000082167f4e2312e00000000000000000000000000000000000000000000000000000000014806102fb57507f01ffc9a7000000000000000000000000000000000000000000000000000000007fffffffff000000000000000000000000000000000000000000000000000000008316145b92915050565b6060600061030e60015490565b9050600061031b60025490565b60015461032891906111e9565b90506000808267ffffffffffffffff81111561035457634e487b7160e01b600052604160045260246000fd5b6040519080825280602002602001820160405280156103bb57816020015b6040805160e08101825260008082526020808301829052928201819052606082018190526080820181905260a0820181905260c082015282526000199092019101816103725790505b50905060005b848110156104ce5760006005816103d9846001611192565b81526020810191909152604001600020600401546001600160a01b031614156104bc576000610409826001611192565b600081815260056020818152604092839020835160e0810185528154815260018201546001600160a01b0390811693820193909352600282015494810194909452600381015482166060850152600481015490911660808401529081015460a0830152600681015460ff16151560c08301528551929350918590879081106104a157634e487b7160e01b600052603260045260246000fd5b60209081029190910101526104b7600186611192565b945050505b806104c681611200565b9150506103c1565b50949350505050565b600081815260046020526040812054612710906104f490856111ca565b6104fe91906111aa565b9392505050565b6002600054141561055d5760405162461bcd60e51b815260206004820152601f60248201527f5265656e7472616e637947756172643a207265656e7472616e742063616c6c0060448201526064015b60405180910390fd5b600260005561271081116105b35760405162461bcd60e51b815260206004820181905260248201527f5072696365206d7573742062652067726561746572207468616e2031303030306044820152606401610554565b6105c1600180546001019055565b60006105cc60015490565b6040805160e0810182528281526001600160a01b0387811660208084018281528486018a8152336060870181815260006080890181815260a0808b018f815260c08c018481528e85526005998a90528d85209c518d55975160018d0180547fffffffffffffffffffffffff0000000000000000000000000000000000000000908116928e16929092179055965160028d0155935160038c0180548816918c1691909117905590516004808c01805490971691909a161790945590519488019490945591516006909601805460ff1916961515969096179095559451637921219560e11b8152928301949094523060248301526044820184905260648201889052608482019290925260a481019290925291925063f242432a9060c401600060405180830381600087803b15801561070257600080fd5b505af1158015610716573d6000803e3d6000fd5b5050604051637921219560e11b8152336004820152306024820152600160448201526064810186905260a06084820152600060a48201526001600160a01b038716925063f242432a915060c401600060405180830381600087803b15801561077d57600080fd5b505af1158015610791573d6000803e3d6000fd5b5050604051637921219560e11b8152336004820152306024820152600260448201526064810186905260a06084820152600060a48201526001600160a01b038716925063f242432a915060c401600060405180830381600087803b1580156107f857600080fd5b505af115801561080c573d6000803e3d6000fd5b5050604051637921219560e11b8152336004820152306024820152600360448201526064810186905260a06084820152600060a48201526001600160a01b038716925063f242432a915060c401600060405180830381600087803b15801561087357600080fd5b505af1158015610887573d6000803e3d6000fd5b505060408051868152336020820152600081830181905260608201879052608082015290516001600160a01b03881693508492507f045dfa01dcba2b36aba1d3dc4a874f4b0c5d2fbeb8d2c4b34a7d88c8d8f929d19181900360a00190a3505060016000555050565b600260005414156109435760405162461bcd60e51b815260206004820152601f60248201527f5265656e7472616e637947756172643a207265656e7472616e742063616c6c006044820152606401610554565b60026000818155828152600560208190526040909120908101549181015460069091015460ff163483146109e1576040805162461bcd60e51b81526020600482015260248101919091527f506c65617365207375626d6974207468652061736b696e67207072696365206960448201527f6e206f7264657220746f20636f6d706c657465207468652070757263686173656064820152608401610554565b60018115151415610a345760405162461bcd60e51b815260206004820152601e60248201527f546869732053616c652068617320616c726564792066696e6e697368656400006044820152606401610554565b60405133815284907f2073b2706c235effb1e3840575370a51749afd8181b4018f93bff955d50792cb9060200160405180910390a26000610a768360006104d7565b90506000610a858460036104d7565b9050600081610a958460036111ca565b610a9f9190611192565b90506000610aad82346111e9565b6040805186815260208101879052908101869052606081018590529091507fcf059e4e5c808638c8497b33e4ef02ca78dc8185eb40420a857b5e0b711300859060800160405180910390a16000888152600560205260408082206003015490516001600160a01b039091169184156108fc02918591818181858888f19350505050158015610b3f573d6000803e3d6000fd5b506000888152600560205260408082206003015490516001600160a01b039091169183156108fc02918491818181858888f19350505050158015610b87573d6000803e3d6000fd5b50604051637921219560e11b81523060048201523360248201526000604482018190526064820188905260a0608483015260a48201526001600160a01b038a169063f242432a9060c401600060405180830381600087803b158015610beb57600080fd5b505af1158015610bff573d6000803e3d6000fd5b5050604051637921219560e11b8152306004820152336024820152600160448201526064810189905260a06084820152600060a48201526001600160a01b038c16925063f242432a915060c401600060405180830381600087803b158015610c6657600080fd5b505af1158015610c7a573d6000803e3d6000fd5b5050604051637921219560e11b8152306004820152336024820152600260448201526064810189905260a06084820152600060a48201526001600160a01b038c16925063f242432a915060c401600060405180830381600087803b158015610ce157600080fd5b505af1158015610cf5573d6000803e3d6000fd5b5050604051637921219560e11b8152306004820152336024820152600360448201526064810189905260a06084820152600060a48201526001600160a01b038c16925063f242432a915060c401600060405180830381600087803b158015610d5c57600080fd5b505af1158015610d70573d6000803e3d6000fd5b505050600089815260056020526040902060040180547fffffffffffffffffffffffff0000000000000000000000000000000000000000163317905550610dbb600280546001019055565b505050600094855250506005602052505060408120600601805460ff19166001908117909155905550565b80356001600160a01b0381168114610dfd57600080fd5b919050565b600082601f830112610e12578081fd5b8135602067ffffffffffffffff821115610e2e57610e2e611231565b8160051b610e3d828201611161565b838152828101908684018388018501891015610e57578687fd5b8693505b85841015610e79578035835260019390930192918401918401610e5b565b50979650505050505050565b600082601f830112610e95578081fd5b813567ffffffffffffffff811115610eaf57610eaf611231565b610ec26020601f19601f84011601611161565b818152846020838601011115610ed6578283fd5b816020850160208301379081016020019190915292915050565b600080600080600060a08688031215610f07578081fd5b610f1086610de6565b9450610f1e60208701610de6565b9350604086013567ffffffffffffffff80821115610f3a578283fd5b610f4689838a01610e02565b94506060880135915080821115610f5b578283fd5b610f6789838a01610e02565b93506080880135915080821115610f7c578283fd5b50610f8988828901610e85565b9150509295509295909350565b600080600080600060a08688031215610fad578081fd5b610fb686610de6565b9450610fc460208701610de6565b93506040860135925060608601359150608086013567ffffffffffffffff811115610fed578182fd5b610f8988828901610e85565b6000806040838503121561100b578182fd5b61101483610de6565b946020939093013593505050565b600080600060608486031215611036578283fd5b61103f84610de6565b95602085013595506040909401359392505050565b600060208284031215611065578081fd5b81357fffffffff00000000000000000000000000000000000000000000000000000000811681146104fe578182fd5b6000602082840312156110a5578081fd5b5035919050565b600080604083850312156110be578182fd5b50508035926020909101359150565b602080825282518282018190526000919060409081850190868401855b8281101561115457815180518552868101516001600160a01b039081168887015286820151878701526060808301518216908701526080808301519091169086015260a0808201519086015260c09081015115159085015260e090930192908501906001016110ea565b5091979650505050505050565b604051601f8201601f1916810167ffffffffffffffff8111828210171561118a5761118a611231565b604052919050565b600082198211156111a5576111a561121b565b500190565b6000826111c557634e487b7160e01b81526012600452602481fd5b500490565b60008160001904831182151516156111e4576111e461121b565b500290565b6000828210156111fb576111fb61121b565b500390565b60006000198214156112145761121461121b565b5060010190565b634e487b7160e01b600052601160045260246000fd5b634e487b7160e01b600052604160045260246000fdfea2646970667358221220f77729827f477de37c1aa0d7ef5e0f4a0ddace3260f8a6f1a1834c94d0cf5d1464736f6c63430008040033",
  "linkReferences": {},
  "deployedLinkReferences": {}
}