{
  "_format": "hh-sol-artifact-1",
  "contractName": "Marketplace",
  "sourceName": "contracts/marketplace.sol",
  "abi": [
    {
      "inputs": [],
      "stateMutability": "nonpayable",
      "type": "constructor"
    },
    {
      "anonymous": false,
      "inputs": [
        {
          "indexed": true,
          "internalType": "uint256",
          "name": "itemId",
          "type": "uint256"
        },
        {
          "indexed": true,
          "internalType": "address",
          "name": "nftContract",
          "type": "address"
        },
        {
          "indexed": false,
          "internalType": "uint256[]",
          "name": "ids",
          "type": "uint256[]"
        },
        {
          "indexed": false,
          "internalType": "uint256[]",
          "name": "amounts",
          "type": "uint256[]"
        },
        {
          "indexed": false,
          "internalType": "address",
          "name": "seller",
          "type": "address"
        },
        {
          "indexed": false,
          "internalType": "address",
          "name": "owner",
          "type": "address"
        },
        {
          "indexed": false,
          "internalType": "uint256",
          "name": "price",
          "type": "uint256"
        },
        {
          "indexed": false,
          "internalType": "bool",
          "name": "sold",
          "type": "bool"
        }
      ],
      "name": "MarketItemCreated",
      "type": "event"
    },
    {
      "anonymous": false,
      "inputs": [
        {
          "indexed": true,
          "internalType": "uint256",
          "name": "itemId",
          "type": "uint256"
        },
        {
          "indexed": false,
          "internalType": "address",
          "name": "owner",
          "type": "address"
        }
      ],
      "name": "MarketItemSold",
      "type": "event"
    },
    {
      "anonymous": false,
      "inputs": [
        {
          "indexed": true,
          "internalType": "uint256",
          "name": "fee",
          "type": "uint256"
        }
      ],
      "name": "feeCalculate",
      "type": "event"
    },
    {
      "inputs": [
        {
          "internalType": "uint256",
          "name": "amount",
          "type": "uint256"
        },
        {
          "internalType": "uint256",
          "name": "tier",
          "type": "uint256"
        }
      ],
      "name": "calculateFee",
      "outputs": [
        {
          "internalType": "uint256",
          "name": "result",
          "type": "uint256"
        }
      ],
      "stateMutability": "view",
      "type": "function"
    },
    {
      "inputs": [
        {
          "internalType": "address",
          "name": "nftContract",
          "type": "address"
        },
        {
          "internalType": "uint256[]",
          "name": "ids",
          "type": "uint256[]"
        },
        {
          "internalType": "uint256[]",
          "name": "amounts",
          "type": "uint256[]"
        },
        {
          "internalType": "uint256",
          "name": "price",
          "type": "uint256"
        }
      ],
      "name": "createMarketItem",
      "outputs": [],
      "stateMutability": "payable",
      "type": "function"
    },
    {
      "inputs": [
        {
          "internalType": "address",
          "name": "nftContract",
          "type": "address"
        },
        {
          "internalType": "uint256",
          "name": "itemId",
          "type": "uint256"
        }
      ],
      "name": "createMarketSale",
      "outputs": [],
      "stateMutability": "payable",
      "type": "function"
    },
    {
      "inputs": [],
      "name": "fetchMarketItems",
      "outputs": [
        {
          "components": [
            {
              "internalType": "uint256",
              "name": "itemId",
              "type": "uint256"
            },
            {
              "internalType": "address",
              "name": "nftContract",
              "type": "address"
            },
            {
              "internalType": "uint256[]",
              "name": "ids",
              "type": "uint256[]"
            },
            {
              "internalType": "uint256[]",
              "name": "amounts",
              "type": "uint256[]"
            },
            {
              "internalType": "address payable",
              "name": "seller",
              "type": "address"
            },
            {
              "internalType": "address payable",
              "name": "owner",
              "type": "address"
            },
            {
              "internalType": "uint256",
              "name": "price",
              "type": "uint256"
            },
            {
              "internalType": "bool",
              "name": "sold",
              "type": "bool"
            }
          ],
          "internalType": "struct Marketplace.MarketItem[]",
          "name": "",
          "type": "tuple[]"
        }
      ],
      "stateMutability": "view",
      "type": "function"
    },
    {
      "inputs": [
        {
          "internalType": "address",
          "name": "",
          "type": "address"
        },
        {
          "internalType": "address",
          "name": "",
          "type": "address"
        },
        {
          "internalType": "uint256[]",
          "name": "",
          "type": "uint256[]"
        },
        {
          "internalType": "uint256[]",
          "name": "",
          "type": "uint256[]"
        },
        {
          "internalType": "bytes",
          "name": "",
          "type": "bytes"
        }
      ],
      "name": "onERC1155BatchReceived",
      "outputs": [
        {
          "internalType": "bytes4",
          "name": "",
          "type": "bytes4"
        }
      ],
      "stateMutability": "nonpayable",
      "type": "function"
    },
    {
      "inputs": [
        {
          "internalType": "address",
          "name": "",
          "type": "address"
        },
        {
          "internalType": "address",
          "name": "",
          "type": "address"
        },
        {
          "internalType": "uint256",
          "name": "",
          "type": "uint256"
        },
        {
          "internalType": "uint256",
          "name": "",
          "type": "uint256"
        },
        {
          "internalType": "bytes",
          "name": "",
          "type": "bytes"
        }
      ],
      "name": "onERC1155Received",
      "outputs": [
        {
          "internalType": "bytes4",
          "name": "",
          "type": "bytes4"
        }
      ],
      "stateMutability": "nonpayable",
      "type": "function"
    },
    {
      "inputs": [],
      "name": "owner",
      "outputs": [
        {
          "internalType": "address",
          "name": "",
          "type": "address"
        }
      ],
      "stateMutability": "view",
      "type": "function"
    },
    {
      "inputs": [
        {
          "internalType": "bytes4",
          "name": "interfaceId",
          "type": "bytes4"
        }
      ],
      "name": "supportsInterface",
      "outputs": [
        {
          "internalType": "bool",
          "name": "",
          "type": "bool"
        }
      ],
      "stateMutability": "view",
      "type": "function"
    },
    {
      "inputs": [],
      "name": "test",
      "outputs": [
        {
          "internalType": "uint256",
          "name": "",
          "type": "uint256"
        }
      ],
      "stateMutability": "view",
      "type": "function"
    },
    {
      "inputs": [
        {
          "internalType": "uint256",
          "name": "",
          "type": "uint256"
        }
      ],
      "name": "tierFee",
      "outputs": [
        {
          "internalType": "uint256",
          "name": "",
          "type": "uint256"
        }
      ],
      "stateMutability": "view",
      "type": "function"
    },
    {
      "inputs": [],
      "name": "withdraw",
      "outputs": [],
      "stateMutability": "nonpayable",
      "type": "function"
    }
  ],
  "bytecode": "0x6080604052600660045534801561001557600080fd5b5060016000908155600380546001600160a01b03191633179055600560208190526101f47f05b8ccbb9d4d8fb16ea74ce3c29a41f1b461fbdaff4714a0d9a8eb05499746bc8190557f1471eb6eb2c5e789fc3de43f8ce62938c7d1836ec861730447e2ada8fd81017b8190557f89832631fb3c3307a103ba2c84ab569c64d6182a18893dcd163f0f1c2090733a81905560fa7fa9bc9a3a348c357ba16b37005d7e6b3236198c0e939f4af8c5f19b8deeb8ebc0557f3eec716f11ba9e820c81ca75eb978ffb45831ef8b7a53e5e422c26008e1ca6d581905591527f458b30c2d72bfd2c6317304a4594ecbafe5f729d3111b65fdc3a33bd48e5432d55611443806101206000396000f3fe6080604052600436106100bc5760003560e01c80637cc5da0011610074578063c23b139e1161004e578063c23b139e1461024b578063f23a6e611461025e578063f8a8fd6d146102a357600080fd5b80637cc5da001461018a5780638da5cb5b1461019d578063bc197c81146101d557600080fd5b806334e73122116100a557806334e73122146101185780633ccfd60b146101465780635613e09f1461015d57600080fd5b806301ffc9a7146100c15780630f08efe0146100f6575b600080fd5b3480156100cd57600080fd5b506100e16100dc36600461109f565b6102b8565b60405190151581526020015b60405180910390f35b34801561010257600080fd5b5061010b610351565b6040516100ed91906111b2565b34801561012457600080fd5b506101386101333660046110fa565b6105e1565b6040519081526020016100ed565b34801561015257600080fd5b5061015b61060f565b005b34801561016957600080fd5b506101386101783660046110e1565b60056020526000908152604090205481565b61015b610198366004610ff9565b6106aa565b3480156101a957600080fd5b506003546101bd906001600160a01b031681565b6040516001600160a01b0390911681526020016100ed565b3480156101e157600080fd5b5061021a6101f0366004610eea565b7fbc197c810000000000000000000000000000000000000000000000000000000095945050505050565b6040517fffffffff0000000000000000000000000000000000000000000000000000000090911681526020016100ed565b61015b610259366004611075565b610974565b34801561026a57600080fd5b5061021a610279366004610f94565b7ff23a6e610000000000000000000000000000000000000000000000000000000095945050505050565b3480156102af57600080fd5b50610138610d62565b60007fffffffff0000000000000000000000000000000000000000000000000000000082167f4e2312e000000000000000000000000000000000000000000000000000000000148061034b57507f01ffc9a7000000000000000000000000000000000000000000000000000000007fffffffff000000000000000000000000000000000000000000000000000000008316145b92915050565b6060600061035e60015490565b9050600061036b60025490565b6001546103789190611399565b90506000808267ffffffffffffffff811115610396576103966113f7565b60405190808252806020026020018201604052801561042c57816020015b6104196040518061010001604052806000815260200160006001600160a01b03168152602001606081526020016060815260200160006001600160a01b0316815260200160006001600160a01b03168152602001600081526020016000151581525090565b8152602001906001900390816103b45790505b50905060005b848110156105d857600060068161044a846001611340565b81526020810191909152604001600020600501546001600160a01b031614156105c657600061047a826001611340565b6000818152600660209081526040918290208251610100810184528154815260018201546001600160a01b031681840152600282018054855181860281018601875281815296975092959194869490860193908301828280156104fc57602002820191906000526020600020905b8154815260200190600101908083116104e8575b505050505081526020016003820180548060200260200160405190810160405280929190818152602001828054801561055457602002820191906000526020600020905b815481526020019060010190808311610540575b505050918352505060048201546001600160a01b03908116602083015260058301541660408201526006820154606082015260079091015460ff16151560809091015284518590879081106105ab576105ab6113e1565b60209081029190910101526105c1600186611340565b945050505b806105d0816113b0565b915050610432565b50949350505050565b600081815260056020526040812054612710906105fe908561137a565b6106089190611358565b9392505050565b6003546001600160a01b0316331461066e5760405162461bcd60e51b815260206004820152601160248201527f596f7520617265206e6f74206f776e657200000000000000000000000000000060448201526064015b60405180910390fd5b6003546040516001600160a01b03909116904780156108fc02916000818181858888f193505050501580156106a7573d6000803e3d6000fd5b50565b600260005414156106fd5760405162461bcd60e51b815260206004820152601f60248201527f5265656e7472616e637947756172643a207265656e7472616e742063616c6c006044820152606401610665565b600260005561271081116107535760405162461bcd60e51b815260206004820181905260248201527f5072696365206d7573742062652067726561746572207468616e2031303030306044820152606401610665565b610761600180546001019055565b600061076c60015490565b60408051610100810182528281526001600160a01b0388811660208084019182528385018a8152606085018a9052336080860152600060a0860181905260c086018a905260e0860181905287815260068352959095208451815591516001830180547fffffffffffffffffffffffff00000000000000000000000000000000000000001691909416179092559251805194955091936108119260028501920190610d78565b506060820151805161082d916003840191602090910190610d78565b506080820151600482810180547fffffffffffffffffffffffff00000000000000000000000000000000000000009081166001600160a01b039485161790915560a085015160058501805490921690841617905560c0840151600684015560e0909301516007909201805460ff1916921515929092179091556040517f2eb2c2d600000000000000000000000000000000000000000000000000000000815290871691632eb2c2d6916108e891339130918a918a9101611157565b600060405180830381600087803b15801561090257600080fd5b505af1158015610916573d6000803e3d6000fd5b50505050846001600160a01b0316817f97561f57d46c17389aa0b59765ed7303d385759a04a6596ed33f9547a01064a98686336000886000604051610960969594939291906112b9565b60405180910390a350506001600055505050565b600260005414156109c75760405162461bcd60e51b815260206004820152601f60248201527f5265656e7472616e637947756172643a207265656e7472616e742063616c6c006044820152606401610665565b6002600090815581815260066020818152604080842092830154600390930180548251818502810185019093528083529394939192909190830182828015610a2e57602002820191906000526020600020905b815481526020019060010190808311610a1a575b50505050509050600060066000858152602001908152602001600020600201805480602002602001604051908101604052809291908181526020018280548015610a9757602002820191906000526020600020905b815481526020019060010190808311610a83575b5050506000878152600660205260409020600701549293505060ff9091169050348414610b2e576040805162461bcd60e51b81526020600482015260248101919091527f506c65617365207375626d6974207468652061736b696e67207072696365206960448201527f6e206f7264657220746f20636f6d706c657465207468652070757263686173656064820152608401610665565b60018115151415610b815760405162461bcd60e51b815260206004820152601e60248201527f546869732053616c652068617320616c726564792066696e6e697368656400006044820152606401610665565b60405133815285907f2073b2706c235effb1e3840575370a51749afd8181b4018f93bff955d50792cb9060200160405180910390a26000610bc38560006105e1565b90506000610bd28660036105e1565b9050600081610be284600561137a565b610bec9190611340565b90506000610bfa8234611399565b60405190915082907f24d85b3328e0e52c76fc3a0ff05d749ec6e794ebef139357851a09ece0afac3c90600090a26040517f2eb2c2d60000000000000000000000000000000000000000000000000000000081526001600160a01b038b1690632eb2c2d690610c7390309033908b908d90600401611157565b600060405180830381600087803b158015610c8d57600080fd5b505af1158015610ca1573d6000803e3d6000fd5b50505060008a8152600660205260408082206004015490516001600160a01b03909116925083156108fc0291849190818181858888f19350505050158015610ced573d6000803e3d6000fd5b50600089815260066020526040902060050180547fffffffffffffffffffffffff00000000000000000000000000000000000000001633179055610d35600280546001019055565b505050600095865250506006602052505060408220600701805460ff191660019081179091559091555050565b60008061034b670de0b6b3a764000060006105e1565b828054828255906000526020600020908101928215610db3579160200282015b82811115610db3578251825591602001919060010190610d98565b50610dbf929150610dc3565b5090565b5b80821115610dbf5760008155600101610dc4565b80356001600160a01b0381168114610def57600080fd5b919050565b600082601f830112610e0557600080fd5b8135602067ffffffffffffffff821115610e2157610e216113f7565b8160051b610e3082820161130f565b838152828101908684018388018501891015610e4b57600080fd5b600093505b85841015610e6e578035835260019390930192918401918401610e50565b50979650505050505050565b600082601f830112610e8b57600080fd5b813567ffffffffffffffff811115610ea557610ea56113f7565b610eb86020601f19601f8401160161130f565b818152846020838601011115610ecd57600080fd5b816020850160208301376000918101602001919091529392505050565b600080600080600060a08688031215610f0257600080fd5b610f0b86610dd8565b9450610f1960208701610dd8565b9350604086013567ffffffffffffffff80821115610f3657600080fd5b610f4289838a01610df4565b94506060880135915080821115610f5857600080fd5b610f6489838a01610df4565b93506080880135915080821115610f7a57600080fd5b50610f8788828901610e7a565b9150509295509295909350565b600080600080600060a08688031215610fac57600080fd5b610fb586610dd8565b9450610fc360208701610dd8565b93506040860135925060608601359150608086013567ffffffffffffffff811115610fed57600080fd5b610f8788828901610e7a565b6000806000806080858703121561100f57600080fd5b61101885610dd8565b9350602085013567ffffffffffffffff8082111561103557600080fd5b61104188838901610df4565b9450604087013591508082111561105757600080fd5b5061106487828801610df4565b949793965093946060013593505050565b6000806040838503121561108857600080fd5b61109183610dd8565b946020939093013593505050565b6000602082840312156110b157600080fd5b81357fffffffff000000000000000000000000000000000000000000000000000000008116811461060857600080fd5b6000602082840312156110f357600080fd5b5035919050565b6000806040838503121561110d57600080fd5b50508035926020909101359150565b600081518084526020808501945080840160005b8381101561114c57815187529582019590820190600101611130565b509495945050505050565b60006001600160a01b03808716835280861660208401525060a0604083015261118360a083018561111c565b8281036060840152611195818561111c565b838103608090940193909352505060008152602001949350505050565b60006020808301818452808551808352604092508286019150828160051b87010184880160005b838110156112ab577fffffffffffffffffffffffffffffffffffffffffffffffffffffffffffffffc08984030185528151610100815185526001600160a01b038983015116898601528782015181898701526112378287018261111c565b91505060608083015186830382880152611251838261111c565b9250505060808083015161126f828801826001600160a01b03169052565b505060a0828101516001600160a01b03169086015260c0808301519086015260e0918201511515919094015293860193908601906001016111d9565b509098975050505050505050565b60c0815260006112cc60c083018961111c565b82810360208401526112de818961111c565b6001600160a01b039788166040850152959096166060830152506080810192909252151560a0909101529392505050565b604051601f8201601f1916810167ffffffffffffffff81118282101715611338576113386113f7565b604052919050565b60008219821115611353576113536113cb565b500190565b60008261137557634e487b7160e01b600052601260045260246000fd5b500490565b6000816000190483118215151615611394576113946113cb565b500290565b6000828210156113ab576113ab6113cb565b500390565b60006000198214156113c4576113c46113cb565b5060010190565b634e487b7160e01b600052601160045260246000fd5b634e487b7160e01b600052603260045260246000fd5b634e487b7160e01b600052604160045260246000fdfea2646970667358221220d5760642cdf3913d0c26a726319d0765af00d755e56a0d102fe83b277ce34fc664736f6c63430008070033",
  "linkReferences": {},
  "deployedLinkReferences": {}
}