{
  "_format": "hh-sol-artifact-1",
  "contractName": "marketPlaceBoilerPlate",
  "sourceName": "contracts/marketplace.sol",
  "abi": [
    {
      "inputs": [],
      "stateMutability": "nonpayable",
      "type": "constructor"
    },
    {
      "anonymous": false,
      "inputs": [
        {
          "indexed": true,
          "internalType": "uint256",
          "name": "itemId",
          "type": "uint256"
        },
        {
          "indexed": true,
          "internalType": "address",
          "name": "nftContract",
          "type": "address"
        },
        {
          "indexed": false,
          "internalType": "uint256",
          "name": "amount",
          "type": "uint256"
        },
        {
          "indexed": false,
          "internalType": "address",
          "name": "seller",
          "type": "address"
        },
        {
          "indexed": false,
          "internalType": "address",
          "name": "owner",
          "type": "address"
        },
        {
          "indexed": false,
          "internalType": "uint256",
          "name": "price",
          "type": "uint256"
        },
        {
          "indexed": false,
          "internalType": "bool",
          "name": "sold",
          "type": "bool"
        }
      ],
      "name": "MarketItemCreated",
      "type": "event"
    },
    {
      "anonymous": false,
      "inputs": [
        {
          "indexed": true,
          "internalType": "uint256",
          "name": "itemId",
          "type": "uint256"
        },
        {
          "indexed": false,
          "internalType": "address",
          "name": "owner",
          "type": "address"
        }
      ],
      "name": "MarketItemSold",
      "type": "event"
    },
    {
      "anonymous": false,
      "inputs": [
        {
          "indexed": false,
          "internalType": "uint256",
          "name": "tierA",
          "type": "uint256"
        },
        {
          "indexed": false,
          "internalType": "uint256",
          "name": "tierB",
          "type": "uint256"
        },
        {
          "indexed": false,
          "internalType": "uint256",
          "name": "tierC",
          "type": "uint256"
        },
        {
          "indexed": false,
          "internalType": "uint256",
          "name": "tierD",
          "type": "uint256"
        }
      ],
      "name": "feeCalculate",
      "type": "event"
    },
    {
      "inputs": [
        {
          "internalType": "uint256",
          "name": "amount",
          "type": "uint256"
        },
        {
          "internalType": "uint256",
          "name": "tier",
          "type": "uint256"
        }
      ],
      "name": "calculateFee",
      "outputs": [
        {
          "internalType": "uint256",
          "name": "",
          "type": "uint256"
        }
      ],
      "stateMutability": "view",
      "type": "function"
    },
    {
      "inputs": [
        {
          "internalType": "address",
          "name": "nftContract",
          "type": "address"
        },
        {
          "internalType": "uint256",
          "name": "amount",
          "type": "uint256"
        },
        {
          "internalType": "uint256",
          "name": "price",
          "type": "uint256"
        }
      ],
      "name": "createMarketItem",
      "outputs": [],
      "stateMutability": "payable",
      "type": "function"
    },
    {
      "inputs": [
        {
          "internalType": "address",
          "name": "nftContract",
          "type": "address"
        },
        {
          "internalType": "uint256",
          "name": "itemId",
          "type": "uint256"
        }
      ],
      "name": "createMarketSale",
      "outputs": [],
      "stateMutability": "payable",
      "type": "function"
    },
    {
      "inputs": [],
      "name": "fetchMarketItems",
      "outputs": [
        {
          "components": [
            {
              "internalType": "uint256",
              "name": "itemId",
              "type": "uint256"
            },
            {
              "internalType": "address",
              "name": "nftContract",
              "type": "address"
            },
            {
              "internalType": "uint256",
              "name": "amount",
              "type": "uint256"
            },
            {
              "internalType": "address payable",
              "name": "seller",
              "type": "address"
            },
            {
              "internalType": "address payable",
              "name": "owner",
              "type": "address"
            },
            {
              "internalType": "uint256",
              "name": "price",
              "type": "uint256"
            },
            {
              "internalType": "bool",
              "name": "sold",
              "type": "bool"
            }
          ],
          "internalType": "struct marketPlaceBoilerPlate.MarketItem[]",
          "name": "",
          "type": "tuple[]"
        }
      ],
      "stateMutability": "view",
      "type": "function"
    },
    {
      "inputs": [
        {
          "internalType": "address",
          "name": "",
          "type": "address"
        },
        {
          "internalType": "address",
          "name": "",
          "type": "address"
        },
        {
          "internalType": "uint256[]",
          "name": "",
          "type": "uint256[]"
        },
        {
          "internalType": "uint256[]",
          "name": "",
          "type": "uint256[]"
        },
        {
          "internalType": "bytes",
          "name": "",
          "type": "bytes"
        }
      ],
      "name": "onERC1155BatchReceived",
      "outputs": [
        {
          "internalType": "bytes4",
          "name": "",
          "type": "bytes4"
        }
      ],
      "stateMutability": "nonpayable",
      "type": "function"
    },
    {
      "inputs": [
        {
          "internalType": "address",
          "name": "",
          "type": "address"
        },
        {
          "internalType": "address",
          "name": "",
          "type": "address"
        },
        {
          "internalType": "uint256",
          "name": "",
          "type": "uint256"
        },
        {
          "internalType": "uint256",
          "name": "",
          "type": "uint256"
        },
        {
          "internalType": "bytes",
          "name": "",
          "type": "bytes"
        }
      ],
      "name": "onERC1155Received",
      "outputs": [
        {
          "internalType": "bytes4",
          "name": "",
          "type": "bytes4"
        }
      ],
      "stateMutability": "nonpayable",
      "type": "function"
    },
    {
      "inputs": [],
      "name": "owner",
      "outputs": [
        {
          "internalType": "address",
          "name": "",
          "type": "address"
        }
      ],
      "stateMutability": "view",
      "type": "function"
    },
    {
      "inputs": [
        {
          "internalType": "bytes4",
          "name": "interfaceId",
          "type": "bytes4"
        }
      ],
      "name": "supportsInterface",
      "outputs": [
        {
          "internalType": "bool",
          "name": "",
          "type": "bool"
        }
      ],
      "stateMutability": "view",
      "type": "function"
    },
    {
      "inputs": [
        {
          "internalType": "uint256",
          "name": "",
          "type": "uint256"
        }
      ],
      "name": "tierFee",
      "outputs": [
        {
          "internalType": "uint256",
          "name": "",
          "type": "uint256"
        }
      ],
      "stateMutability": "view",
      "type": "function"
    }
  ],
  "bytecode": "0x6080604052600660045534801561001557600080fd5b5060016000908155600380546001600160a01b03191633179055600560208190526101f47f05b8ccbb9d4d8fb16ea74ce3c29a41f1b461fbdaff4714a0d9a8eb05499746bc8190557f1471eb6eb2c5e789fc3de43f8ce62938c7d1836ec861730447e2ada8fd81017b8190557f89832631fb3c3307a103ba2c84ab569c64d6182a18893dcd163f0f1c2090733a81905560fa7fa9bc9a3a348c357ba16b37005d7e6b3236198c0e939f4af8c5f19b8deeb8ebc0557f3eec716f11ba9e820c81ca75eb978ffb45831ef8b7a53e5e422c26008e1ca6d581905591527f458b30c2d72bfd2c6317304a4594ecbafe5f729d3111b65fdc3a33bd48e5432d556110bb806101206000396000f3fe6080604052600436106100965760003560e01c806358eb2df511610069578063bc197c811161004e578063bc197c81146101b4578063c23b139e1461022a578063f23a6e611461023d57600080fd5b806358eb2df51461014d5780638da5cb5b1461016257600080fd5b806301ffc9a71461009b5780630f08efe0146100d057806334e73122146100f25780635613e09f14610120575b600080fd5b3480156100a757600080fd5b506100bb6100b6366004610e69565b610282565b60405190151581526020015b60405180910390f35b3480156100dc57600080fd5b506100e561031b565b6040516100c79190610ee6565b3480156100fe57600080fd5b5061011261010d366004610ec4565b6104ef565b6040519081526020016100c7565b34801561012c57600080fd5b5061011261013b366004610eab565b60056020526000908152604090205481565b61016061015b366004610e36565b61051d565b005b34801561016e57600080fd5b5060035461018f9073ffffffffffffffffffffffffffffffffffffffff1681565b60405173ffffffffffffffffffffffffffffffffffffffff90911681526020016100c7565b3480156101c057600080fd5b506101f96101cf366004610cfd565b7fbc197c810000000000000000000000000000000000000000000000000000000095945050505050565b6040517fffffffff0000000000000000000000000000000000000000000000000000000090911681526020016100c7565b610160610238366004610e0c565b6107f9565b34801561024957600080fd5b506101f9610258366004610da7565b7ff23a6e610000000000000000000000000000000000000000000000000000000095945050505050565b60007fffffffff0000000000000000000000000000000000000000000000000000000082167f4e2312e000000000000000000000000000000000000000000000000000000000148061031557507f01ffc9a7000000000000000000000000000000000000000000000000000000007fffffffff000000000000000000000000000000000000000000000000000000008316145b92915050565b6060600061032860015490565b9050600061033560025490565b6001546103429190611011565b90506000808267ffffffffffffffff8111156103605761036061106f565b6040519080825280602002602001820160405280156103c757816020015b6040805160e08101825260008082526020808301829052928201819052606082018190526080820181905260a0820181905260c0820152825260001990920191018161037e5790505b50905060005b848110156104e65760006006816103e5846001610fb8565b815260208101919091526040016000206004015473ffffffffffffffffffffffffffffffffffffffff1614156104d4576000610422826001610fb8565b600081815260066020818152604092839020835160e08101855281548152600182015473ffffffffffffffffffffffffffffffffffffffff9081169382019390935260028201549481019490945260038101548216606085015260048101549091166080840152600581015460a08401529081015460ff16151560c08301528551929350918590879081106104b9576104b9611059565b60209081029190910101526104cf600186610fb8565b945050505b806104de81611028565b9150506103cd565b50949350505050565b6000818152600560205260408120546127109061050c9085610ff2565b6105169190610fd0565b9392505050565b600260005414156105755760405162461bcd60e51b815260206004820152601f60248201527f5265656e7472616e637947756172643a207265656e7472616e742063616c6c0060448201526064015b60405180910390fd5b600260005561271081116105cb5760405162461bcd60e51b815260206004820181905260248201527f5072696365206d7573742062652067726561746572207468616e203130303030604482015260640161056c565b6105d9600180546001019055565b60006105e460015490565b6040805160e08101825282815273ffffffffffffffffffffffffffffffffffffffff8781166020808401918252838501898152336060860190815260006080870181815260a088018c815260c089018381528b84526006968790529983209851895595516001890180547fffffffffffffffffffffffff0000000000000000000000000000000000000000908116928a1692909217905593516002890155915160038801805485169188169190911790559051600487018054909316951694909417905590516005840155925191909201805460ff19169115159190911790559091505b600454811015610786576040517ff242432a000000000000000000000000000000000000000000000000000000008152336004820152306024820152604481018290526064810185905260a06084820152600060a482015273ffffffffffffffffffffffffffffffffffffffff86169063f242432a9060c401600060405180830381600087803b15801561075b57600080fd5b505af115801561076f573d6000803e3d6000fd5b50505050808061077e90611028565b9150506106c8565b50604080518481523360208201526000818301819052606082018590526080820152905173ffffffffffffffffffffffffffffffffffffffff86169183917f045dfa01dcba2b36aba1d3dc4a874f4b0c5d2fbeb8d2c4b34a7d88c8d8f929d19181900360a00190a3505060016000555050565b6002600054141561084c5760405162461bcd60e51b815260206004820152601f60248201527f5265656e7472616e637947756172643a207265656e7472616e742063616c6c00604482015260640161056c565b6002600081815582815260066020819052604090912060058101549281015491015460ff163483146108e8576040805162461bcd60e51b81526020600482015260248101919091527f506c65617365207375626d6974207468652061736b696e67207072696365206960448201527f6e206f7264657220746f20636f6d706c65746520746865207075726368617365606482015260840161056c565b6001811515141561093b5760405162461bcd60e51b815260206004820152601e60248201527f546869732053616c652068617320616c726564792066696e6e69736865640000604482015260640161056c565b60405133815284907f2073b2706c235effb1e3840575370a51749afd8181b4018f93bff955d50792cb9060200160405180910390a2600061097d8360006104ef565b9050600061098c8460036104ef565b905060008161099c846005610ff2565b6109a69190610fb8565b905060006109b48234611011565b6040805186815260208101879052908101869052606081018590529091507fcf059e4e5c808638c8497b33e4ef02ca78dc8185eb40420a857b5e0b711300859060800160405180910390a160008881526006602052604080822060030154905173ffffffffffffffffffffffffffffffffffffffff9091169184156108fc02918591818181858888f19350505050158015610a53573d6000803e3d6000fd5b5060008881526006602052604080822060030154905173ffffffffffffffffffffffffffffffffffffffff9091169183156108fc02918491818181858888f19350505050158015610aa8573d6000803e3d6000fd5b5060005b600454811015610b6a576040517ff242432a000000000000000000000000000000000000000000000000000000008152306004820152336024820152604481018290526064810188905260a06084820152600060a482015273ffffffffffffffffffffffffffffffffffffffff8b169063f242432a9060c401600060405180830381600087803b158015610b3f57600080fd5b505af1158015610b53573d6000803e3d6000fd5b505050508080610b6290611028565b915050610aac565b50600088815260066020526040902060040180547fffffffffffffffffffffffff00000000000000000000000000000000000000001633179055610bb2600280546001019055565b50505060009485525050600660208190526040842001805460ff19166001908117909155909255505050565b803573ffffffffffffffffffffffffffffffffffffffff81168114610c0257600080fd5b919050565b600082601f830112610c1857600080fd5b8135602067ffffffffffffffff821115610c3457610c3461106f565b8160051b610c43828201610f87565b838152828101908684018388018501891015610c5e57600080fd5b600093505b85841015610c81578035835260019390930192918401918401610c63565b50979650505050505050565b600082601f830112610c9e57600080fd5b813567ffffffffffffffff811115610cb857610cb861106f565b610ccb6020601f19601f84011601610f87565b818152846020838601011115610ce057600080fd5b816020850160208301376000918101602001919091529392505050565b600080600080600060a08688031215610d1557600080fd5b610d1e86610bde565b9450610d2c60208701610bde565b9350604086013567ffffffffffffffff80821115610d4957600080fd5b610d5589838a01610c07565b94506060880135915080821115610d6b57600080fd5b610d7789838a01610c07565b93506080880135915080821115610d8d57600080fd5b50610d9a88828901610c8d565b9150509295509295909350565b600080600080600060a08688031215610dbf57600080fd5b610dc886610bde565b9450610dd660208701610bde565b93506040860135925060608601359150608086013567ffffffffffffffff811115610e0057600080fd5b610d9a88828901610c8d565b60008060408385031215610e1f57600080fd5b610e2883610bde565b946020939093013593505050565b600080600060608486031215610e4b57600080fd5b610e5484610bde565b95602085013595506040909401359392505050565b600060208284031215610e7b57600080fd5b81357fffffffff000000000000000000000000000000000000000000000000000000008116811461051657600080fd5b600060208284031215610ebd57600080fd5b5035919050565b60008060408385031215610ed757600080fd5b50508035926020909101359150565b602080825282518282018190526000919060409081850190868401855b82811015610f7a578151805185528681015173ffffffffffffffffffffffffffffffffffffffff9081168887015286820151878701526060808301518216908701526080808301519091169086015260a0808201519086015260c09081015115159085015260e09093019290850190600101610f03565b5091979650505050505050565b604051601f8201601f1916810167ffffffffffffffff81118282101715610fb057610fb061106f565b604052919050565b60008219821115610fcb57610fcb611043565b500190565b600082610fed57634e487b7160e01b600052601260045260246000fd5b500490565b600081600019048311821515161561100c5761100c611043565b500290565b60008282101561102357611023611043565b500390565b600060001982141561103c5761103c611043565b5060010190565b634e487b7160e01b600052601160045260246000fd5b634e487b7160e01b600052603260045260246000fd5b634e487b7160e01b600052604160045260246000fdfea264697066735822122013b6dd705109363a0d30603c00b8238e3f6e75b93bb984e5b999b03c39f8d77b64736f6c63430008070033",
  "linkReferences": {},
  "deployedLinkReferences": {}
}