{
  "_format": "hh-sol-artifact-1",
  "contractName": "Factory",
  "sourceName": "contracts/Factory.sol",
  "abi": [
    {
      "inputs": [
        {
          "internalType": "address",
          "name": "_marketplaceAddress",
          "type": "address"
        }
      ],
      "stateMutability": "nonpayable",
      "type": "constructor"
    },
    {
      "anonymous": false,
      "inputs": [
        {
          "indexed": false,
          "internalType": "address",
          "name": "owner",
          "type": "address"
        },
        {
          "indexed": false,
          "internalType": "address",
          "name": "tokenContract",
          "type": "address"
        }
      ],
      "name": "ERC1155Created",
      "type": "event"
    },
    {
      "anonymous": false,
      "inputs": [
        {
          "indexed": false,
          "internalType": "address",
          "name": "tokenContract",
          "type": "address"
        },
        {
          "indexed": false,
          "internalType": "uint256",
          "name": "amount",
          "type": "uint256"
        }
      ],
      "name": "ERC1155Minted",
      "type": "event"
    },
    {
      "inputs": [
        {
          "internalType": "string",
          "name": "_contractName",
          "type": "string"
        },
        {
          "internalType": "string[]",
          "name": "uris",
          "type": "string[]"
        },
        {
          "internalType": "bool[]",
          "name": "tiers",
          "type": "bool[]"
        },
        {
          "internalType": "uint256[]",
          "name": "amounts",
          "type": "uint256[]"
        }
      ],
      "name": "deployERC1155",
      "outputs": [
        {
          "internalType": "address",
          "name": "",
          "type": "address"
        }
      ],
      "stateMutability": "payable",
      "type": "function"
    },
    {
      "inputs": [],
      "name": "getAllContract",
      "outputs": [
        {
          "internalType": "contract LeafContract[]",
          "name": "",
          "type": "address[]"
        }
      ],
      "stateMutability": "view",
      "type": "function"
    },
    {
      "inputs": [
        {
          "internalType": "uint256",
          "name": "_index",
          "type": "uint256"
        }
      ],
      "name": "getERC1155byIndexAndId",
      "outputs": [
        {
          "internalType": "address",
          "name": "_contract",
          "type": "address"
        },
        {
          "internalType": "address",
          "name": "_owner",
          "type": "address"
        }
      ],
      "stateMutability": "view",
      "type": "function"
    },
    {
      "inputs": [
        {
          "internalType": "uint256",
          "name": "",
          "type": "uint256"
        }
      ],
      "name": "indexToContract",
      "outputs": [
        {
          "internalType": "address",
          "name": "",
          "type": "address"
        }
      ],
      "stateMutability": "view",
      "type": "function"
    },
    {
      "inputs": [
        {
          "internalType": "uint256",
          "name": "",
          "type": "uint256"
        }
      ],
      "name": "indexToOwner",
      "outputs": [
        {
          "internalType": "address",
          "name": "",
          "type": "address"
        }
      ],
      "stateMutability": "view",
      "type": "function"
    },
    {
      "inputs": [
        {
          "internalType": "uint256",
          "name": "",
          "type": "uint256"
        }
      ],
      "name": "tokens",
      "outputs": [
        {
          "internalType": "contract LeafContract",
          "name": "",
          "type": "address"
        }
      ],
      "stateMutability": "view",
      "type": "function"
    }
  ],
  "bytecode": "0x608060405234801561001057600080fd5b506040516145e03803806145e083398101604081905261002f91610054565b600080546001600160a01b0319166001600160a01b0392909216919091179055610082565b600060208284031215610065578081fd5b81516001600160a01b038116811461007b578182fd5b9392505050565b61454f806100916000396000f3fe6080604052600436106200006d5760003560e01c8063ba535b8e1162000048578063ba535b8e1462000121578063bc5e8437146200015b578063cd78aefb146200017257600080fd5b80634f64b2be14620000725780637f9cd43914620000b4578063811fd2cb14620000fa575b600080fd5b3480156200007f57600080fd5b506200009762000091366004620007fc565b620001ac565b6040516001600160a01b0390911681526020015b60405180910390f35b348015620000c157600080fd5b50620000d9620000d3366004620007fc565b620001d7565b604080516001600160a01b03938416815292909116602083015201620000ab565b3480156200010757600080fd5b5062000112620002b7565b604051620000ab919062000992565b3480156200012e57600080fd5b506200009762000140366004620007fc565b6002602052600090815260409020546001600160a01b031681565b620000976200016c366004620006ce565b6200031b565b3480156200017f57600080fd5b506200009762000191366004620007fc565b6003602052600090815260409020546001600160a01b031681565b60018181548110620001bd57600080fd5b6000918252602090912001546001600160a01b0316905081565b60008060006001848154811062000217577f4e487b7100000000000000000000000000000000000000000000000000000000600052603260045260246000fd5b9060005260206000200160009054906101000a90046001600160a01b0316905080816001600160a01b031663b2bdfa7b6040518163ffffffff1660e01b815260040160206040518083038186803b1580156200027257600080fd5b505afa15801562000287573d6000803e3d6000fd5b505050506040513d601f19601f82011682018060405250810190620002ad91906200069e565b9250925050915091565b606060018054806020026020016040519081016040528092919081815260200182805480156200031157602002820191906000526020600020905b81546001600160a01b03168152600190910190602001808311620002f2575b5050505050905090565b600080546040518291879133916001600160a01b0316906200033d9062000535565b6200034b93929190620009e1565b604051809103906000f08015801562000368573d6000803e3d6000fd5b5060018054808201825560008281527fb10e2d527612073b26eecdfd717e6a320cf44b4afac2b0732d9fcbe2b7fa0cf690910180547fffffffffffffffffffffffff0000000000000000000000000000000000000000166001600160a01b03851617905581549293508392600292620003e19162000a71565b815260200190815260200160002060006101000a8154816001600160a01b0302191690836001600160a01b031602179055503360036000600180805490506200042b919062000a71565b8152602080820192909252604090810160002080547fffffffffffffffffffffffff0000000000000000000000000000000000000000166001600160a01b039485161790558051338152928416918301919091527f7192d7c1a7c7914e1e82105dd5dcd5bdf88dc7eb0c2899d498664be8f0e406c5910160405180910390a16040517f1f089c970000000000000000000000000000000000000000000000000000000081526001600160a01b03821690631f089c9790620004f7903390899089908990600401620008d2565b600060405180830381600087803b1580156200051257600080fd5b505af115801562000527573d6000803e3d6000fd5b509298975050505050505050565b613a3c8062000ade83390190565b600082601f83011262000554578081fd5b813560206200056d620005678362000a4a565b62000a16565b80838252828201915082860187848660051b89010111156200058d578586fd5b855b85811015620005bb5781358015158114620005a8578788fd5b845292840192908401906001016200058f565b5090979650505050505050565b600082601f830112620005d9578081fd5b81356020620005ec620005678362000a4a565b80838252828201915082860187848660051b89010111156200060c578586fd5b855b85811015620005bb578135845292840192908401906001016200060e565b600082601f8301126200063d578081fd5b813567ffffffffffffffff8111156200065a576200065a62000aae565b6200066f6020601f19601f8401160162000a16565b81815284602083860101111562000684578283fd5b816020850160208301379081016020019190915292915050565b600060208284031215620006b0578081fd5b81516001600160a01b0381168114620006c7578182fd5b9392505050565b60008060008060808587031215620006e4578283fd5b843567ffffffffffffffff80821115620006fc578485fd5b6200070a888389016200062c565b955060209150818701358181111562000721578586fd5b8701601f8101891362000732578586fd5b803562000743620005678262000a4a565b8082825285820191508584018c878560051b87010111156200076357898afd5b895b84811015620007a1578135878111156200077d578b8cfd5b6200078d8f8a838a01016200062c565b855250928701929087019060010162000765565b50909850505050604088013592505080821115620007bd578384fd5b620007cb8883890162000543565b93506060870135915080821115620007e1578283fd5b50620007f087828801620005c8565b91505092959194509250565b6000602082840312156200080e578081fd5b5035919050565b6000815180845260208085019450808401835b838110156200084857815115158752958201959082019060010162000828565b509495945050505050565b6000815180845260208085019450808401835b83811015620008485781518752958201959082019060010162000866565b60008151808452815b81811015620008ab576020818501810151868301820152016200088d565b81811115620008bd5782602083870101525b50601f01601f19169290920160200192915050565b6000608082016001600160a01b0387168352602060808185015281875180845260a08601915060a08160051b8701019350828901855b8281101562000958577fffffffffffffffffffffffffffffffffffffffffffffffffffffffffffffff608887030184526200094586835162000884565b9550928401929084019060010162000908565b5050505050828103604084015262000971818662000815565b9050828103606084015262000987818562000853565b979650505050505050565b6020808252825182820181905260009190848201906040850190845b81811015620009d55783516001600160a01b031683529284019291840191600101620009ae565b50909695505050505050565b606081526000620009f6606083018662000884565b6001600160a01b0394851660208401529290931660409091015292915050565b604051601f8201601f1916810167ffffffffffffffff8111828210171562000a425762000a4262000aae565b604052919050565b600067ffffffffffffffff82111562000a675762000a6762000aae565b5060051b60200190565b60008282101562000aa9577f4e487b710000000000000000000000000000000000000000000000000000000081526011600452602481fd5b500390565b7f4e487b7100000000000000000000000000000000000000000000000000000000600052604160045260246000fdfe60806040523480156200001157600080fd5b5060405162003a3c38038062003a3c8339810160408190526200003491620003a9565b6040805160208101909152600081526200004e8162000229565b50825162000064906005906020860190620002e6565b50600a80546001600160a01b0319166001600160a01b0383161790556200008d60008362000242565b6200009a60003362000242565b600a54620000b4906000906001600160a01b031662000242565b600880546001600160a01b0384166001600160a01b0319918216811790925560098054821690921790915560068054909116738a753747a1fa494ec906ce90e9f37563a8af630e1790556040805160208082019283905260008083528052600790525162000144917f6d5257204ebe7d88fd91ae87941cb2dd9d8062b64ae5a2bd2d28ec40b9fbf6df91620002e6565b506040805160208082019283905260008083526001905260079052516200018d917fb39221ace053465ec3453ce2b36430bd138b997ecea25c1043da0c366812b82891620002e6565b50604080516020808201928390526000808352600290526007905251620001d6917fb7c774451310d1be4108bc180d1b52823cb0ee0274a6c0081bcaf94f115fb96d91620002e6565b506040805160208082019283905260008083526003905260079052516200021f917f3be6fd20d5acfde5b873b48692cd31f4d3c7e8ee8a813af4696af8859e5ca6c691620002e6565b50505050620004f9565b80516200023e906002906020840190620002e6565b5050565b60008281526003602090815260408083206001600160a01b038516845290915290205460ff166200023e5760008281526003602090815260408083206001600160a01b03851684529091529020805460ff19166001179055620002a23390565b6001600160a01b0316816001600160a01b0316837f2f8788117e7eff1d82e926ec794901d17c78024a50270940304540a733656f0d60405160405180910390a45050565b828054620002f490620004a6565b90600052602060002090601f01602090048101928262000318576000855562000363565b82601f106200033357805160ff191683800117855562000363565b8280016001018555821562000363579182015b828111156200036357825182559160200191906001019062000346565b506200037192915062000375565b5090565b5b8082111562000371576000815560010162000376565b80516001600160a01b0381168114620003a457600080fd5b919050565b600080600060608486031215620003be578283fd5b83516001600160401b0380821115620003d5578485fd5b818601915086601f830112620003e9578485fd5b815181811115620003fe57620003fe620004e3565b604051601f8201601f19908116603f01168101908382118183101715620004295762000429620004e3565b8160405282815260209350898484870101111562000445578788fd5b8791505b8282101562000468578482018401518183018501529083019062000449565b828211156200047957878484830101525b96506200048b9150508682016200038c565b935050506200049d604085016200038c565b90509250925092565b600181811c90821680620004bb57607f821691505b60208210811415620004dd57634e487b7160e01b600052602260045260246000fd5b50919050565b634e487b7160e01b600052604160045260246000fd5b61353380620005096000396000f3fe608060405234801561001057600080fd5b50600436106101b75760003560e01c80634e1273f4116100f9578063a22cb46511610097578063d547741f11610071578063d547741f146103f6578063e985e9c514610409578063f242432a14610445578063f5298aca1461045857600080fd5b8063a22cb46514610398578063b2bdfa7b146103ab578063bd85b039146103d657600080fd5b8063875e3442116100d3578063875e34421461033c5780638e15f4731461034f57806391d1485414610357578063a217fddf1461039057600080fd5b80634e1273f4146102e75780634f558e79146103075780636b20c4541461032957600080fd5b80631f089c97116101665780632eb2c2d6116101405780632eb2c2d61461029e5780632f2ff15d146102b157806336568abe146102c45780634bf749ac146102d757600080fd5b80631f089c97146102555780631f7fdffa14610268578063248a9ca31461027b57600080fd5b806306fdde031161019757806306fdde031461021a5780630e89341c1461022f5780631a63fdac1461024257600080fd5b806298a44e146101bc578062fdd58e146101d157806301ffc9a7146101f7575b600080fd5b6101cf6101ca366004612e3b565b61046b565b005b6101e46101df366004612e12565b6104ae565b6040519081526020015b60405180910390f35b61020a610205366004612fad565b610557565b60405190151581526020016101ee565b610222610568565b6040516101ee91906131fd565b61022261023d366004612f73565b6105f6565b6101cf610250366004612c15565b6106a3565b6101cf610263366004612c86565b61081f565b6101cf610276366004612d60565b610845565b6101e4610289366004612f73565b60009081526003602052604090206001015490565b6101cf6102ac366004612b0c565b61085c565b6101cf6102bf366004612f8b565b6108f7565b6101cf6102d2366004612f8b565b610921565b6101e46801158e460913d0000081565b6102fa6102f5366004612e6d565b6109ad565b6040516101ee91906131bc565b61020a610315366004612f73565b600090815260046020526040902054151590565b6101cf610337366004612d1b565b610b23565b6101cf61034a366004612f38565b610bbc565b6101e4610d5d565b61020a610365366004612f8b565b60009182526003602090815260408084206001600160a01b0393909316845291905290205460ff1690565b6101e4600081565b6101cf6103a6366004612de9565b610e03565b6009546103be906001600160a01b031681565b6040516001600160a01b0390911681526020016101ee565b6101e46103e4366004612f73565b60009081526004602052604090205490565b6101cf610404366004612f8b565b610e0e565b61020a610417366004612ada565b6001600160a01b03918216600090815260016020908152604080832093909416825291909152205460ff1690565b6101cf610453366004612bb2565b610e33565b6101cf610466366004612e3b565b610ece565b600061047681610f67565b61049184848460405180602001604052806000815250610f74565b600a546104a8906001600160a01b03166001610e03565b50505050565b60006001600160a01b0383166105315760405162461bcd60e51b815260206004820152602b60248201527f455243313135353a2062616c616e636520717565727920666f7220746865207a60448201527f65726f206164647265737300000000000000000000000000000000000000000060648201526084015b60405180910390fd5b506000908152602081815260408083206001600160a01b03949094168352929052205490565b6000610562826110b3565b92915050565b6005805461057590613366565b80601f01602080910402602001604051908101604052809291908181526020018280546105a190613366565b80156105ee5780601f106105c3576101008083540402835291602001916105ee565b820191906000526020600020905b8154815290600101906020018083116105d157829003601f168201915b505050505081565b6060600061060381610f67565b6000838152600760205260409020805461061c90613366565b80601f016020809104026020016040519081016040528092919081815260200182805461064890613366565b80156106955780601f1061066a57610100808354040283529160200191610695565b820191906000526020600020905b81548152906001019060200180831161067857829003601f168201915b505050505091505b50919050565b60006106ae81610f67565b826000815181106106cf57634e487b7160e01b600052603260045260246000fd5b602002602001015115610720576107208460008460008151811061070357634e487b7160e01b600052603260045260246000fd5b602002602001015160405180602001604052806000815250610f74565b8260018151811061074157634e487b7160e01b600052603260045260246000fd5b602002602001015115610775576107758460018460018151811061070357634e487b7160e01b600052603260045260246000fd5b8260028151811061079657634e487b7160e01b600052603260045260246000fd5b6020026020010151156107ca576107ca8460028460028151811061070357634e487b7160e01b600052603260045260246000fd5b826003815181106107eb57634e487b7160e01b600052603260045260246000fd5b602002602001015115610491576104918460038460038151811061070357634e487b7160e01b600052603260045260246000fd5b600061082a81610f67565b61083384610bbc565b61083e8584846106a3565b5050505050565b600061085081610f67565b61083e85858585611109565b6001600160a01b03851633148061087857506108788533610417565b6108ea5760405162461bcd60e51b815260206004820152603260248201527f455243313135353a207472616e736665722063616c6c6572206973206e6f742060448201527f6f776e6572206e6f7220617070726f76656400000000000000000000000000006064820152608401610528565b61083e858585858561132b565b60008281526003602052604090206001015461091281610f67565b61091c83836115f3565b505050565b6001600160a01b038116331461099f5760405162461bcd60e51b815260206004820152602f60248201527f416363657373436f6e74726f6c3a2063616e206f6e6c792072656e6f756e636560448201527f20726f6c657320666f722073656c6600000000000000000000000000000000006064820152608401610528565b6109a98282611695565b5050565b60608151835114610a265760405162461bcd60e51b815260206004820152602960248201527f455243313135353a206163636f756e747320616e6420696473206c656e67746860448201527f206d69736d6174636800000000000000000000000000000000000000000000006064820152608401610528565b6000835167ffffffffffffffff811115610a5057634e487b7160e01b600052604160045260246000fd5b604051908082528060200260200182016040528015610a79578160200160208202803683370190505b50905060005b8451811015610b1b57610ae0858281518110610aab57634e487b7160e01b600052603260045260246000fd5b6020026020010151858381518110610ad357634e487b7160e01b600052603260045260246000fd5b60200260200101516104ae565b828281518110610b0057634e487b7160e01b600052603260045260246000fd5b6020908102919091010152610b14816133c8565b9050610a7f565b509392505050565b6001600160a01b038316331480610b3f5750610b3f8333610417565b610bb15760405162461bcd60e51b815260206004820152602960248201527f455243313135353a2063616c6c6572206973206e6f74206f776e6572206e6f7260448201527f20617070726f76656400000000000000000000000000000000000000000000006064820152608401610528565b61091c838383611718565b6000610bc781610f67565b81600081518110610be857634e487b7160e01b600052603260045260246000fd5b60209081029190910181015160008052600782528051610c2b927f6d5257204ebe7d88fd91ae87941cb2dd9d8062b64ae5a2bd2d28ec40b9fbf6df9201906127f1565b5081600181518110610c4d57634e487b7160e01b600052603260045260246000fd5b6020908102919091018101516001600052600782528051610c91927fb39221ace053465ec3453ce2b36430bd138b997ecea25c1043da0c366812b8289201906127f1565b5081600281518110610cb357634e487b7160e01b600052603260045260246000fd5b6020908102919091018101516002600052600782528051610cf7927fb7c774451310d1be4108bc180d1b52823cb0ee0274a6c0081bcaf94f115fb96d9201906127f1565b5081600381518110610d1957634e487b7160e01b600052603260045260246000fd5b602090810291909101810151600360005260078252805161091c927f3be6fd20d5acfde5b873b48692cd31f4d3c7e8ee8a813af4696af8859e5ca6c69201906127f1565b600080600660009054906101000a90046001600160a01b03166001600160a01b031663feaf968c6040518163ffffffff1660e01b815260040160a06040518083038186803b158015610dae57600080fd5b505afa158015610dc2573d6000803e3d6000fd5b505050506040513d601f19601f82011682018060405250810190610de69190612fe5565b505050915050806402540be400610dfd919061324c565b91505090565b6109a93383836119d1565b600082815260036020526040902060010154610e2981610f67565b61091c8383611695565b6001600160a01b038516331480610e4f5750610e4f8533610417565b610ec15760405162461bcd60e51b815260206004820152602960248201527f455243313135353a2063616c6c6572206973206e6f74206f776e6572206e6f7260448201527f20617070726f76656400000000000000000000000000000000000000000000006064820152608401610528565b61083e8585858585611ac6565b6001600160a01b038316331480610eea5750610eea8333610417565b610f5c5760405162461bcd60e51b815260206004820152602960248201527f455243313135353a2063616c6c6572206973206e6f74206f776e6572206e6f7260448201527f20617070726f76656400000000000000000000000000000000000000000000006064820152608401610528565b61091c838383611caa565b610f718133611e6d565b50565b6001600160a01b038416610ff05760405162461bcd60e51b815260206004820152602160248201527f455243313135353a206d696e7420746f20746865207a65726f2061646472657360448201527f73000000000000000000000000000000000000000000000000000000000000006064820152608401610528565b336000610ffc85611eed565b9050600061100985611eed565b905061101a83600089858589611f46565b6000868152602081815260408083206001600160a01b038b1684529091528120805487929061104a908490613234565b909155505060408051878152602081018790526001600160a01b03808a1692600092918716917fc3d58168c5ae7397731d063d5bbf3d657854427343f4c083240f7aacaa2d0f62910160405180910390a46110aa83600089898989611f54565b50505050505050565b60007fffffffff0000000000000000000000000000000000000000000000000000000082167f7965db0b000000000000000000000000000000000000000000000000000000001480610562575061056282612168565b6001600160a01b0384166111855760405162461bcd60e51b815260206004820152602160248201527f455243313135353a206d696e7420746f20746865207a65726f2061646472657360448201527f73000000000000000000000000000000000000000000000000000000000000006064820152608401610528565b81518351146111fc5760405162461bcd60e51b815260206004820152602860248201527f455243313135353a2069647320616e6420616d6f756e7473206c656e6774682060448201527f6d69736d617463680000000000000000000000000000000000000000000000006064820152608401610528565b3361120c81600087878787611f46565b60005b84518110156112c35783818151811061123857634e487b7160e01b600052603260045260246000fd5b602002602001015160008087848151811061126357634e487b7160e01b600052603260045260246000fd5b602002602001015181526020019081526020016000206000886001600160a01b03166001600160a01b0316815260200190815260200160002060008282546112ab9190613234565b909155508190506112bb816133c8565b91505061120f565b50846001600160a01b031660006001600160a01b0316826001600160a01b03167f4a39dc06d4c0dbc64b70af90fd698a233a518aa5d07e595d983b8c0526c8f7fb87876040516113149291906131cf565b60405180910390a461083e8160008787878761224b565b81518351146113a25760405162461bcd60e51b815260206004820152602860248201527f455243313135353a2069647320616e6420616d6f756e7473206c656e6774682060448201527f6d69736d617463680000000000000000000000000000000000000000000000006064820152608401610528565b6001600160a01b03841661141e5760405162461bcd60e51b815260206004820152602560248201527f455243313135353a207472616e7366657220746f20746865207a65726f20616460448201527f64726573730000000000000000000000000000000000000000000000000000006064820152608401610528565b3361142d818787878787611f46565b60005b845181101561158557600085828151811061145b57634e487b7160e01b600052603260045260246000fd5b60200260200101519050600085838151811061148757634e487b7160e01b600052603260045260246000fd5b602090810291909101810151600084815280835260408082206001600160a01b038e16835290935291909120549091508181101561152d5760405162461bcd60e51b815260206004820152602a60248201527f455243313135353a20696e73756666696369656e742062616c616e636520666f60448201527f72207472616e73666572000000000000000000000000000000000000000000006064820152608401610528565b6000838152602081815260408083206001600160a01b038e8116855292528083208585039055908b1682528120805484929061156a908490613234565b925050819055505050508061157e906133c8565b9050611430565b50846001600160a01b0316866001600160a01b0316826001600160a01b03167f4a39dc06d4c0dbc64b70af90fd698a233a518aa5d07e595d983b8c0526c8f7fb87876040516115d59291906131cf565b60405180910390a46115eb81878787878761224b565b505050505050565b60008281526003602090815260408083206001600160a01b038516845290915290205460ff166109a95760008281526003602090815260408083206001600160a01b03851684529091529020805460ff191660011790556116513390565b6001600160a01b0316816001600160a01b0316837f2f8788117e7eff1d82e926ec794901d17c78024a50270940304540a733656f0d60405160405180910390a45050565b60008281526003602090815260408083206001600160a01b038516845290915290205460ff16156109a95760008281526003602090815260408083206001600160a01b0385168085529252808320805460ff1916905551339285917ff6391f5c32d9c69d2a47ea670b442974b53935d1edc7fd64eb21e047a839171b9190a45050565b6001600160a01b0383166117945760405162461bcd60e51b815260206004820152602360248201527f455243313135353a206275726e2066726f6d20746865207a65726f206164647260448201527f65737300000000000000000000000000000000000000000000000000000000006064820152608401610528565b805182511461180b5760405162461bcd60e51b815260206004820152602860248201527f455243313135353a2069647320616e6420616d6f756e7473206c656e6774682060448201527f6d69736d617463680000000000000000000000000000000000000000000000006064820152608401610528565b600033905061182e81856000868660405180602001604052806000815250611f46565b60005b835181101561196457600084828151811061185c57634e487b7160e01b600052603260045260246000fd5b60200260200101519050600084838151811061188857634e487b7160e01b600052603260045260246000fd5b602090810291909101810151600084815280835260408082206001600160a01b038c16835290935291909120549091508181101561192d5760405162461bcd60e51b8152602060048201526024808201527f455243313135353a206275726e20616d6f756e7420657863656564732062616c60448201527f616e6365000000000000000000000000000000000000000000000000000000006064820152608401610528565b6000928352602083815260408085206001600160a01b038b168652909152909220910390558061195c816133c8565b915050611831565b5060006001600160a01b0316846001600160a01b0316826001600160a01b03167f4a39dc06d4c0dbc64b70af90fd698a233a518aa5d07e595d983b8c0526c8f7fb86866040516119b59291906131cf565b60405180910390a46040805160208101909152600090526104a8565b816001600160a01b0316836001600160a01b03161415611a595760405162461bcd60e51b815260206004820152602960248201527f455243313135353a2073657474696e6720617070726f76616c2073746174757360448201527f20666f722073656c6600000000000000000000000000000000000000000000006064820152608401610528565b6001600160a01b03838116600081815260016020908152604080832094871680845294825291829020805460ff191686151590811790915591519182527f17307eab39ab6107e8899845ad3d59bd9653f200f220920489ca2b5937696c31910160405180910390a3505050565b6001600160a01b038416611b425760405162461bcd60e51b815260206004820152602560248201527f455243313135353a207472616e7366657220746f20746865207a65726f20616460448201527f64726573730000000000000000000000000000000000000000000000000000006064820152608401610528565b336000611b4e85611eed565b90506000611b5b85611eed565b9050611b6b838989858589611f46565b6000868152602081815260408083206001600160a01b038c16845290915290205485811015611c025760405162461bcd60e51b815260206004820152602a60248201527f455243313135353a20696e73756666696369656e742062616c616e636520666f60448201527f72207472616e73666572000000000000000000000000000000000000000000006064820152608401610528565b6000878152602081815260408083206001600160a01b038d8116855292528083208985039055908a16825281208054889290611c3f908490613234565b909155505060408051888152602081018890526001600160a01b03808b16928c821692918816917fc3d58168c5ae7397731d063d5bbf3d657854427343f4c083240f7aacaa2d0f62910160405180910390a4611c9f848a8a8a8a8a611f54565b505050505050505050565b6001600160a01b038316611d265760405162461bcd60e51b815260206004820152602360248201527f455243313135353a206275726e2066726f6d20746865207a65726f206164647260448201527f65737300000000000000000000000000000000000000000000000000000000006064820152608401610528565b336000611d3284611eed565b90506000611d3f84611eed565b9050611d5f83876000858560405180602001604052806000815250611f46565b6000858152602081815260408083206001600160a01b038a16845290915290205484811015611df55760405162461bcd60e51b8152602060048201526024808201527f455243313135353a206275726e20616d6f756e7420657863656564732062616c60448201527f616e6365000000000000000000000000000000000000000000000000000000006064820152608401610528565b6000868152602081815260408083206001600160a01b038b81168086529184528285208a8703905582518b81529384018a90529092908816917fc3d58168c5ae7397731d063d5bbf3d657854427343f4c083240f7aacaa2d0f62910160405180910390a46040805160208101909152600090526110aa565b60008281526003602090815260408083206001600160a01b038516845290915290205460ff166109a957611eab816001600160a01b031660146123b5565b611eb68360206123b5565b604051602001611ec792919061309a565b60408051601f198184030181529082905262461bcd60e51b8252610528916004016131fd565b60408051600180825281830190925260609160009190602080830190803683370190505090508281600081518110611f3557634e487b7160e01b600052603260045260246000fd5b602090810291909101015292915050565b6115eb86868686868661262b565b6001600160a01b0384163b156115eb576040517ff23a6e610000000000000000000000000000000000000000000000000000000081526001600160a01b0385169063f23a6e6190611fb19089908990889088908890600401613179565b602060405180830381600087803b158015611fcb57600080fd5b505af1925050508015611ffb575060408051601f3d908101601f19168201909252611ff891810190612fc9565b60015b6120b15761200761340f565b806308c379a01415612041575061201c613427565b806120275750612043565b8060405162461bcd60e51b815260040161052891906131fd565b505b60405162461bcd60e51b815260206004820152603460248201527f455243313135353a207472616e7366657220746f206e6f6e204552433131353560448201527f526563656976657220696d706c656d656e7465720000000000000000000000006064820152608401610528565b7fffffffff0000000000000000000000000000000000000000000000000000000081167ff23a6e6100000000000000000000000000000000000000000000000000000000146110aa5760405162461bcd60e51b815260206004820152602860248201527f455243313135353a204552433131353552656365697665722072656a6563746560448201527f6420746f6b656e730000000000000000000000000000000000000000000000006064820152608401610528565b60007fffffffff0000000000000000000000000000000000000000000000000000000082167fd9b67a260000000000000000000000000000000000000000000000000000000014806121fb57507fffffffff0000000000000000000000000000000000000000000000000000000082167f0e89341c00000000000000000000000000000000000000000000000000000000145b8061056257507f01ffc9a7000000000000000000000000000000000000000000000000000000007fffffffff00000000000000000000000000000000000000000000000000000000831614610562565b6001600160a01b0384163b156115eb576040517fbc197c810000000000000000000000000000000000000000000000000000000081526001600160a01b0385169063bc197c81906122a8908990899088908890889060040161311b565b602060405180830381600087803b1580156122c257600080fd5b505af19250505080156122f2575060408051601f3d908101601f191682019092526122ef91810190612fc9565b60015b6122fe5761200761340f565b7fffffffff0000000000000000000000000000000000000000000000000000000081167fbc197c8100000000000000000000000000000000000000000000000000000000146110aa5760405162461bcd60e51b815260206004820152602860248201527f455243313135353a204552433131353552656365697665722072656a6563746560448201527f6420746f6b656e730000000000000000000000000000000000000000000000006064820152608401610528565b606060006123c4836002613304565b6123cf906002613234565b67ffffffffffffffff8111156123f557634e487b7160e01b600052604160045260246000fd5b6040519080825280601f01601f19166020018201604052801561241f576020820181803683370190505b5090507f30000000000000000000000000000000000000000000000000000000000000008160008151811061246457634e487b7160e01b600052603260045260246000fd5b60200101907effffffffffffffffffffffffffffffffffffffffffffffffffffffffffffff1916908160001a9053507f7800000000000000000000000000000000000000000000000000000000000000816001815181106124d557634e487b7160e01b600052603260045260246000fd5b60200101907effffffffffffffffffffffffffffffffffffffffffffffffffffffffffffff1916908160001a9053506000612511846002613304565b61251c906001613234565b90505b60018111156125d5577f303132333435363738396162636465660000000000000000000000000000000085600f166010811061256b57634e487b7160e01b600052603260045260246000fd5b1a60f81b82828151811061258f57634e487b7160e01b600052603260045260246000fd5b60200101907effffffffffffffffffffffffffffffffffffffffffffffffffffffffffffff1916908160001a90535060049490941c936125ce8161334f565b905061251f565b5083156126245760405162461bcd60e51b815260206004820181905260248201527f537472696e67733a20686578206c656e67746820696e73756666696369656e746044820152606401610528565b9392505050565b6001600160a01b0385166126ce5760005b83518110156126cc5782818151811061266557634e487b7160e01b600052603260045260246000fd5b60200260200101516004600086848151811061269157634e487b7160e01b600052603260045260246000fd5b6020026020010151815260200190815260200160002060008282546126b69190613234565b909155506126c59050816133c8565b905061263c565b505b6001600160a01b0384166115eb5760005b83518110156110aa57600084828151811061270a57634e487b7160e01b600052603260045260246000fd5b60200260200101519050600084838151811061273657634e487b7160e01b600052603260045260246000fd5b60200260200101519050600060046000848152602001908152602001600020549050818110156127ce5760405162461bcd60e51b815260206004820152602860248201527f455243313135353a206275726e20616d6f756e74206578636565647320746f7460448201527f616c537570706c790000000000000000000000000000000000000000000000006064820152608401610528565b600092835260046020526040909220910390556127ea816133c8565b90506126df565b8280546127fd90613366565b90600052602060002090601f01602090048101928261281f5760008555612865565b82601f1061283857805160ff1916838001178555612865565b82800160010185558215612865579182015b8281111561286557825182559160200191906001019061284a565b50612871929150612875565b5090565b5b808211156128715760008155600101612876565b600067ffffffffffffffff8311156128a4576128a46133f9565b6040516128bb6020601f19601f870116018261339b565b8091508381528484840111156128d057600080fd5b83836020830137600060208583010152509392505050565b80356001600160a01b03811681146128ff57600080fd5b919050565b600082601f830112612914578081fd5b8135602061292182613210565b60405161292e828261339b565b8381528281019150858301600585901b8701840188101561294d578586fd5b855b858110156129725761296082612a91565b8452928401929084019060010161294f565b5090979650505050505050565b600082601f83011261298f578081fd5b8135602061299c82613210565b604080516129aa838261339b565b8481528381019250868401600586901b880185018910156129c9578687fd5b865b86811015612a1c57813567ffffffffffffffff8111156129e9578889fd5b8901603f81018b136129f9578889fd5b612a098b8883013587840161288a565b86525093850193908501906001016129cb565b509098975050505050505050565b600082601f830112612a3a578081fd5b81356020612a4782613210565b604051612a54828261339b565b8381528281019150858301600585901b87018401881015612a73578586fd5b855b8581101561297257813584529284019290840190600101612a75565b803580151581146128ff57600080fd5b600082601f830112612ab1578081fd5b6126248383356020850161288a565b805169ffffffffffffffffffff811681146128ff57600080fd5b60008060408385031215612aec578182fd5b612af5836128e8565b9150612b03602084016128e8565b90509250929050565b600080600080600060a08688031215612b23578081fd5b612b2c866128e8565b9450612b3a602087016128e8565b9350604086013567ffffffffffffffff80821115612b56578283fd5b612b6289838a01612a2a565b94506060880135915080821115612b77578283fd5b612b8389838a01612a2a565b93506080880135915080821115612b98578283fd5b50612ba588828901612aa1565b9150509295509295909350565b600080600080600060a08688031215612bc9578283fd5b612bd2866128e8565b9450612be0602087016128e8565b93506040860135925060608601359150608086013567ffffffffffffffff811115612c09578182fd5b612ba588828901612aa1565b600080600060608486031215612c29578081fd5b612c32846128e8565b9250602084013567ffffffffffffffff80821115612c4e578283fd5b612c5a87838801612904565b93506040860135915080821115612c6f578283fd5b50612c7c86828701612a2a565b9150509250925092565b60008060008060808587031215612c9b578182fd5b612ca4856128e8565b9350602085013567ffffffffffffffff80821115612cc0578384fd5b612ccc8883890161297f565b94506040870135915080821115612ce1578384fd5b612ced88838901612904565b93506060870135915080821115612d02578283fd5b50612d0f87828801612a2a565b91505092959194509250565b600080600060608486031215612d2f578081fd5b612d38846128e8565b9250602084013567ffffffffffffffff80821115612d54578283fd5b612c5a87838801612a2a565b60008060008060808587031215612d75578182fd5b612d7e856128e8565b9350602085013567ffffffffffffffff80821115612d9a578384fd5b612da688838901612a2a565b94506040870135915080821115612dbb578384fd5b612dc788838901612a2a565b93506060870135915080821115612ddc578283fd5b50612d0f87828801612aa1565b60008060408385031215612dfb578182fd5b612e04836128e8565b9150612b0360208401612a91565b60008060408385031215612e24578182fd5b612e2d836128e8565b946020939093013593505050565b600080600060608486031215612e4f578081fd5b612e58846128e8565b95602085013595506040909401359392505050565b60008060408385031215612e7f578182fd5b823567ffffffffffffffff80821115612e96578384fd5b818501915085601f830112612ea9578384fd5b81356020612eb682613210565b604051612ec3828261339b565b8381528281019150858301600585901b870184018b1015612ee2578889fd5b8896505b84871015612f0b57612ef7816128e8565b835260019690960195918301918301612ee6565b5096505086013592505080821115612f21578283fd5b50612f2e85828601612a2a565b9150509250929050565b600060208284031215612f49578081fd5b813567ffffffffffffffff811115612f5f578182fd5b612f6b8482850161297f565b949350505050565b600060208284031215612f84578081fd5b5035919050565b60008060408385031215612f9d578182fd5b82359150612b03602084016128e8565b600060208284031215612fbe578081fd5b8135612624816134cf565b600060208284031215612fda578081fd5b8151612624816134cf565b600080600080600060a08688031215612ffc578283fd5b61300586612ac0565b945060208601519350604086015192506060860151915061302860808701612ac0565b90509295509295909350565b6000815180845260208085019450808401835b8381101561306357815187529582019590820190600101613047565b509495945050505050565b60008151808452613086816020860160208601613323565b601f01601f19169290920160200192915050565b7f416363657373436f6e74726f6c3a206163636f756e74200000000000000000008152600083516130d2816017850160208801613323565b7f206973206d697373696e6720726f6c6520000000000000000000000000000000601791840191820152835161310f816028840160208801613323565b01602801949350505050565b60006001600160a01b03808816835280871660208401525060a0604083015261314760a0830186613034565b82810360608401526131598186613034565b9050828103608084015261316d818561306e565b98975050505050505050565b60006001600160a01b03808816835280871660208401525084604083015283606083015260a060808301526131b160a083018461306e565b979650505050505050565b6020815260006126246020830184613034565b6040815260006131e26040830185613034565b82810360208401526131f48185613034565b95945050505050565b602081526000612624602083018461306e565b600067ffffffffffffffff82111561322a5761322a6133f9565b5060051b60200190565b60008219821115613247576132476133e3565b500190565b60007f7fffffffffffffffffffffffffffffffffffffffffffffffffffffffffffffff8184138284138583048511828216161561328b5761328b6133e3565b7f8000000000000000000000000000000000000000000000000000000000000000848712868205881281841616156132c5576132c56133e3565b8587129250878205871284841616156132e0576132e06133e3565b878505871281841616156132f6576132f66133e3565b505050929093029392505050565b600081600019048311821515161561331e5761331e6133e3565b500290565b60005b8381101561333e578181015183820152602001613326565b838111156104a85750506000910152565b60008161335e5761335e6133e3565b506000190190565b600181811c9082168061337a57607f821691505b6020821081141561069d57634e487b7160e01b600052602260045260246000fd5b601f19601f830116810181811067ffffffffffffffff821117156133c1576133c16133f9565b6040525050565b60006000198214156133dc576133dc6133e3565b5060010190565b634e487b7160e01b600052601160045260246000fd5b634e487b7160e01b600052604160045260246000fd5b600060033d111561342457600481823e5160e01c5b90565b600060443d10156134355790565b6040517ffffffffffffffffffffffffffffffffffffffffffffffffffffffffffffffffc803d016004833e81513d67ffffffffffffffff816024840111818411171561348357505050505090565b828501915081518181111561349b5750505050505090565b843d87010160208285010111156134b55750505050505090565b6134c46020828601018761339b565b509095945050505050565b7fffffffff0000000000000000000000000000000000000000000000000000000081168114610f7157600080fdfea26469706673582212203eaaceed056a8d9271b80788a55f14ea960f87b6f5ca2dc26504a81d9b0ba1e464736f6c63430008040033a2646970667358221220ad133dc44d125918307322d49e5d319879a4c9fb096ab2933e63bff4c7e822f264736f6c63430008040033",
  "linkReferences": {},
  "deployedLinkReferences": {}
}