{
  "_format": "hh-sol-artifact-1",
  "contractName": "UrbanTechNFT",
  "sourceName": "contracts/UrbanTech.sol",
  "abi": [
    {
      "inputs": [
        {
          "internalType": "string",
          "name": "_name",
          "type": "string"
        },
        {
          "internalType": "string",
          "name": "_sym",
          "type": "string"
        }
      ],
      "stateMutability": "nonpayable",
      "type": "constructor"
    },
    {
      "anonymous": false,
      "inputs": [
        {
          "indexed": true,
          "internalType": "address",
          "name": "owner",
          "type": "address"
        },
        {
          "indexed": true,
          "internalType": "address",
          "name": "approved",
          "type": "address"
        },
        {
          "indexed": true,
          "internalType": "uint256",
          "name": "tokenId",
          "type": "uint256"
        }
      ],
      "name": "Approval",
      "type": "event"
    },
    {
      "anonymous": false,
      "inputs": [
        {
          "indexed": true,
          "internalType": "address",
          "name": "owner",
          "type": "address"
        },
        {
          "indexed": true,
          "internalType": "address",
          "name": "operator",
          "type": "address"
        },
        {
          "indexed": false,
          "internalType": "bool",
          "name": "approved",
          "type": "bool"
        }
      ],
      "name": "ApprovalForAll",
      "type": "event"
    },
    {
      "anonymous": false,
      "inputs": [
        {
          "indexed": true,
          "internalType": "address",
          "name": "from",
          "type": "address"
        },
        {
          "indexed": true,
          "internalType": "address",
          "name": "to",
          "type": "address"
        },
        {
          "indexed": true,
          "internalType": "uint256",
          "name": "tokenId",
          "type": "uint256"
        }
      ],
      "name": "Transfer",
      "type": "event"
    },
    {
      "inputs": [
        {
          "internalType": "address",
          "name": "to",
          "type": "address"
        },
        {
          "internalType": "uint256",
          "name": "tokenId",
          "type": "uint256"
        }
      ],
      "name": "approve",
      "outputs": [],
      "stateMutability": "nonpayable",
      "type": "function"
    },
    {
      "inputs": [
        {
          "internalType": "address",
          "name": "owner",
          "type": "address"
        }
      ],
      "name": "balanceOf",
      "outputs": [
        {
          "internalType": "uint256",
          "name": "",
          "type": "uint256"
        }
      ],
      "stateMutability": "view",
      "type": "function"
    },
    {
      "inputs": [
        {
          "internalType": "uint256",
          "name": "tokenId",
          "type": "uint256"
        }
      ],
      "name": "getApproved",
      "outputs": [
        {
          "internalType": "address",
          "name": "",
          "type": "address"
        }
      ],
      "stateMutability": "view",
      "type": "function"
    },
    {
      "inputs": [
        {
          "internalType": "address",
          "name": "owner",
          "type": "address"
        },
        {
          "internalType": "address",
          "name": "operator",
          "type": "address"
        }
      ],
      "name": "isApprovedForAll",
      "outputs": [
        {
          "internalType": "bool",
          "name": "",
          "type": "bool"
        }
      ],
      "stateMutability": "view",
      "type": "function"
    },
    {
      "inputs": [
        {
          "internalType": "string",
          "name": "_tokenURI",
          "type": "string"
        }
      ],
      "name": "mint",
      "outputs": [],
      "stateMutability": "nonpayable",
      "type": "function"
    },
    {
      "inputs": [],
      "name": "name",
      "outputs": [
        {
          "internalType": "string",
          "name": "",
          "type": "string"
        }
      ],
      "stateMutability": "view",
      "type": "function"
    },
    {
      "inputs": [
        {
          "internalType": "uint256",
          "name": "tokenId",
          "type": "uint256"
        }
      ],
      "name": "ownerOf",
      "outputs": [
        {
          "internalType": "address",
          "name": "",
          "type": "address"
        }
      ],
      "stateMutability": "view",
      "type": "function"
    },
    {
      "inputs": [
        {
          "internalType": "address",
          "name": "from",
          "type": "address"
        },
        {
          "internalType": "address",
          "name": "to",
          "type": "address"
        },
        {
          "internalType": "uint256",
          "name": "tokenId",
          "type": "uint256"
        }
      ],
      "name": "safeTransferFrom",
      "outputs": [],
      "stateMutability": "nonpayable",
      "type": "function"
    },
    {
      "inputs": [
        {
          "internalType": "address",
          "name": "from",
          "type": "address"
        },
        {
          "internalType": "address",
          "name": "to",
          "type": "address"
        },
        {
          "internalType": "uint256",
          "name": "tokenId",
          "type": "uint256"
        },
        {
          "internalType": "bytes",
          "name": "_data",
          "type": "bytes"
        }
      ],
      "name": "safeTransferFrom",
      "outputs": [],
      "stateMutability": "nonpayable",
      "type": "function"
    },
    {
      "inputs": [
        {
          "internalType": "address",
          "name": "operator",
          "type": "address"
        },
        {
          "internalType": "bool",
          "name": "approved",
          "type": "bool"
        }
      ],
      "name": "setApprovalForAll",
      "outputs": [],
      "stateMutability": "nonpayable",
      "type": "function"
    },
    {
      "inputs": [
        {
          "internalType": "uint256",
          "name": "tokenId",
          "type": "uint256"
        },
        {
          "internalType": "string",
          "name": "_tokenURI",
          "type": "string"
        }
      ],
      "name": "setTokenURI",
      "outputs": [],
      "stateMutability": "nonpayable",
      "type": "function"
    },
    {
      "inputs": [
        {
          "internalType": "bytes4",
          "name": "interfaceId",
          "type": "bytes4"
        }
      ],
      "name": "supportsInterface",
      "outputs": [
        {
          "internalType": "bool",
          "name": "",
          "type": "bool"
        }
      ],
      "stateMutability": "view",
      "type": "function"
    },
    {
      "inputs": [],
      "name": "symbol",
      "outputs": [
        {
          "internalType": "string",
          "name": "",
          "type": "string"
        }
      ],
      "stateMutability": "view",
      "type": "function"
    },
    {
      "inputs": [
        {
          "internalType": "uint256",
          "name": "tokenId",
          "type": "uint256"
        }
      ],
      "name": "tokenURI",
      "outputs": [
        {
          "internalType": "string",
          "name": "",
          "type": "string"
        }
      ],
      "stateMutability": "view",
      "type": "function"
    },
    {
      "inputs": [
        {
          "internalType": "address",
          "name": "from",
          "type": "address"
        },
        {
          "internalType": "address",
          "name": "to",
          "type": "address"
        },
        {
          "internalType": "uint256",
          "name": "tokenId",
          "type": "uint256"
        }
      ],
      "name": "transferFrom",
      "outputs": [],
      "stateMutability": "nonpayable",
      "type": "function"
    }
  ],
  "bytecode": "0x60806040523480156200001157600080fd5b5060405162002ff738038062002ff7833981810160405281019062000037919062000197565b818181600090805190602001906200005192919062000075565b5080600190805190602001906200006a92919062000075565b50505050506200037a565b82805462000083906200029f565b90600052602060002090601f016020900481019282620000a75760008555620000f3565b82601f10620000c257805160ff1916838001178555620000f3565b82800160010185558215620000f3579182015b82811115620000f2578251825591602001919060010190620000d5565b5b50905062000102919062000106565b5090565b5b808211156200012157600081600090555060010162000107565b5090565b60006200013c620001368462000233565b6200020a565b9050828152602081018484840111156200015557600080fd5b6200016284828562000269565b509392505050565b600082601f8301126200017c57600080fd5b81516200018e84826020860162000125565b91505092915050565b60008060408385031215620001ab57600080fd5b600083015167ffffffffffffffff811115620001c657600080fd5b620001d4858286016200016a565b925050602083015167ffffffffffffffff811115620001f257600080fd5b62000200858286016200016a565b9150509250929050565b60006200021662000229565b9050620002248282620002d5565b919050565b6000604051905090565b600067ffffffffffffffff8211156200025157620002506200033a565b5b6200025c8262000369565b9050602081019050919050565b60005b83811015620002895780820151818401526020810190506200026c565b8381111562000299576000848401525b50505050565b60006002820490506001821680620002b857607f821691505b60208210811415620002cf57620002ce6200030b565b5b50919050565b620002e08262000369565b810181811067ffffffffffffffff821117156200030257620003016200033a565b5b80604052505050565b7f4e487b7100000000000000000000000000000000000000000000000000000000600052602260045260246000fd5b7f4e487b7100000000000000000000000000000000000000000000000000000000600052604160045260246000fd5b6000601f19601f8301169050919050565b612c6d806200038a6000396000f3fe608060405234801561001057600080fd5b50600436106100f55760003560e01c80636352211e11610097578063b88d4fde11610066578063b88d4fde14610282578063c87b56dd1461029e578063d85d3d27146102ce578063e985e9c5146102ea576100f5565b80636352211e146101e857806370a082311461021857806395d89b4114610248578063a22cb46514610266576100f5565b8063095ea7b3116100d3578063095ea7b314610178578063162094c41461019457806323b872dd146101b057806342842e0e146101cc576100f5565b806301ffc9a7146100fa57806306fdde031461012a578063081812fc14610148575b600080fd5b610114600480360381019061010f9190611c85565b61031a565b6040516101219190612120565b60405180910390f35b6101326103fc565b60405161013f919061213b565b60405180910390f35b610162600480360381019061015d9190611d18565b61048e565b60405161016f91906120b9565b60405180910390f35b610192600480360381019061018d9190611c49565b610513565b005b6101ae60048036038101906101a99190611d41565b61062b565b005b6101ca60048036038101906101c59190611b43565b610639565b005b6101e660048036038101906101e19190611b43565b610699565b005b61020260048036038101906101fd9190611d18565b6106b9565b60405161020f91906120b9565b60405180910390f35b610232600480360381019061022d9190611ade565b61076b565b60405161023f919061235d565b60405180910390f35b610250610823565b60405161025d919061213b565b60405180910390f35b610280600480360381019061027b9190611c0d565b6108b5565b005b61029c60048036038101906102979190611b92565b6108cb565b005b6102b860048036038101906102b39190611d18565b61092d565b6040516102c5919061213b565b60405180910390f35b6102e860048036038101906102e39190611cd7565b610a7f565b005b61030460048036038101906102ff9190611b07565b610aaf565b6040516103119190612120565b60405180910390f35b60007f80ac58cd000000000000000000000000000000000000000000000000000000007bffffffffffffffffffffffffffffffffffffffffffffffffffffffff1916827bffffffffffffffffffffffffffffffffffffffffffffffffffffffff191614806103e557507f5b5e139f000000000000000000000000000000000000000000000000000000007bffffffffffffffffffffffffffffffffffffffffffffffffffffffff1916827bffffffffffffffffffffffffffffffffffffffffffffffffffffffff1916145b806103f557506103f482610b43565b5b9050919050565b60606000805461040b906125b3565b80601f0160208091040260200160405190810160405280929190818152602001828054610437906125b3565b80156104845780601f1061045957610100808354040283529160200191610484565b820191906000526020600020905b81548152906001019060200180831161046757829003601f168201915b5050505050905090565b600061049982610bad565b6104d8576040517f08c379a00000000000000000000000000000000000000000000000000000000081526004016104cf906122dd565b60405180910390fd5b6004600083815260200190815260200160002060009054906101000a900473ffffffffffffffffffffffffffffffffffffffff169050919050565b600061051e826106b9565b90508073ffffffffffffffffffffffffffffffffffffffff168373ffffffffffffffffffffffffffffffffffffffff16141561058f576040517f08c379a00000000000000000000000000000000000000000000000000000000081526004016105869061231d565b60405180910390fd5b8073ffffffffffffffffffffffffffffffffffffffff166105ae610c19565b73ffffffffffffffffffffffffffffffffffffffff1614806105dd57506105dc816105d7610c19565b610aaf565b5b61061c576040517f08c379a00000000000000000000000000000000000000000000000000000000081526004016106139061221d565b60405180910390fd5b6106268383610c21565b505050565b6106358282610cda565b5050565b61064a610644610c19565b82610d4e565b610689576040517f08c379a00000000000000000000000000000000000000000000000000000000081526004016106809061233d565b60405180910390fd5b610694838383610e2c565b505050565b6106b4838383604051806020016040528060008152506108cb565b505050565b6000806002600084815260200190815260200160002060009054906101000a900473ffffffffffffffffffffffffffffffffffffffff169050600073ffffffffffffffffffffffffffffffffffffffff168173ffffffffffffffffffffffffffffffffffffffff161415610762576040517f08c379a00000000000000000000000000000000000000000000000000000000081526004016107599061225d565b60405180910390fd5b80915050919050565b60008073ffffffffffffffffffffffffffffffffffffffff168273ffffffffffffffffffffffffffffffffffffffff1614156107dc576040517f08c379a00000000000000000000000000000000000000000000000000000000081526004016107d39061223d565b60405180910390fd5b600360008373ffffffffffffffffffffffffffffffffffffffff1673ffffffffffffffffffffffffffffffffffffffff168152602001908152602001600020549050919050565b606060018054610832906125b3565b80601f016020809104026020016040519081016040528092919081815260200182805461085e906125b3565b80156108ab5780601f10610880576101008083540402835291602001916108ab565b820191906000526020600020905b81548152906001019060200180831161088e57829003601f168201915b5050505050905090565b6108c76108c0610c19565b8383611093565b5050565b6108dc6108d6610c19565b83610d4e565b61091b576040517f08c379a00000000000000000000000000000000000000000000000000000000081526004016109129061233d565b60405180910390fd5b61092784848484611200565b50505050565b606061093882610bad565b610977576040517f08c379a000000000000000000000000000000000000000000000000000000000815260040161096e906122bd565b60405180910390fd5b6000600660008481526020019081526020016000208054610997906125b3565b80601f01602080910402602001604051908101604052809291908181526020018280546109c3906125b3565b8015610a105780601f106109e557610100808354040283529160200191610a10565b820191906000526020600020905b8154815290600101906020018083116109f357829003601f168201915b505050505090506000610a2161125c565b9050600081511415610a37578192505050610a7a565b600082511115610a6c578082604051602001610a54929190612095565b60405160208183030381529060405292505050610a7a565b610a7584611273565b925050505b919050565b6000610a8b600761131a565b9050610a976007611328565b610aa1338261133e565b610aab8183610cda565b5050565b6000600560008473ffffffffffffffffffffffffffffffffffffffff1673ffffffffffffffffffffffffffffffffffffffff16815260200190815260200160002060008373ffffffffffffffffffffffffffffffffffffffff1673ffffffffffffffffffffffffffffffffffffffff16815260200190815260200160002060009054906101000a900460ff16905092915050565b60007f01ffc9a7000000000000000000000000000000000000000000000000000000007bffffffffffffffffffffffffffffffffffffffffffffffffffffffff1916827bffffffffffffffffffffffffffffffffffffffffffffffffffffffff1916149050919050565b60008073ffffffffffffffffffffffffffffffffffffffff166002600084815260200190815260200160002060009054906101000a900473ffffffffffffffffffffffffffffffffffffffff1673ffffffffffffffffffffffffffffffffffffffff1614159050919050565b600033905090565b816004600083815260200190815260200160002060006101000a81548173ffffffffffffffffffffffffffffffffffffffff021916908373ffffffffffffffffffffffffffffffffffffffff160217905550808273ffffffffffffffffffffffffffffffffffffffff16610c94836106b9565b73ffffffffffffffffffffffffffffffffffffffff167f8c5be1e5ebec7d5bd14f71427d1e84f3dd0314c0f7b2291e5b200ac8c7c3b92560405160405180910390a45050565b610ce382610bad565b610d22576040517f08c379a0000000000000000000000000000000000000000000000000000000008152600401610d199061227d565b60405180910390fd5b80600660008481526020019081526020016000209080519060200190610d49929190611902565b505050565b6000610d5982610bad565b610d98576040517f08c379a0000000000000000000000000000000000000000000000000000000008152600401610d8f906121fd565b60405180910390fd5b6000610da3836106b9565b90508073ffffffffffffffffffffffffffffffffffffffff168473ffffffffffffffffffffffffffffffffffffffff161480610de55750610de48185610aaf565b5b80610e2357508373ffffffffffffffffffffffffffffffffffffffff16610e0b8461048e565b73ffffffffffffffffffffffffffffffffffffffff16145b91505092915050565b8273ffffffffffffffffffffffffffffffffffffffff16610e4c826106b9565b73ffffffffffffffffffffffffffffffffffffffff1614610ea2576040517f08c379a0000000000000000000000000000000000000000000000000000000008152600401610e999061217d565b60405180910390fd5b600073ffffffffffffffffffffffffffffffffffffffff168273ffffffffffffffffffffffffffffffffffffffff161415610f12576040517f08c379a0000000000000000000000000000000000000000000000000000000008152600401610f09906121bd565b60405180910390fd5b610f1d83838361135c565b610f28600082610c21565b6001600360008573ffffffffffffffffffffffffffffffffffffffff1673ffffffffffffffffffffffffffffffffffffffff1681526020019081526020016000206000828254610f7891906124c9565b925050819055506001600360008473ffffffffffffffffffffffffffffffffffffffff1673ffffffffffffffffffffffffffffffffffffffff1681526020019081526020016000206000828254610fcf9190612442565b92505081905550816002600083815260200190815260200160002060006101000a81548173ffffffffffffffffffffffffffffffffffffffff021916908373ffffffffffffffffffffffffffffffffffffffff160217905550808273ffffffffffffffffffffffffffffffffffffffff168473ffffffffffffffffffffffffffffffffffffffff167fddf252ad1be2c89b69c2b068fc378daa952ba7f163c4a11628f55a4df523b3ef60405160405180910390a461108e838383611361565b505050565b8173ffffffffffffffffffffffffffffffffffffffff168373ffffffffffffffffffffffffffffffffffffffff161415611102576040517f08c379a00000000000000000000000000000000000000000000000000000000081526004016110f9906121dd565b60405180910390fd5b80600560008573ffffffffffffffffffffffffffffffffffffffff1673ffffffffffffffffffffffffffffffffffffffff16815260200190815260200160002060008473ffffffffffffffffffffffffffffffffffffffff1673ffffffffffffffffffffffffffffffffffffffff16815260200190815260200160002060006101000a81548160ff0219169083151502179055508173ffffffffffffffffffffffffffffffffffffffff168373ffffffffffffffffffffffffffffffffffffffff167f17307eab39ab6107e8899845ad3d59bd9653f200f220920489ca2b5937696c31836040516111f39190612120565b60405180910390a3505050565b61120b848484610e2c565b61121784848484611366565b611256576040517f08c379a000000000000000000000000000000000000000000000000000000000815260040161124d9061215d565b60405180910390fd5b50505050565b606060405180602001604052806000815250905090565b606061127e82610bad565b6112bd576040517f08c379a00000000000000000000000000000000000000000000000000000000081526004016112b4906122fd565b60405180910390fd5b60006112c761125c565b905060008151116112e75760405180602001604052806000815250611312565b806112f1846114fd565b604051602001611302929190612095565b6040516020818303038152906040525b915050919050565b600081600001549050919050565b6001816000016000828254019250508190555050565b6113588282604051806020016040528060008152506116aa565b5050565b505050565b505050565b60006113878473ffffffffffffffffffffffffffffffffffffffff16611705565b156114f0578373ffffffffffffffffffffffffffffffffffffffff1663150b7a026113b0610c19565b8786866040518563ffffffff1660e01b81526004016113d294939291906120d4565b602060405180830381600087803b1580156113ec57600080fd5b505af192505050801561141d57506040513d601f19601f8201168201806040525081019061141a9190611cae565b60015b6114a0573d806000811461144d576040519150601f19603f3d011682016040523d82523d6000602084013e611452565b606091505b50600081511415611498576040517f08c379a000000000000000000000000000000000000000000000000000000000815260040161148f9061215d565b60405180910390fd5b805181602001fd5b63150b7a0260e01b7bffffffffffffffffffffffffffffffffffffffffffffffffffffffff1916817bffffffffffffffffffffffffffffffffffffffffffffffffffffffff1916149150506114f5565b600190505b949350505050565b60606000821415611545576040518060400160405280600181526020017f300000000000000000000000000000000000000000000000000000000000000081525090506116a5565b600082905060005b6000821461157757808061156090612616565b915050600a826115709190612498565b915061154d565b60008167ffffffffffffffff8111156115b9577f4e487b7100000000000000000000000000000000000000000000000000000000600052604160045260246000fd5b6040519080825280601f01601f1916602001820160405280156115eb5781602001600182028036833780820191505090505b5090505b6000851461169e5760018261160491906124c9565b9150600a85611613919061265f565b603061161f9190612442565b60f81b81838151811061165b577f4e487b7100000000000000000000000000000000000000000000000000000000600052603260045260246000fd5b60200101907effffffffffffffffffffffffffffffffffffffffffffffffffffffffffffff1916908160001a905350600a856116979190612498565b94506115ef565b8093505050505b919050565b6116b48383611728565b6116c16000848484611366565b611700576040517f08c379a00000000000000000000000000000000000000000000000000000000081526004016116f79061215d565b60405180910390fd5b505050565b6000808273ffffffffffffffffffffffffffffffffffffffff163b119050919050565b600073ffffffffffffffffffffffffffffffffffffffff168273ffffffffffffffffffffffffffffffffffffffff161415611798576040517f08c379a000000000000000000000000000000000000000000000000000000000815260040161178f9061229d565b60405180910390fd5b6117a181610bad565b156117e1576040517f08c379a00000000000000000000000000000000000000000000000000000000081526004016117d89061219d565b60405180910390fd5b6117ed6000838361135c565b6001600360008473ffffffffffffffffffffffffffffffffffffffff1673ffffffffffffffffffffffffffffffffffffffff168152602001908152602001600020600082825461183d9190612442565b92505081905550816002600083815260200190815260200160002060006101000a81548173ffffffffffffffffffffffffffffffffffffffff021916908373ffffffffffffffffffffffffffffffffffffffff160217905550808273ffffffffffffffffffffffffffffffffffffffff16600073ffffffffffffffffffffffffffffffffffffffff167fddf252ad1be2c89b69c2b068fc378daa952ba7f163c4a11628f55a4df523b3ef60405160405180910390a46118fe60008383611361565b5050565b82805461190e906125b3565b90600052602060002090601f0160209004810192826119305760008555611977565b82601f1061194957805160ff1916838001178555611977565b82800160010185558215611977579182015b8281111561197657825182559160200191906001019061195b565b5b5090506119849190611988565b5090565b5b808211156119a1576000816000905550600101611989565b5090565b60006119b86119b38461239d565b612378565b9050828152602081018484840111156119d057600080fd5b6119db848285612571565b509392505050565b60006119f66119f1846123ce565b612378565b905082815260208101848484011115611a0e57600080fd5b611a19848285612571565b509392505050565b600081359050611a3081612bdb565b92915050565b600081359050611a4581612bf2565b92915050565b600081359050611a5a81612c09565b92915050565b600081519050611a6f81612c09565b92915050565b600082601f830112611a8657600080fd5b8135611a968482602086016119a5565b91505092915050565b600082601f830112611ab057600080fd5b8135611ac08482602086016119e3565b91505092915050565b600081359050611ad881612c20565b92915050565b600060208284031215611af057600080fd5b6000611afe84828501611a21565b91505092915050565b60008060408385031215611b1a57600080fd5b6000611b2885828601611a21565b9250506020611b3985828601611a21565b9150509250929050565b600080600060608486031215611b5857600080fd5b6000611b6686828701611a21565b9350506020611b7786828701611a21565b9250506040611b8886828701611ac9565b9150509250925092565b60008060008060808587031215611ba857600080fd5b6000611bb687828801611a21565b9450506020611bc787828801611a21565b9350506040611bd887828801611ac9565b925050606085013567ffffffffffffffff811115611bf557600080fd5b611c0187828801611a75565b91505092959194509250565b60008060408385031215611c2057600080fd5b6000611c2e85828601611a21565b9250506020611c3f85828601611a36565b9150509250929050565b60008060408385031215611c5c57600080fd5b6000611c6a85828601611a21565b9250506020611c7b85828601611ac9565b9150509250929050565b600060208284031215611c9757600080fd5b6000611ca584828501611a4b565b91505092915050565b600060208284031215611cc057600080fd5b6000611cce84828501611a60565b91505092915050565b600060208284031215611ce957600080fd5b600082013567ffffffffffffffff811115611d0357600080fd5b611d0f84828501611a9f565b91505092915050565b600060208284031215611d2a57600080fd5b6000611d3884828501611ac9565b91505092915050565b60008060408385031215611d5457600080fd5b6000611d6285828601611ac9565b925050602083013567ffffffffffffffff811115611d7f57600080fd5b611d8b85828601611a9f565b9150509250929050565b611d9e816124fd565b82525050565b611dad8161250f565b82525050565b6000611dbe826123ff565b611dc88185612415565b9350611dd8818560208601612580565b611de18161274c565b840191505092915050565b6000611df78261240a565b611e018185612426565b9350611e11818560208601612580565b611e1a8161274c565b840191505092915050565b6000611e308261240a565b611e3a8185612437565b9350611e4a818560208601612580565b80840191505092915050565b6000611e63603283612426565b9150611e6e8261275d565b604082019050919050565b6000611e86602583612426565b9150611e91826127ac565b604082019050919050565b6000611ea9601c83612426565b9150611eb4826127fb565b602082019050919050565b6000611ecc602483612426565b9150611ed782612824565b604082019050919050565b6000611eef601983612426565b9150611efa82612873565b602082019050919050565b6000611f12602c83612426565b9150611f1d8261289c565b604082019050919050565b6000611f35603883612426565b9150611f40826128eb565b604082019050919050565b6000611f58602a83612426565b9150611f638261293a565b604082019050919050565b6000611f7b602983612426565b9150611f8682612989565b604082019050919050565b6000611f9e602e83612426565b9150611fa9826129d8565b604082019050919050565b6000611fc1602083612426565b9150611fcc82612a27565b602082019050919050565b6000611fe4603183612426565b9150611fef82612a50565b604082019050919050565b6000612007602c83612426565b915061201282612a9f565b604082019050919050565b600061202a602f83612426565b915061203582612aee565b604082019050919050565b600061204d602183612426565b915061205882612b3d565b604082019050919050565b6000612070603183612426565b915061207b82612b8c565b604082019050919050565b61208f81612567565b82525050565b60006120a18285611e25565b91506120ad8284611e25565b91508190509392505050565b60006020820190506120ce6000830184611d95565b92915050565b60006080820190506120e96000830187611d95565b6120f66020830186611d95565b6121036040830185612086565b81810360608301526121158184611db3565b905095945050505050565b60006020820190506121356000830184611da4565b92915050565b600060208201905081810360008301526121558184611dec565b905092915050565b6000602082019050818103600083015261217681611e56565b9050919050565b6000602082019050818103600083015261219681611e79565b9050919050565b600060208201905081810360008301526121b681611e9c565b9050919050565b600060208201905081810360008301526121d681611ebf565b9050919050565b600060208201905081810360008301526121f681611ee2565b9050919050565b6000602082019050818103600083015261221681611f05565b9050919050565b6000602082019050818103600083015261223681611f28565b9050919050565b6000602082019050818103600083015261225681611f4b565b9050919050565b6000602082019050818103600083015261227681611f6e565b9050919050565b6000602082019050818103600083015261229681611f91565b9050919050565b600060208201905081810360008301526122b681611fb4565b9050919050565b600060208201905081810360008301526122d681611fd7565b9050919050565b600060208201905081810360008301526122f681611ffa565b9050919050565b600060208201905081810360008301526123168161201d565b9050919050565b6000602082019050818103600083015261233681612040565b9050919050565b6000602082019050818103600083015261235681612063565b9050919050565b60006020820190506123726000830184612086565b92915050565b6000612382612393565b905061238e82826125e5565b919050565b6000604051905090565b600067ffffffffffffffff8211156123b8576123b761271d565b5b6123c18261274c565b9050602081019050919050565b600067ffffffffffffffff8211156123e9576123e861271d565b5b6123f28261274c565b9050602081019050919050565b600081519050919050565b600081519050919050565b600082825260208201905092915050565b600082825260208201905092915050565b600081905092915050565b600061244d82612567565b915061245883612567565b9250827fffffffffffffffffffffffffffffffffffffffffffffffffffffffffffffffff0382111561248d5761248c612690565b5b828201905092915050565b60006124a382612567565b91506124ae83612567565b9250826124be576124bd6126bf565b5b828204905092915050565b60006124d482612567565b91506124df83612567565b9250828210156124f2576124f1612690565b5b828203905092915050565b600061250882612547565b9050919050565b60008115159050919050565b60007fffffffff0000000000000000000000000000000000000000000000000000000082169050919050565b600073ffffffffffffffffffffffffffffffffffffffff82169050919050565b6000819050919050565b82818337600083830152505050565b60005b8381101561259e578082015181840152602081019050612583565b838111156125ad576000848401525b50505050565b600060028204905060018216806125cb57607f821691505b602082108114156125df576125de6126ee565b5b50919050565b6125ee8261274c565b810181811067ffffffffffffffff8211171561260d5761260c61271d565b5b80604052505050565b600061262182612567565b91507fffffffffffffffffffffffffffffffffffffffffffffffffffffffffffffffff82141561265457612653612690565b5b600182019050919050565b600061266a82612567565b915061267583612567565b925082612685576126846126bf565b5b828206905092915050565b7f4e487b7100000000000000000000000000000000000000000000000000000000600052601160045260246000fd5b7f4e487b7100000000000000000000000000000000000000000000000000000000600052601260045260246000fd5b7f4e487b7100000000000000000000000000000000000000000000000000000000600052602260045260246000fd5b7f4e487b7100000000000000000000000000000000000000000000000000000000600052604160045260246000fd5b6000601f19601f8301169050919050565b7f4552433732313a207472616e7366657220746f206e6f6e20455243373231526560008201527f63656976657220696d706c656d656e7465720000000000000000000000000000602082015250565b7f4552433732313a207472616e736665722066726f6d20696e636f72726563742060008201527f6f776e6572000000000000000000000000000000000000000000000000000000602082015250565b7f4552433732313a20746f6b656e20616c7265616479206d696e74656400000000600082015250565b7f4552433732313a207472616e7366657220746f20746865207a65726f2061646460008201527f7265737300000000000000000000000000000000000000000000000000000000602082015250565b7f4552433732313a20617070726f766520746f2063616c6c657200000000000000600082015250565b7f4552433732313a206f70657261746f7220717565727920666f72206e6f6e657860008201527f697374656e7420746f6b656e0000000000000000000000000000000000000000602082015250565b7f4552433732313a20617070726f76652063616c6c6572206973206e6f74206f7760008201527f6e6572206e6f7220617070726f76656420666f7220616c6c0000000000000000602082015250565b7f4552433732313a2062616c616e636520717565727920666f7220746865207a6560008201527f726f206164647265737300000000000000000000000000000000000000000000602082015250565b7f4552433732313a206f776e657220717565727920666f72206e6f6e657869737460008201527f656e7420746f6b656e0000000000000000000000000000000000000000000000602082015250565b7f45524337323155524953746f726167653a2055524920736574206f66206e6f6e60008201527f6578697374656e7420746f6b656e000000000000000000000000000000000000602082015250565b7f4552433732313a206d696e7420746f20746865207a65726f2061646472657373600082015250565b7f45524337323155524953746f726167653a2055524920717565727920666f722060008201527f6e6f6e6578697374656e7420746f6b656e000000000000000000000000000000602082015250565b7f4552433732313a20617070726f76656420717565727920666f72206e6f6e657860008201527f697374656e7420746f6b656e0000000000000000000000000000000000000000602082015250565b7f4552433732314d657461646174613a2055524920717565727920666f72206e6f60008201527f6e6578697374656e7420746f6b656e0000000000000000000000000000000000602082015250565b7f4552433732313a20617070726f76616c20746f2063757272656e74206f776e6560008201527f7200000000000000000000000000000000000000000000000000000000000000602082015250565b7f4552433732313a207472616e736665722063616c6c6572206973206e6f74206f60008201527f776e6572206e6f7220617070726f766564000000000000000000000000000000602082015250565b612be4816124fd565b8114612bef57600080fd5b50565b612bfb8161250f565b8114612c0657600080fd5b50565b612c128161251b565b8114612c1d57600080fd5b50565b612c2981612567565b8114612c3457600080fd5b5056fea264697066735822122005eff29928c65a6a24861960e46e4d2d51bddaec6dbf05aa93d84c1dc7f9504f64736f6c63430008010033",
  "linkReferences": {},
  "deployedLinkReferences": {}
}