{
  "_format": "hh-sol-artifact-1",
  "contractName": "UrbanTechNFT",
  "sourceName": "contracts/UrbanTech.sol",
  "abi": [
    {
      "inputs": [
        {
          "internalType": "string",
          "name": "_name",
          "type": "string"
        },
        {
          "internalType": "string",
          "name": "_sym",
          "type": "string"
        },
        {
          "internalType": "string",
          "name": "_contractURI",
          "type": "string"
        }
      ],
      "stateMutability": "nonpayable",
      "type": "constructor"
    },
    {
      "anonymous": false,
      "inputs": [
        {
          "indexed": true,
          "internalType": "address",
          "name": "owner",
          "type": "address"
        },
        {
          "indexed": true,
          "internalType": "address",
          "name": "approved",
          "type": "address"
        },
        {
          "indexed": true,
          "internalType": "uint256",
          "name": "tokenId",
          "type": "uint256"
        }
      ],
      "name": "Approval",
      "type": "event"
    },
    {
      "anonymous": false,
      "inputs": [
        {
          "indexed": true,
          "internalType": "address",
          "name": "owner",
          "type": "address"
        },
        {
          "indexed": true,
          "internalType": "address",
          "name": "operator",
          "type": "address"
        },
        {
          "indexed": false,
          "internalType": "bool",
          "name": "approved",
          "type": "bool"
        }
      ],
      "name": "ApprovalForAll",
      "type": "event"
    },
    {
      "anonymous": false,
      "inputs": [
        {
          "indexed": true,
          "internalType": "address",
          "name": "previousOwner",
          "type": "address"
        },
        {
          "indexed": true,
          "internalType": "address",
          "name": "newOwner",
          "type": "address"
        }
      ],
      "name": "OwnershipTransferred",
      "type": "event"
    },
    {
      "anonymous": false,
      "inputs": [
        {
          "indexed": true,
          "internalType": "bytes32",
          "name": "role",
          "type": "bytes32"
        },
        {
          "indexed": true,
          "internalType": "bytes32",
          "name": "previousAdminRole",
          "type": "bytes32"
        },
        {
          "indexed": true,
          "internalType": "bytes32",
          "name": "newAdminRole",
          "type": "bytes32"
        }
      ],
      "name": "RoleAdminChanged",
      "type": "event"
    },
    {
      "anonymous": false,
      "inputs": [
        {
          "indexed": true,
          "internalType": "bytes32",
          "name": "role",
          "type": "bytes32"
        },
        {
          "indexed": true,
          "internalType": "address",
          "name": "account",
          "type": "address"
        },
        {
          "indexed": true,
          "internalType": "address",
          "name": "sender",
          "type": "address"
        }
      ],
      "name": "RoleGranted",
      "type": "event"
    },
    {
      "anonymous": false,
      "inputs": [
        {
          "indexed": true,
          "internalType": "bytes32",
          "name": "role",
          "type": "bytes32"
        },
        {
          "indexed": true,
          "internalType": "address",
          "name": "account",
          "type": "address"
        },
        {
          "indexed": true,
          "internalType": "address",
          "name": "sender",
          "type": "address"
        }
      ],
      "name": "RoleRevoked",
      "type": "event"
    },
    {
      "anonymous": false,
      "inputs": [
        {
          "indexed": true,
          "internalType": "address",
          "name": "from",
          "type": "address"
        },
        {
          "indexed": true,
          "internalType": "address",
          "name": "to",
          "type": "address"
        },
        {
          "indexed": true,
          "internalType": "uint256",
          "name": "tokenId",
          "type": "uint256"
        }
      ],
      "name": "Transfer",
      "type": "event"
    },
    {
      "inputs": [],
      "name": "DEFAULT_ADMIN_ROLE",
      "outputs": [
        {
          "internalType": "bytes32",
          "name": "",
          "type": "bytes32"
        }
      ],
      "stateMutability": "view",
      "type": "function"
    },
    {
      "inputs": [
        {
          "internalType": "address",
          "name": "to",
          "type": "address"
        },
        {
          "internalType": "uint256",
          "name": "tokenId",
          "type": "uint256"
        }
      ],
      "name": "approve",
      "outputs": [],
      "stateMutability": "nonpayable",
      "type": "function"
    },
    {
      "inputs": [
        {
          "internalType": "address",
          "name": "owner",
          "type": "address"
        }
      ],
      "name": "balanceOf",
      "outputs": [
        {
          "internalType": "uint256",
          "name": "",
          "type": "uint256"
        }
      ],
      "stateMutability": "view",
      "type": "function"
    },
    {
      "inputs": [
        {
          "internalType": "string[]",
          "name": "_tokenURIs",
          "type": "string[]"
        }
      ],
      "name": "bulkMinting",
      "outputs": [],
      "stateMutability": "nonpayable",
      "type": "function"
    },
    {
      "inputs": [
        {
          "internalType": "uint256",
          "name": "_tokenId",
          "type": "uint256"
        }
      ],
      "name": "burn",
      "outputs": [],
      "stateMutability": "nonpayable",
      "type": "function"
    },
    {
      "inputs": [],
      "name": "contractURI",
      "outputs": [
        {
          "internalType": "string",
          "name": "",
          "type": "string"
        }
      ],
      "stateMutability": "view",
      "type": "function"
    },
    {
      "inputs": [
        {
          "internalType": "uint256",
          "name": "tokenId",
          "type": "uint256"
        }
      ],
      "name": "getApproved",
      "outputs": [
        {
          "internalType": "address",
          "name": "",
          "type": "address"
        }
      ],
      "stateMutability": "view",
      "type": "function"
    },
    {
      "inputs": [
        {
          "internalType": "bytes32",
          "name": "role",
          "type": "bytes32"
        }
      ],
      "name": "getRoleAdmin",
      "outputs": [
        {
          "internalType": "bytes32",
          "name": "",
          "type": "bytes32"
        }
      ],
      "stateMutability": "view",
      "type": "function"
    },
    {
      "inputs": [
        {
          "internalType": "bytes32",
          "name": "role",
          "type": "bytes32"
        },
        {
          "internalType": "address",
          "name": "account",
          "type": "address"
        }
      ],
      "name": "grantRole",
      "outputs": [],
      "stateMutability": "nonpayable",
      "type": "function"
    },
    {
      "inputs": [
        {
          "internalType": "bytes32",
          "name": "role",
          "type": "bytes32"
        },
        {
          "internalType": "address",
          "name": "account",
          "type": "address"
        }
      ],
      "name": "hasRole",
      "outputs": [
        {
          "internalType": "bool",
          "name": "",
          "type": "bool"
        }
      ],
      "stateMutability": "view",
      "type": "function"
    },
    {
      "inputs": [
        {
          "internalType": "address",
          "name": "owner",
          "type": "address"
        },
        {
          "internalType": "address",
          "name": "operator",
          "type": "address"
        }
      ],
      "name": "isApprovedForAll",
      "outputs": [
        {
          "internalType": "bool",
          "name": "",
          "type": "bool"
        }
      ],
      "stateMutability": "view",
      "type": "function"
    },
    {
      "inputs": [
        {
          "internalType": "string",
          "name": "_tokenURI",
          "type": "string"
        }
      ],
      "name": "mint",
      "outputs": [],
      "stateMutability": "nonpayable",
      "type": "function"
    },
    {
      "inputs": [],
      "name": "name",
      "outputs": [
        {
          "internalType": "string",
          "name": "",
          "type": "string"
        }
      ],
      "stateMutability": "view",
      "type": "function"
    },
    {
      "inputs": [],
      "name": "owner",
      "outputs": [
        {
          "internalType": "address",
          "name": "",
          "type": "address"
        }
      ],
      "stateMutability": "view",
      "type": "function"
    },
    {
      "inputs": [
        {
          "internalType": "uint256",
          "name": "tokenId",
          "type": "uint256"
        }
      ],
      "name": "ownerOf",
      "outputs": [
        {
          "internalType": "address",
          "name": "",
          "type": "address"
        }
      ],
      "stateMutability": "view",
      "type": "function"
    },
    {
      "inputs": [],
      "name": "renounceOwnership",
      "outputs": [],
      "stateMutability": "nonpayable",
      "type": "function"
    },
    {
      "inputs": [
        {
          "internalType": "bytes32",
          "name": "role",
          "type": "bytes32"
        },
        {
          "internalType": "address",
          "name": "account",
          "type": "address"
        }
      ],
      "name": "renounceRole",
      "outputs": [],
      "stateMutability": "nonpayable",
      "type": "function"
    },
    {
      "inputs": [
        {
          "internalType": "bytes32",
          "name": "role",
          "type": "bytes32"
        },
        {
          "internalType": "address",
          "name": "account",
          "type": "address"
        }
      ],
      "name": "revokeRole",
      "outputs": [],
      "stateMutability": "nonpayable",
      "type": "function"
    },
    {
      "inputs": [
        {
          "internalType": "address",
          "name": "from",
          "type": "address"
        },
        {
          "internalType": "address",
          "name": "to",
          "type": "address"
        },
        {
          "internalType": "uint256",
          "name": "tokenId",
          "type": "uint256"
        }
      ],
      "name": "safeTransferFrom",
      "outputs": [],
      "stateMutability": "nonpayable",
      "type": "function"
    },
    {
      "inputs": [
        {
          "internalType": "address",
          "name": "from",
          "type": "address"
        },
        {
          "internalType": "address",
          "name": "to",
          "type": "address"
        },
        {
          "internalType": "uint256",
          "name": "tokenId",
          "type": "uint256"
        },
        {
          "internalType": "bytes",
          "name": "_data",
          "type": "bytes"
        }
      ],
      "name": "safeTransferFrom",
      "outputs": [],
      "stateMutability": "nonpayable",
      "type": "function"
    },
    {
      "inputs": [
        {
          "internalType": "address",
          "name": "operator",
          "type": "address"
        },
        {
          "internalType": "bool",
          "name": "approved",
          "type": "bool"
        }
      ],
      "name": "setApprovalForAll",
      "outputs": [],
      "stateMutability": "nonpayable",
      "type": "function"
    },
    {
      "inputs": [
        {
          "internalType": "string",
          "name": "_contractURI",
          "type": "string"
        }
      ],
      "name": "setContractURI",
      "outputs": [],
      "stateMutability": "nonpayable",
      "type": "function"
    },
    {
      "inputs": [
        {
          "internalType": "uint256",
          "name": "tokenId",
          "type": "uint256"
        },
        {
          "internalType": "string",
          "name": "_tokenURI",
          "type": "string"
        }
      ],
      "name": "setTokenURI",
      "outputs": [],
      "stateMutability": "nonpayable",
      "type": "function"
    },
    {
      "inputs": [
        {
          "internalType": "bytes4",
          "name": "interfaceId",
          "type": "bytes4"
        }
      ],
      "name": "supportsInterface",
      "outputs": [
        {
          "internalType": "bool",
          "name": "",
          "type": "bool"
        }
      ],
      "stateMutability": "view",
      "type": "function"
    },
    {
      "inputs": [],
      "name": "symbol",
      "outputs": [
        {
          "internalType": "string",
          "name": "",
          "type": "string"
        }
      ],
      "stateMutability": "view",
      "type": "function"
    },
    {
      "inputs": [
        {
          "internalType": "uint256",
          "name": "tokenId",
          "type": "uint256"
        }
      ],
      "name": "tokenURI",
      "outputs": [
        {
          "internalType": "string",
          "name": "",
          "type": "string"
        }
      ],
      "stateMutability": "view",
      "type": "function"
    },
    {
      "inputs": [
        {
          "internalType": "address",
          "name": "from",
          "type": "address"
        },
        {
          "internalType": "address",
          "name": "to",
          "type": "address"
        },
        {
          "internalType": "uint256",
          "name": "tokenId",
          "type": "uint256"
        }
      ],
      "name": "transferFrom",
      "outputs": [],
      "stateMutability": "nonpayable",
      "type": "function"
    },
    {
      "inputs": [
        {
          "internalType": "address",
          "name": "newOwner",
          "type": "address"
        }
      ],
      "name": "transferOwnership",
      "outputs": [],
      "stateMutability": "nonpayable",
      "type": "function"
    }
  ],
  "bytecode": "0x60806040523480156200001157600080fd5b50604051620046bb380380620046bb83398181016040528101906200003791906200029f565b82828160009080519060200190620000519291906200017d565b5080600190805190602001906200006a9291906200017d565b5050506200008d62000081620000af60201b60201c565b620000b760201b60201c565b80600a9080519060200190620000a59291906200017d565b50505050620004b0565b600033905090565b6000600760009054906101000a900473ffffffffffffffffffffffffffffffffffffffff16905081600760006101000a81548173ffffffffffffffffffffffffffffffffffffffff021916908373ffffffffffffffffffffffffffffffffffffffff1602179055508173ffffffffffffffffffffffffffffffffffffffff168173ffffffffffffffffffffffffffffffffffffffff167f8be0079c531659141344cd1fd0a4f28419497f9722a3daafe3b4186f6b6457e060405160405180910390a35050565b8280546200018b90620003d5565b90600052602060002090601f016020900481019282620001af5760008555620001fb565b82601f10620001ca57805160ff1916838001178555620001fb565b82800160010185558215620001fb579182015b82811115620001fa578251825591602001919060010190620001dd565b5b5090506200020a91906200020e565b5090565b5b80821115620002295760008160009055506001016200020f565b5090565b6000620002446200023e8462000369565b62000340565b9050828152602081018484840111156200025d57600080fd5b6200026a8482856200039f565b509392505050565b600082601f8301126200028457600080fd5b8151620002968482602086016200022d565b91505092915050565b600080600060608486031215620002b557600080fd5b600084015167ffffffffffffffff811115620002d057600080fd5b620002de8682870162000272565b935050602084015167ffffffffffffffff811115620002fc57600080fd5b6200030a8682870162000272565b925050604084015167ffffffffffffffff8111156200032857600080fd5b620003368682870162000272565b9150509250925092565b60006200034c6200035f565b90506200035a82826200040b565b919050565b6000604051905090565b600067ffffffffffffffff82111562000387576200038662000470565b5b62000392826200049f565b9050602081019050919050565b60005b83811015620003bf578082015181840152602081019050620003a2565b83811115620003cf576000848401525b50505050565b60006002820490506001821680620003ee57607f821691505b6020821081141562000405576200040462000441565b5b50919050565b62000416826200049f565b810181811067ffffffffffffffff8211171562000438576200043762000470565b5b80604052505050565b7f4e487b7100000000000000000000000000000000000000000000000000000000600052602260045260246000fd5b7f4e487b7100000000000000000000000000000000000000000000000000000000600052604160045260246000fd5b6000601f19601f8301169050919050565b6141fb80620004c06000396000f3fe608060405234801561001057600080fd5b50600436106101c45760003560e01c80638da5cb5b116100f9578063c841adb011610097578063d85d3d2711610071578063d85d3d27146104eb578063e8a3d48514610507578063e985e9c514610525578063f2fde38b14610555576101c4565b8063c841adb014610483578063c87b56dd1461049f578063d547741f146104cf576101c4565b806395d89b41116100d357806395d89b411461040f578063a217fddf1461042d578063a22cb4651461044b578063b88d4fde14610467576101c4565b80638da5cb5b146103a557806391d14854146103c3578063938e3d7b146103f3576101c4565b80632f2ff15d1161016657806342966c681161014057806342966c681461031f5780636352211e1461033b57806370a082311461036b578063715018a61461039b576101c4565b80632f2ff15d146102cb57806336568abe146102e757806342842e0e14610303576101c4565b8063095ea7b3116101a2578063095ea7b314610247578063162094c41461026357806323b872dd1461027f578063248a9ca31461029b576101c4565b806301ffc9a7146101c957806306fdde03146101f9578063081812fc14610217575b600080fd5b6101e360048036038101906101de9190612e4a565b610571565b6040516101f09190613400565b60405180910390f35b610201610583565b60405161020e9190613436565b60405180910390f35b610231600480360381019061022c9190612edd565b610615565b60405161023e9190613399565b60405180910390f35b610261600480360381019061025c9190612d68565b61069a565b005b61027d60048036038101906102789190612f06565b6107b2565b005b61029960048036038101906102949190612c62565b61083c565b005b6102b560048036038101906102b09190612de5565b61089c565b6040516102c2919061341b565b60405180910390f35b6102e560048036038101906102e09190612e0e565b6108bc565b005b61030160048036038101906102fc9190612e0e565b6108dd565b005b61031d60048036038101906103189190612c62565b610960565b005b61033960048036038101906103349190612edd565b610980565b005b61035560048036038101906103509190612edd565b610a08565b6040516103629190613399565b60405180910390f35b61038560048036038101906103809190612bfd565b610aba565b60405161039291906136d8565b60405180910390f35b6103a3610b72565b005b6103ad610bfa565b6040516103ba9190613399565b60405180910390f35b6103dd60048036038101906103d89190612e0e565b610c24565b6040516103ea9190613400565b60405180910390f35b61040d60048036038101906104089190612e9c565b610c8f565b005b610417610d25565b6040516104249190613436565b60405180910390f35b610435610db7565b604051610442919061341b565b60405180910390f35b61046560048036038101906104609190612d2c565b610dbe565b005b610481600480360381019061047c9190612cb1565b610dd4565b005b61049d60048036038101906104989190612da4565b610e36565b005b6104b960048036038101906104b49190612edd565b610ec9565b6040516104c69190613436565b60405180910390f35b6104e960048036038101906104e49190612e0e565b61101b565b005b61050560048036038101906105009190612e9c565b61103c565b005b61050f61106c565b60405161051c9190613436565b60405180910390f35b61053f600480360381019061053a9190612c26565b6110fa565b60405161054c9190613400565b60405180910390f35b61056f600480360381019061056a9190612bfd565b61118e565b005b600061057c82611286565b9050919050565b606060008054610592906139e8565b80601f01602080910402602001604051908101604052809291908181526020018280546105be906139e8565b801561060b5780601f106105e05761010080835404028352916020019161060b565b820191906000526020600020905b8154815290600101906020018083116105ee57829003601f168201915b5050505050905090565b600061062082611300565b61065f576040517f08c379a000000000000000000000000000000000000000000000000000000000815260040161065690613618565b60405180910390fd5b6004600083815260200190815260200160002060009054906101000a900473ffffffffffffffffffffffffffffffffffffffff169050919050565b60006106a582610a08565b90508073ffffffffffffffffffffffffffffffffffffffff168373ffffffffffffffffffffffffffffffffffffffff161415610716576040517f08c379a000000000000000000000000000000000000000000000000000000000815260040161070d90613678565b60405180910390fd5b8073ffffffffffffffffffffffffffffffffffffffff1661073561136c565b73ffffffffffffffffffffffffffffffffffffffff16148061076457506107638161075e61136c565b6110fa565b5b6107a3576040517f08c379a000000000000000000000000000000000000000000000000000000000815260040161079a90613558565b60405180910390fd5b6107ad8383611374565b505050565b6107ba61136c565b73ffffffffffffffffffffffffffffffffffffffff166107d8610bfa565b73ffffffffffffffffffffffffffffffffffffffff161461082e576040517f08c379a000000000000000000000000000000000000000000000000000000000815260040161082590613638565b60405180910390fd5b610838828261142d565b5050565b61084d61084761136c565b826114a1565b61088c576040517f08c379a000000000000000000000000000000000000000000000000000000000815260040161088390613698565b60405180910390fd5b61089783838361157f565b505050565b600060086000838152602001908152602001600020600101549050919050565b6108c58261089c565b6108ce816117e6565b6108d883836117fa565b505050565b6108e561136c565b73ffffffffffffffffffffffffffffffffffffffff168173ffffffffffffffffffffffffffffffffffffffff1614610952576040517f08c379a0000000000000000000000000000000000000000000000000000000008152600401610949906136b8565b60405180910390fd5b61095c82826118db565b5050565b61097b83838360405180602001604052806000815250610dd4565b505050565b61098861136c565b73ffffffffffffffffffffffffffffffffffffffff166109a6610bfa565b73ffffffffffffffffffffffffffffffffffffffff16146109fc576040517f08c379a00000000000000000000000000000000000000000000000000000000081526004016109f390613638565b60405180910390fd5b610a05816119bd565b50565b6000806002600084815260200190815260200160002060009054906101000a900473ffffffffffffffffffffffffffffffffffffffff169050600073ffffffffffffffffffffffffffffffffffffffff168173ffffffffffffffffffffffffffffffffffffffff161415610ab1576040517f08c379a0000000000000000000000000000000000000000000000000000000008152600401610aa890613598565b60405180910390fd5b80915050919050565b60008073ffffffffffffffffffffffffffffffffffffffff168273ffffffffffffffffffffffffffffffffffffffff161415610b2b576040517f08c379a0000000000000000000000000000000000000000000000000000000008152600401610b2290613578565b60405180910390fd5b600360008373ffffffffffffffffffffffffffffffffffffffff1673ffffffffffffffffffffffffffffffffffffffff168152602001908152602001600020549050919050565b610b7a61136c565b73ffffffffffffffffffffffffffffffffffffffff16610b98610bfa565b73ffffffffffffffffffffffffffffffffffffffff1614610bee576040517f08c379a0000000000000000000000000000000000000000000000000000000008152600401610be590613638565b60405180910390fd5b610bf86000611a10565b565b6000600760009054906101000a900473ffffffffffffffffffffffffffffffffffffffff16905090565b60006008600084815260200190815260200160002060000160008373ffffffffffffffffffffffffffffffffffffffff1673ffffffffffffffffffffffffffffffffffffffff16815260200190815260200160002060009054906101000a900460ff16905092915050565b610c9761136c565b73ffffffffffffffffffffffffffffffffffffffff16610cb5610bfa565b73ffffffffffffffffffffffffffffffffffffffff1614610d0b576040517f08c379a0000000000000000000000000000000000000000000000000000000008152600401610d0290613638565b60405180910390fd5b80600a9080519060200190610d21929190612945565b5050565b606060018054610d34906139e8565b80601f0160208091040260200160405190810160405280929190818152602001828054610d60906139e8565b8015610dad5780601f10610d8257610100808354040283529160200191610dad565b820191906000526020600020905b815481529060010190602001808311610d9057829003601f168201915b5050505050905090565b6000801b81565b610dd0610dc961136c565b8383611ad6565b5050565b610de5610ddf61136c565b836114a1565b610e24576040517f08c379a0000000000000000000000000000000000000000000000000000000008152600401610e1b90613698565b60405180910390fd5b610e3084848484611c43565b50505050565b60005b8151811015610ec557610e5533610e506009611c9f565b611cad565b610ea8610e626009611c9f565b838381518110610e9b577f4e487b7100000000000000000000000000000000000000000000000000000000600052603260045260246000fd5b602002602001015161142d565b610eb26009611ccb565b8080610ebd90613a4b565b915050610e39565b5050565b6060610ed482611300565b610f13576040517f08c379a0000000000000000000000000000000000000000000000000000000008152600401610f0a906135f8565b60405180910390fd5b6000600660008481526020019081526020016000208054610f33906139e8565b80601f0160208091040260200160405190810160405280929190818152602001828054610f5f906139e8565b8015610fac5780601f10610f8157610100808354040283529160200191610fac565b820191906000526020600020905b815481529060010190602001808311610f8f57829003601f168201915b505050505090506000610fbd611ce1565b9050600081511415610fd3578192505050611016565b600082511115611008578082604051602001610ff092919061333b565b60405160208183030381529060405292505050611016565b61101184611cf8565b925050505b919050565b6110248261089c565b61102d816117e6565b61103783836118db565b505050565b60006110486009611c9f565b90506110546009611ccb565b61105e3382611cad565b611068818361142d565b5050565b600a8054611079906139e8565b80601f01602080910402602001604051908101604052809291908181526020018280546110a5906139e8565b80156110f25780601f106110c7576101008083540402835291602001916110f2565b820191906000526020600020905b8154815290600101906020018083116110d557829003601f168201915b505050505081565b6000600560008473ffffffffffffffffffffffffffffffffffffffff1673ffffffffffffffffffffffffffffffffffffffff16815260200190815260200160002060008373ffffffffffffffffffffffffffffffffffffffff1673ffffffffffffffffffffffffffffffffffffffff16815260200190815260200160002060009054906101000a900460ff16905092915050565b61119661136c565b73ffffffffffffffffffffffffffffffffffffffff166111b4610bfa565b73ffffffffffffffffffffffffffffffffffffffff161461120a576040517f08c379a000000000000000000000000000000000000000000000000000000000815260040161120190613638565b60405180910390fd5b600073ffffffffffffffffffffffffffffffffffffffff168173ffffffffffffffffffffffffffffffffffffffff16141561127a576040517f08c379a000000000000000000000000000000000000000000000000000000000815260040161127190613498565b60405180910390fd5b61128381611a10565b50565b60007f7965db0b000000000000000000000000000000000000000000000000000000007bffffffffffffffffffffffffffffffffffffffffffffffffffffffff1916827bffffffffffffffffffffffffffffffffffffffffffffffffffffffff191614806112f957506112f882611d9f565b5b9050919050565b60008073ffffffffffffffffffffffffffffffffffffffff166002600084815260200190815260200160002060009054906101000a900473ffffffffffffffffffffffffffffffffffffffff1673ffffffffffffffffffffffffffffffffffffffff1614159050919050565b600033905090565b816004600083815260200190815260200160002060006101000a81548173ffffffffffffffffffffffffffffffffffffffff021916908373ffffffffffffffffffffffffffffffffffffffff160217905550808273ffffffffffffffffffffffffffffffffffffffff166113e783610a08565b73ffffffffffffffffffffffffffffffffffffffff167f8c5be1e5ebec7d5bd14f71427d1e84f3dd0314c0f7b2291e5b200ac8c7c3b92560405160405180910390a45050565b61143682611300565b611475576040517f08c379a000000000000000000000000000000000000000000000000000000000815260040161146c906135b8565b60405180910390fd5b8060066000848152602001908152602001600020908051906020019061149c929190612945565b505050565b60006114ac82611300565b6114eb576040517f08c379a00000000000000000000000000000000000000000000000000000000081526004016114e290613538565b60405180910390fd5b60006114f683610a08565b90508073ffffffffffffffffffffffffffffffffffffffff168473ffffffffffffffffffffffffffffffffffffffff161480611538575061153781856110fa565b5b8061157657508373ffffffffffffffffffffffffffffffffffffffff1661155e84610615565b73ffffffffffffffffffffffffffffffffffffffff16145b91505092915050565b8273ffffffffffffffffffffffffffffffffffffffff1661159f82610a08565b73ffffffffffffffffffffffffffffffffffffffff16146115f5576040517f08c379a00000000000000000000000000000000000000000000000000000000081526004016115ec906134b8565b60405180910390fd5b600073ffffffffffffffffffffffffffffffffffffffff168273ffffffffffffffffffffffffffffffffffffffff161415611665576040517f08c379a000000000000000000000000000000000000000000000000000000000815260040161165c906134f8565b60405180910390fd5b611670838383611e81565b61167b600082611374565b6001600360008573ffffffffffffffffffffffffffffffffffffffff1673ffffffffffffffffffffffffffffffffffffffff16815260200190815260200160002060008282546116cb91906138ca565b925050819055506001600360008473ffffffffffffffffffffffffffffffffffffffff1673ffffffffffffffffffffffffffffffffffffffff168152602001908152602001600020600082825461172291906137e9565b92505081905550816002600083815260200190815260200160002060006101000a81548173ffffffffffffffffffffffffffffffffffffffff021916908373ffffffffffffffffffffffffffffffffffffffff160217905550808273ffffffffffffffffffffffffffffffffffffffff168473ffffffffffffffffffffffffffffffffffffffff167fddf252ad1be2c89b69c2b068fc378daa952ba7f163c4a11628f55a4df523b3ef60405160405180910390a46117e1838383611e86565b505050565b6117f7816117f261136c565b611e8b565b50565b6118048282610c24565b6118d75760016008600084815260200190815260200160002060000160008373ffffffffffffffffffffffffffffffffffffffff1673ffffffffffffffffffffffffffffffffffffffff16815260200190815260200160002060006101000a81548160ff02191690831515021790555061187c61136c565b73ffffffffffffffffffffffffffffffffffffffff168173ffffffffffffffffffffffffffffffffffffffff16837f2f8788117e7eff1d82e926ec794901d17c78024a50270940304540a733656f0d60405160405180910390a45b5050565b6118e58282610c24565b156119b95760006008600084815260200190815260200160002060000160008373ffffffffffffffffffffffffffffffffffffffff1673ffffffffffffffffffffffffffffffffffffffff16815260200190815260200160002060006101000a81548160ff02191690831515021790555061195e61136c565b73ffffffffffffffffffffffffffffffffffffffff168173ffffffffffffffffffffffffffffffffffffffff16837ff6391f5c32d9c69d2a47ea670b442974b53935d1edc7fd64eb21e047a839171b60405160405180910390a45b5050565b6119c681611f28565b60006006600083815260200190815260200160002080546119e6906139e8565b905014611a0d57600660008281526020019081526020016000206000611a0c91906129cb565b5b50565b6000600760009054906101000a900473ffffffffffffffffffffffffffffffffffffffff16905081600760006101000a81548173ffffffffffffffffffffffffffffffffffffffff021916908373ffffffffffffffffffffffffffffffffffffffff1602179055508173ffffffffffffffffffffffffffffffffffffffff168173ffffffffffffffffffffffffffffffffffffffff167f8be0079c531659141344cd1fd0a4f28419497f9722a3daafe3b4186f6b6457e060405160405180910390a35050565b8173ffffffffffffffffffffffffffffffffffffffff168373ffffffffffffffffffffffffffffffffffffffff161415611b45576040517f08c379a0000000000000000000000000000000000000000000000000000000008152600401611b3c90613518565b60405180910390fd5b80600560008573ffffffffffffffffffffffffffffffffffffffff1673ffffffffffffffffffffffffffffffffffffffff16815260200190815260200160002060008473ffffffffffffffffffffffffffffffffffffffff1673ffffffffffffffffffffffffffffffffffffffff16815260200190815260200160002060006101000a81548160ff0219169083151502179055508173ffffffffffffffffffffffffffffffffffffffff168373ffffffffffffffffffffffffffffffffffffffff167f17307eab39ab6107e8899845ad3d59bd9653f200f220920489ca2b5937696c3183604051611c369190613400565b60405180910390a3505050565b611c4e84848461157f565b611c5a84848484612045565b611c99576040517f08c379a0000000000000000000000000000000000000000000000000000000008152600401611c9090613478565b60405180910390fd5b50505050565b600081600001549050919050565b611cc78282604051806020016040528060008152506121dc565b5050565b6001816000016000828254019250508190555050565b606060405180602001604052806000815250905090565b6060611d0382611300565b611d42576040517f08c379a0000000000000000000000000000000000000000000000000000000008152600401611d3990613658565b60405180910390fd5b6000611d4c611ce1565b90506000815111611d6c5760405180602001604052806000815250611d97565b80611d7684612237565b604051602001611d8792919061333b565b6040516020818303038152906040525b915050919050565b60007f80ac58cd000000000000000000000000000000000000000000000000000000007bffffffffffffffffffffffffffffffffffffffffffffffffffffffff1916827bffffffffffffffffffffffffffffffffffffffffffffffffffffffff19161480611e6a57507f5b5e139f000000000000000000000000000000000000000000000000000000007bffffffffffffffffffffffffffffffffffffffffffffffffffffffff1916827bffffffffffffffffffffffffffffffffffffffffffffffffffffffff1916145b80611e7a5750611e79826123e4565b5b9050919050565b505050565b505050565b611e958282610c24565b611f2457611eba8173ffffffffffffffffffffffffffffffffffffffff16601461244e565b611ec88360001c602061244e565b604051602001611ed992919061335f565b6040516020818303038152906040526040517f08c379a0000000000000000000000000000000000000000000000000000000008152600401611f1b9190613436565b60405180910390fd5b5050565b6000611f3382610a08565b9050611f4181600084611e81565b611f4c600083611374565b6001600360008373ffffffffffffffffffffffffffffffffffffffff1673ffffffffffffffffffffffffffffffffffffffff1681526020019081526020016000206000828254611f9c91906138ca565b925050819055506002600083815260200190815260200160002060006101000a81549073ffffffffffffffffffffffffffffffffffffffff021916905581600073ffffffffffffffffffffffffffffffffffffffff168273ffffffffffffffffffffffffffffffffffffffff167fddf252ad1be2c89b69c2b068fc378daa952ba7f163c4a11628f55a4df523b3ef60405160405180910390a461204181600084611e86565b5050565b60006120668473ffffffffffffffffffffffffffffffffffffffff16612748565b156121cf578373ffffffffffffffffffffffffffffffffffffffff1663150b7a0261208f61136c565b8786866040518563ffffffff1660e01b81526004016120b194939291906133b4565b602060405180830381600087803b1580156120cb57600080fd5b505af19250505080156120fc57506040513d601f19601f820116820180604052508101906120f99190612e73565b60015b61217f573d806000811461212c576040519150601f19603f3d011682016040523d82523d6000602084013e612131565b606091505b50600081511415612177576040517f08c379a000000000000000000000000000000000000000000000000000000000815260040161216e90613478565b60405180910390fd5b805181602001fd5b63150b7a0260e01b7bffffffffffffffffffffffffffffffffffffffffffffffffffffffff1916817bffffffffffffffffffffffffffffffffffffffffffffffffffffffff1916149150506121d4565b600190505b949350505050565b6121e6838361276b565b6121f36000848484612045565b612232576040517f08c379a000000000000000000000000000000000000000000000000000000000815260040161222990613478565b60405180910390fd5b505050565b6060600082141561227f576040518060400160405280600181526020017f300000000000000000000000000000000000000000000000000000000000000081525090506123df565b600082905060005b600082146122b157808061229a90613a4b565b915050600a826122aa919061383f565b9150612287565b60008167ffffffffffffffff8111156122f3577f4e487b7100000000000000000000000000000000000000000000000000000000600052604160045260246000fd5b6040519080825280601f01601f1916602001820160405280156123255781602001600182028036833780820191505090505b5090505b600085146123d85760018261233e91906138ca565b9150600a8561234d9190613a94565b603061235991906137e9565b60f81b818381518110612395577f4e487b7100000000000000000000000000000000000000000000000000000000600052603260045260246000fd5b60200101907effffffffffffffffffffffffffffffffffffffffffffffffffffffffffffff1916908160001a905350600a856123d1919061383f565b9450612329565b8093505050505b919050565b60007f01ffc9a7000000000000000000000000000000000000000000000000000000007bffffffffffffffffffffffffffffffffffffffffffffffffffffffff1916827bffffffffffffffffffffffffffffffffffffffffffffffffffffffff1916149050919050565b6060600060028360026124619190613870565b61246b91906137e9565b67ffffffffffffffff8111156124aa577f4e487b7100000000000000000000000000000000000000000000000000000000600052604160045260246000fd5b6040519080825280601f01601f1916602001820160405280156124dc5781602001600182028036833780820191505090505b5090507f30000000000000000000000000000000000000000000000000000000000000008160008151811061253a577f4e487b7100000000000000000000000000000000000000000000000000000000600052603260045260246000fd5b60200101907effffffffffffffffffffffffffffffffffffffffffffffffffffffffffffff1916908160001a9053507f7800000000000000000000000000000000000000000000000000000000000000816001815181106125c4577f4e487b7100000000000000000000000000000000000000000000000000000000600052603260045260246000fd5b60200101907effffffffffffffffffffffffffffffffffffffffffffffffffffffffffffff1916908160001a905350600060018460026126049190613870565b61260e91906137e9565b90505b60018111156126fa577f3031323334353637383961626364656600000000000000000000000000000000600f861660108110612676577f4e487b7100000000000000000000000000000000000000000000000000000000600052603260045260246000fd5b1a60f81b8282815181106126b3577f4e487b7100000000000000000000000000000000000000000000000000000000600052603260045260246000fd5b60200101907effffffffffffffffffffffffffffffffffffffffffffffffffffffffffffff1916908160001a905350600485901c9450806126f3906139be565b9050612611565b506000841461273e576040517f08c379a000000000000000000000000000000000000000000000000000000000815260040161273590613458565b60405180910390fd5b8091505092915050565b6000808273ffffffffffffffffffffffffffffffffffffffff163b119050919050565b600073ffffffffffffffffffffffffffffffffffffffff168273ffffffffffffffffffffffffffffffffffffffff1614156127db576040517f08c379a00000000000000000000000000000000000000000000000000000000081526004016127d2906135d8565b60405180910390fd5b6127e481611300565b15612824576040517f08c379a000000000000000000000000000000000000000000000000000000000815260040161281b906134d8565b60405180910390fd5b61283060008383611e81565b6001600360008473ffffffffffffffffffffffffffffffffffffffff1673ffffffffffffffffffffffffffffffffffffffff168152602001908152602001600020600082825461288091906137e9565b92505081905550816002600083815260200190815260200160002060006101000a81548173ffffffffffffffffffffffffffffffffffffffff021916908373ffffffffffffffffffffffffffffffffffffffff160217905550808273ffffffffffffffffffffffffffffffffffffffff16600073ffffffffffffffffffffffffffffffffffffffff167fddf252ad1be2c89b69c2b068fc378daa952ba7f163c4a11628f55a4df523b3ef60405160405180910390a461294160008383611e86565b5050565b828054612951906139e8565b90600052602060002090601f01602090048101928261297357600085556129ba565b82601f1061298c57805160ff19168380011785556129ba565b828001600101855582156129ba579182015b828111156129b957825182559160200191906001019061299e565b5b5090506129c79190612a0b565b5090565b5080546129d7906139e8565b6000825580601f106129e95750612a08565b601f016020900490600052602060002090810190612a079190612a0b565b5b50565b5b80821115612a24576000816000905550600101612a0c565b5090565b6000612a3b612a3684613718565b6136f3565b9050808382526020820190508260005b85811015612a7b5781358501612a618882612bbe565b845260208401935060208301925050600181019050612a4b565b5050509392505050565b6000612a98612a9384613744565b6136f3565b905082815260208101848484011115612ab057600080fd5b612abb84828561397c565b509392505050565b6000612ad6612ad184613775565b6136f3565b905082815260208101848484011115612aee57600080fd5b612af984828561397c565b509392505050565b600081359050612b1081614152565b92915050565b600082601f830112612b2757600080fd5b8135612b37848260208601612a28565b91505092915050565b600081359050612b4f81614169565b92915050565b600081359050612b6481614180565b92915050565b600081359050612b7981614197565b92915050565b600081519050612b8e81614197565b92915050565b600082601f830112612ba557600080fd5b8135612bb5848260208601612a85565b91505092915050565b600082601f830112612bcf57600080fd5b8135612bdf848260208601612ac3565b91505092915050565b600081359050612bf7816141ae565b92915050565b600060208284031215612c0f57600080fd5b6000612c1d84828501612b01565b91505092915050565b60008060408385031215612c3957600080fd5b6000612c4785828601612b01565b9250506020612c5885828601612b01565b9150509250929050565b600080600060608486031215612c7757600080fd5b6000612c8586828701612b01565b9350506020612c9686828701612b01565b9250506040612ca786828701612be8565b9150509250925092565b60008060008060808587031215612cc757600080fd5b6000612cd587828801612b01565b9450506020612ce687828801612b01565b9350506040612cf787828801612be8565b925050606085013567ffffffffffffffff811115612d1457600080fd5b612d2087828801612b94565b91505092959194509250565b60008060408385031215612d3f57600080fd5b6000612d4d85828601612b01565b9250506020612d5e85828601612b40565b9150509250929050565b60008060408385031215612d7b57600080fd5b6000612d8985828601612b01565b9250506020612d9a85828601612be8565b9150509250929050565b600060208284031215612db657600080fd5b600082013567ffffffffffffffff811115612dd057600080fd5b612ddc84828501612b16565b91505092915050565b600060208284031215612df757600080fd5b6000612e0584828501612b55565b91505092915050565b60008060408385031215612e2157600080fd5b6000612e2f85828601612b55565b9250506020612e4085828601612b01565b9150509250929050565b600060208284031215612e5c57600080fd5b6000612e6a84828501612b6a565b91505092915050565b600060208284031215612e8557600080fd5b6000612e9384828501612b7f565b91505092915050565b600060208284031215612eae57600080fd5b600082013567ffffffffffffffff811115612ec857600080fd5b612ed484828501612bbe565b91505092915050565b600060208284031215612eef57600080fd5b6000612efd84828501612be8565b91505092915050565b60008060408385031215612f1957600080fd5b6000612f2785828601612be8565b925050602083013567ffffffffffffffff811115612f4457600080fd5b612f5085828601612bbe565b9150509250929050565b612f63816138fe565b82525050565b612f7281613910565b82525050565b612f818161391c565b82525050565b6000612f92826137a6565b612f9c81856137bc565b9350612fac81856020860161398b565b612fb581613b81565b840191505092915050565b6000612fcb826137b1565b612fd581856137cd565b9350612fe581856020860161398b565b612fee81613b81565b840191505092915050565b6000613004826137b1565b61300e81856137de565b935061301e81856020860161398b565b80840191505092915050565b60006130376020836137cd565b915061304282613b92565b602082019050919050565b600061305a6032836137cd565b915061306582613bbb565b604082019050919050565b600061307d6026836137cd565b915061308882613c0a565b604082019050919050565b60006130a06025836137cd565b91506130ab82613c59565b604082019050919050565b60006130c3601c836137cd565b91506130ce82613ca8565b602082019050919050565b60006130e66024836137cd565b91506130f182613cd1565b604082019050919050565b60006131096019836137cd565b915061311482613d20565b602082019050919050565b600061312c602c836137cd565b915061313782613d49565b604082019050919050565b600061314f6038836137cd565b915061315a82613d98565b604082019050919050565b6000613172602a836137cd565b915061317d82613de7565b604082019050919050565b60006131956029836137cd565b91506131a082613e36565b604082019050919050565b60006131b8602e836137cd565b91506131c382613e85565b604082019050919050565b60006131db6020836137cd565b91506131e682613ed4565b602082019050919050565b60006131fe6031836137cd565b915061320982613efd565b604082019050919050565b6000613221602c836137cd565b915061322c82613f4c565b604082019050919050565b60006132446020836137cd565b915061324f82613f9b565b602082019050919050565b6000613267602f836137cd565b915061327282613fc4565b604082019050919050565b600061328a6021836137cd565b915061329582614013565b604082019050919050565b60006132ad6031836137cd565b91506132b882614062565b604082019050919050565b60006132d06017836137de565b91506132db826140b1565b601782019050919050565b60006132f36011836137de565b91506132fe826140da565b601182019050919050565b6000613316602f836137cd565b915061332182614103565b604082019050919050565b61333581613972565b82525050565b60006133478285612ff9565b91506133538284612ff9565b91508190509392505050565b600061336a826132c3565b91506133768285612ff9565b9150613381826132e6565b915061338d8284612ff9565b91508190509392505050565b60006020820190506133ae6000830184612f5a565b92915050565b60006080820190506133c96000830187612f5a565b6133d66020830186612f5a565b6133e3604083018561332c565b81810360608301526133f58184612f87565b905095945050505050565b60006020820190506134156000830184612f69565b92915050565b60006020820190506134306000830184612f78565b92915050565b600060208201905081810360008301526134508184612fc0565b905092915050565b600060208201905081810360008301526134718161302a565b9050919050565b600060208201905081810360008301526134918161304d565b9050919050565b600060208201905081810360008301526134b181613070565b9050919050565b600060208201905081810360008301526134d181613093565b9050919050565b600060208201905081810360008301526134f1816130b6565b9050919050565b60006020820190508181036000830152613511816130d9565b9050919050565b60006020820190508181036000830152613531816130fc565b9050919050565b600060208201905081810360008301526135518161311f565b9050919050565b6000602082019050818103600083015261357181613142565b9050919050565b6000602082019050818103600083015261359181613165565b9050919050565b600060208201905081810360008301526135b181613188565b9050919050565b600060208201905081810360008301526135d1816131ab565b9050919050565b600060208201905081810360008301526135f1816131ce565b9050919050565b60006020820190508181036000830152613611816131f1565b9050919050565b6000602082019050818103600083015261363181613214565b9050919050565b6000602082019050818103600083015261365181613237565b9050919050565b600060208201905081810360008301526136718161325a565b9050919050565b600060208201905081810360008301526136918161327d565b9050919050565b600060208201905081810360008301526136b1816132a0565b9050919050565b600060208201905081810360008301526136d181613309565b9050919050565b60006020820190506136ed600083018461332c565b92915050565b60006136fd61370e565b90506137098282613a1a565b919050565b6000604051905090565b600067ffffffffffffffff82111561373357613732613b52565b5b602082029050602081019050919050565b600067ffffffffffffffff82111561375f5761375e613b52565b5b61376882613b81565b9050602081019050919050565b600067ffffffffffffffff8211156137905761378f613b52565b5b61379982613b81565b9050602081019050919050565b600081519050919050565b600081519050919050565b600082825260208201905092915050565b600082825260208201905092915050565b600081905092915050565b60006137f482613972565b91506137ff83613972565b9250827fffffffffffffffffffffffffffffffffffffffffffffffffffffffffffffffff0382111561383457613833613ac5565b5b828201905092915050565b600061384a82613972565b915061385583613972565b92508261386557613864613af4565b5b828204905092915050565b600061387b82613972565b915061388683613972565b9250817fffffffffffffffffffffffffffffffffffffffffffffffffffffffffffffffff04831182151516156138bf576138be613ac5565b5b828202905092915050565b60006138d582613972565b91506138e083613972565b9250828210156138f3576138f2613ac5565b5b828203905092915050565b600061390982613952565b9050919050565b60008115159050919050565b6000819050919050565b60007fffffffff0000000000000000000000000000000000000000000000000000000082169050919050565b600073ffffffffffffffffffffffffffffffffffffffff82169050919050565b6000819050919050565b82818337600083830152505050565b60005b838110156139a957808201518184015260208101905061398e565b838111156139b8576000848401525b50505050565b60006139c982613972565b915060008214156139dd576139dc613ac5565b5b600182039050919050565b60006002820490506001821680613a0057607f821691505b60208210811415613a1457613a13613b23565b5b50919050565b613a2382613b81565b810181811067ffffffffffffffff82111715613a4257613a41613b52565b5b80604052505050565b6000613a5682613972565b91507fffffffffffffffffffffffffffffffffffffffffffffffffffffffffffffffff821415613a8957613a88613ac5565b5b600182019050919050565b6000613a9f82613972565b9150613aaa83613972565b925082613aba57613ab9613af4565b5b828206905092915050565b7f4e487b7100000000000000000000000000000000000000000000000000000000600052601160045260246000fd5b7f4e487b7100000000000000000000000000000000000000000000000000000000600052601260045260246000fd5b7f4e487b7100000000000000000000000000000000000000000000000000000000600052602260045260246000fd5b7f4e487b7100000000000000000000000000000000000000000000000000000000600052604160045260246000fd5b6000601f19601f8301169050919050565b7f537472696e67733a20686578206c656e67746820696e73756666696369656e74600082015250565b7f4552433732313a207472616e7366657220746f206e6f6e20455243373231526560008201527f63656976657220696d706c656d656e7465720000000000000000000000000000602082015250565b7f4f776e61626c653a206e6577206f776e657220697320746865207a65726f206160008201527f6464726573730000000000000000000000000000000000000000000000000000602082015250565b7f4552433732313a207472616e736665722066726f6d20696e636f72726563742060008201527f6f776e6572000000000000000000000000000000000000000000000000000000602082015250565b7f4552433732313a20746f6b656e20616c7265616479206d696e74656400000000600082015250565b7f4552433732313a207472616e7366657220746f20746865207a65726f2061646460008201527f7265737300000000000000000000000000000000000000000000000000000000602082015250565b7f4552433732313a20617070726f766520746f2063616c6c657200000000000000600082015250565b7f4552433732313a206f70657261746f7220717565727920666f72206e6f6e657860008201527f697374656e7420746f6b656e0000000000000000000000000000000000000000602082015250565b7f4552433732313a20617070726f76652063616c6c6572206973206e6f74206f7760008201527f6e6572206e6f7220617070726f76656420666f7220616c6c0000000000000000602082015250565b7f4552433732313a2062616c616e636520717565727920666f7220746865207a6560008201527f726f206164647265737300000000000000000000000000000000000000000000602082015250565b7f4552433732313a206f776e657220717565727920666f72206e6f6e657869737460008201527f656e7420746f6b656e0000000000000000000000000000000000000000000000602082015250565b7f45524337323155524953746f726167653a2055524920736574206f66206e6f6e60008201527f6578697374656e7420746f6b656e000000000000000000000000000000000000602082015250565b7f4552433732313a206d696e7420746f20746865207a65726f2061646472657373600082015250565b7f45524337323155524953746f726167653a2055524920717565727920666f722060008201527f6e6f6e6578697374656e7420746f6b656e000000000000000000000000000000602082015250565b7f4552433732313a20617070726f76656420717565727920666f72206e6f6e657860008201527f697374656e7420746f6b656e0000000000000000000000000000000000000000602082015250565b7f4f776e61626c653a2063616c6c6572206973206e6f7420746865206f776e6572600082015250565b7f4552433732314d657461646174613a2055524920717565727920666f72206e6f60008201527f6e6578697374656e7420746f6b656e0000000000000000000000000000000000602082015250565b7f4552433732313a20617070726f76616c20746f2063757272656e74206f776e6560008201527f7200000000000000000000000000000000000000000000000000000000000000602082015250565b7f4552433732313a207472616e736665722063616c6c6572206973206e6f74206f60008201527f776e6572206e6f7220617070726f766564000000000000000000000000000000602082015250565b7f416363657373436f6e74726f6c3a206163636f756e7420000000000000000000600082015250565b7f206973206d697373696e6720726f6c6520000000000000000000000000000000600082015250565b7f416363657373436f6e74726f6c3a2063616e206f6e6c792072656e6f756e636560008201527f20726f6c657320666f722073656c660000000000000000000000000000000000602082015250565b61415b816138fe565b811461416657600080fd5b50565b61417281613910565b811461417d57600080fd5b50565b6141898161391c565b811461419457600080fd5b50565b6141a081613926565b81146141ab57600080fd5b50565b6141b781613972565b81146141c257600080fd5b5056fea26469706673582212205cfe961cbe67fdf4d939d4e17e26b54fa59cc5d595b7055222f849baf5e9528c64736f6c63430008010033",
  "linkReferences": {},
  "deployedLinkReferences": {}
}